S019000068656C6C6F5F776F726C645F746F7765722E73726563E0
S1130000F81F0020110400002938000029380000DE
S11300102938000029380000293800002938000058
S11300202938000029380000293800002938000048
S11300302938000029380000293800002938000038
S11300402938000029380000293800002938000028
S11300502938000029380000293800002938000018
S11300602938000029380000293800002938000008
S113007029380000293800002938000029380000F8
S113008029380000293800002938000029380000E8
S113009029380000293800002938000029380000D8
S11300A029380000293800002938000029380000C8
S11300B029380000293800002938000029380000B8
S11300C029380000293800002938000029380000A8
S11300D02938000029380000293800002938000098
S11300E02938000029380000293800002938000088
S11300F02938000029380000FFFFFFFFFFFFFFFF42
S1130100FFFFFFFFFFFFFFFFFFFFFFFFFFFFFFFFFB
S1130110FFFFFFFFFFFFFFFFFFFFFFFFFFFFFFFFEB
S1130120FFFFFFFFFFFFFFFFFFFFFFFFFFFFFFFFDB
S1130130FFFFFFFFFFFFFFFFFFFFFFFFFFFFFFFFCB
S1130400FFFFFFFFFFFFFFFFFFFFFFFFFEFFFFFFF9
S11304104FF000004FF000014FF000024FF00003D6
S11304204FF000044FF000054FF000064FF00007B6
S113043062B601F0F5FBFEE72DE9F04FA1B080466E
S113044017461D46029102AE0020706211AC6FF097
S113045000490AE017F8011B0298C04702900028DF
S113046000F06A82706A401C7062387808B9706A59
S113047064E22528EED10020F06030617061B06143
S1130480F061306201E040F0010017F8011F2029FB
S1130490F9D023290DD02B2904D02D2906D03029B9
S11304A00AD00CE040F0020080B2EEE740F0040015
S11304B0FAE740F00800F7E740F01000F4E72A29D3
S11304C00DD129680A1D2A600968F162002904D542
S11304D04942F16240F0040080B27F1C12E0002126
S11304E0F16209E0F16A494505D001EB810302EBB1
S11304F043013039F1627F1C3A78A2F13001C9B26C
S11305000A29EFD339782E2903D04FF0FF31B16295
S11305101DE017F8011F2A2906D129680A1D2A603F
S11305200968B1627F1C12E00021B16209E0B16A7E
S1130530494505D001EB810302EB43013039B16237
S11305407F1C3A78A2F13001C9B20A29EFD3308670
S113055039780FF6803000F0DBFD08B117F8010B95
S11305608DF83A009DF83A00682804D13878682854
S11305700AD1622005E06C2804BF38786C2803D1C6
S113058071208DF83A007F1C11A8B0603978B1F160
S1130590250023D01C3871D0001F02286ED91338CF
S11305A000F09680093869D0801E00F02781401E33
S11305B000F0D180401E022860D9001F00F0CB80DB
S11305C0401F30D0401E00F08380401E20D0C01E4B
S11305D009D0801E7CD0C01E7AD017E1F068411C7F
S11305E0F16025211BE12868011D29600068706005
S11305F0B26A002A02D500F097FD07E0002100F05E
S1130600AFFD00281ABF7168401AB06A306107E173
S11306102868011D296000680021CDE9000111A8A6
S113062070607821E6E09DF83A00622818D06828C6
S113063006D06A280BD06C2819D0712807D016E090
S11306402868011D2960716A00680180E8E02A6851
S1130650101D2860706AC1171268C2E90001DFE04A
S11306602868011D2960716A00680170D8E0286853
S1130670011D2960716A00680160D1E02868C01D0D
S113068020F00700286000F108022A60D0E9002366
S1130690CDE90023002B04D5F068421CF2602D2222
S11306A00DE0308E820704D5F068421CF2602B22E4
S11306B005E0C00704D5F068421CF2602022025510
S11306C0F06811AA8018706000A800F0C5F9A7E0CE
S11306D09DF83A006C2808BF2A6811D0712808BF19
S11306E02A6802D06A282A680AD1D21D22F0070299
S11306F02A6094460CF108022A60DCE9002303E036
S1130700131D2B6012680023CDE90023682808BF5D
S113071092B207D0622808BFD2B203D0742818BF9F
S11307207A2802D10023CDE9002396F8300000078F
S11307305CD5DDE90023002B08BF002A56D041F028
S11307402000782852D1F06830220255401C421C07
S1130750F26001554AE09DF83A0062280CD06828FE
S113076010D06A281AD06C2823D0712816D0742887
S11307701FD07A280CD01CE02868021D2A6090F94A
S113078000201AE02868021D2A60B0F9002014E055
S11307902868021D2A60026800230FE02868C01D33
S11307A020F00700286000F108022A60D0E9002345
S11307B004E02868021D2A600268D317CDE90023EB
S11307C0002B04DAF068421CF2602D220DE0308E1A
S11307D0820704D5F068421CF2602B2205E0C007B2
S11307E004D5F068421CF26020220255F06811AA78
S11307F08018706000A800F0A4F811E0F068411CB3
S1130800F16029680A1D2A60096808E0F068421C42
S1130810F2602522025519B1F068421CF2600155BC
S11308207F1CF06AF168401AB169401A3169401AB4
S1130830F169401A7169401A316AA0EB010A96F80D
S11308403000400711D420208DF84000BAF1010F88
S11308500BDBD346012310AA00A9404600F023FC79
S1130860002869D1BBF1010BF4D1F36811AA00A9E6
S1130870404600F018FC00285ED130208DF840007E
S1130880D6F818B0BBF1010F0ADB012310AA00A9A6
S1130890404600F008FC00284ED1BBF1010BF4D116
S11308A03369726800A9404600F0FDFB002843D17B
S11308B030208DF84000D6F81CB0BBF1010F09DBE5
S11308C0012310AA00A9404600F0EDFBA0BBBBF138
S11308D0010BF5D1736930697168421800A940466B
S11308E000F0E1FB40BB30208DF84000D6F820B08A
S11308F0BBF1010F09DB012310AA00A9404600F057
S1130900D2FBC8B9BBF1010BF5D196F83000400712
S11309107FF5ABAD20208DF84000BAF1010FFFF652
S1130920A4AD012310AA00A9404600F0BCFB18B9ED
S1130930BAF1010AF5D198E54FF0FF3021B0BDE8D6
S1130940F08F2DE9FA4782B0064635696F2908BF52
S1130950082705D041F02000782814BF0A27102763
S11309603C24D6E90001804689469DF80820642A83
S113097018BF692A05D1002903DAD8F1000869EB08
S11309804909B9F1000F08BFB8F1000F0CD1306B61
S113099050B9082F3BD196F83800000737D53B24CF
S11309A0302085F83B0032E0A4F1010A5446FB17DD
S11309B0404649463A4600F0FFFBCDE90089B84677
S11309C0A8FB0023DDE90089A8EB02023032D2B291
S11309D03A2A03D39DF80830513B9A180AF80520A7
S11309E080465FEA010908BFB8F1000F03D0F06840
S11309F061198842D8D3082F09D196F83800000726
S1130A0005D5605D302802D0641E30206055C4F1E5
S1130A103C00B0616119F160316B884207DA081A51
S1130A203062308F4FF6EF710840308710E00029B4
S1130A300ED596F8381001F01401102908D1716B05
S1130A407269891A326A891A081A0128A8BF3062A1
S1130A5004B0BDE8F08700002DE9F24F8EB00446E3
S1130A6004AED4E90001CDE902019DF8380040F05C
S1130A7020008DF8000061280BD0206B002848BFAF
S1130A80062005D404BF9DF80000672801D1012089
S1130A9020636168C1F30A5040F2FF7398421ED18B
S1130AA0080304BF206800280AD10320A0619DF830
S1130AB038006138C0B21A2838D30FF22C6109E02B
S1130AC00320A0619DF838006138C0B21A282AD3E7
S1130AD00FF20C610322E06800F0E6FBB9E10128A3
S1130AE017DA204600F01BFC012812DB0027002047
S1130AF09DF80010612920D1E168302201F8012B12
S1130B004A1CE2609DF83820612A0CBF78225822E2
S1130B100FE040F2FE31626861F31E526260471AD0
S1130B204FF0FF30E4E70FF2B451D3E70FF2B451C2
S1130B30D0E70A706169891C616110B9002500273A
S1130B407EE19DF80000612840F09780206B00282A
S1130B504CBF2125451C2DB26E1CD4E90089DDE96A
S1130B6002010022002300F0FBFB3ABF89F00040A1
S1130B70CDE90280CDE902893F1F8DF810200DF1E7
S1130B801108012E35DBDDE902010022002300F00B
S1130B90FFFB2ED21C2102A800F012FCDDE90201A9
S1130BA000F094FC8146F61F012E09DB00F0BAFC2C
S1130BB002460B46DDE9020100F0CCFCCDE902015E
S1130BC008F20700072105E009F00F0200F8012DE3
S1130BD04FEA2919B9F1010F01DB491EF4D5491E69
S1130BE05CBF002200F8012DF9D500F20708012EA0
S1130BF0C9DA0DF11100A8EB00010DF11106A942AB
S1130C00B8BF0D462DB2002D30D42846884206DAEE
S1130C1004A941184978082928BF0F2100D20021CE
S1130C2004AA821800E06D1E401E12F801398B429E
S1130C30F9D00F2904D104A941184A78521C4A70EA
S1130C40002802D504AE6D1C3F1D2DB2681E0DD4C4
S1130C5081190A783032D2B23A2A03D39DF8383057
S1130C603A3B9A1801F80129401EF2D5206B00285E
S1130C7040F1E680681E2063E2E0DDE90201002223
S1130C80002300F06DFB3CBF81F00041CDE902017F
S1130C903FB247F297507843474990FBF1F73FB290
S1130CA0C7F107069246DFF814B1012E19DBDDE91E
S1130CB00289F00707D552465B464046494600F094
S1130CC009FD8046894676105046594652465B4691
S1130CD000F000FD82468B46002EEAD1CDE9028960
S1130CE021E076429046DFF8D89012E0F00707D56D
S1130CF052465B464046494600F0ECFC8046894635
S1130D0076105046594652465B4600F0E3FC824654
S1130D108B46002EEAD1DDE9020142464B4600F043
S1130D20ABFDCDE902019DF8000066280CBF07F178
S1130D300A000620216B4518142DA8BF1325302066
S1130D408DF810000DF11106DFF87890012D3BDBD2
S1130D50DDE9020100F0D0FB06F1080104220A26B5
S1130D60B0FBF6F303EB830EA0EB4E00303001F83A
S1130D70010DB3FBF6F000EB8006A3EB4603303322
S1130D8001F8013D521EEAD101F10806083D012D8A
S1130D90DCDBDDE9020100F0AFFB00F0CDFB024635
S1130DA00B46DDE9020100F0D5FB00224B4600F0C2
S1130DB091FCCDE90201CBE7A086010000002440AC
S1130DC00000F03F84D797410DF11100301A0DF166
S1130DD0110602E0401E7F1E761C31783029F9D0BE
S1130DE09DF80010662902D13FB2791C03E0652901
S1130DF00CBF01210021226B8D182DB2A842B8BF6F
S1130E0005462DB2002D1BD42946814204DA885DA3
S1130E10352828BF392000D230208A19521E00E01C
S1130E206D1E491E12F801398342F9D0392802D1C6
S1130E30885D401C8855002902D5761E6D1C7F1CD8
S1130E403FB200972BB232469DF83810204600F08E
S1130E5003F80FB0BDE8F08F2DE9F04786B00646E1
S1130E608A4690461C4600F048FE406A90F800907E
S1130E70376B012C02DA01240FF270284AF02000AB
S1130E80BDF93850662808BF6D1C13D0672876D189
S1130E906FF00300854278DBBD4276DA6D1C96F86C
S1130EA03800000702D4BC42B8BF27462DB27F1BCE
S1130EB048BF0027F068B1692DB2012D21DA4A1C20
S1130EC030230B54012F03DA96F83810090702D5A2
S1130ED002F80090521CB261EF42B8BF7D422DB2BD
S1130EE069427162EF19A742B8BF3C4624B2F4616B
S1130EF022464146B369181800F0D6F9381BB0628F
S1130F00BAE00818AC4216DA2246414600F0CCF9A1
S1130F10B1696118B161281B7062012F03DA96F878
S1130F203800000705D5F06801F80090F069401C0E
S1130F30F061B762A0E02A46414600F0B5F9B06915
S1130F402818641B012F03DA96F83810090703D513
S1130F50F16800F80190401CB06124B2A742B8BF08
S1130F603C4624B2224605EB0801F368C01800F0A1
S1130F709BF9B0692018B061381B70627CE0BAF14B
S1130F80610F14D14FF0700A16E0BC4204DA96F8EF
S1130F903810090758BF27467F1E48BF0027BAF1FB
S1130FA0670F14BF4FF0450A4FF0650A04E0BAF129
S1130FB0410F08BF4FF0500AB1694A1CF06818F895
S1130FC0013B0B54012F05DA96F83810090758BF76
S1130FD0B26115D502F80090531CB361012F0FDBE9
S1130FE0641E24B2A742B8BF3C4624B222464146FE
S1130FF0181800F059F9B0692018B061381B7062F4
S1131000B069F16800EB010808F801AB002D03D4C6
S11310102B2008F8010B03E02D2008F8010B6D428A
S1131020002402AF09E00A22294600A800F07EFD50
S1131030019807F8010B009D641C2DB2012DF2DA12
S1131040022C06DA4AF02000652804BF302008F894
S1131050010B4CB9302008F8010B07E0641E02A80C
S1131060205C303008F8010B012CF7DAB069F16824
S11310704018A8EB0000F06196F8380000F0140066
S113108010280DD17069B1690818716A0818F169DE
S11310900818B16A0818716B8842BCBF081A30621C
S11310A006B0BDE8F087F8B504460D4616461F465F
S11310B0002077B116F8011BA868A047A86030B1DA
S11310C0E86A401CE86200207F1EF3D1F2BD4FF0B5
S11310D0FF30F2BD686A6C747A4C00006E616E0079
S11310E04E414E00696E6600494E4600300050F88D
S11310F0041B61B150F8042BD30744BFA9F10103C9
S11311009A18002342F8043B091FFAD1EFE770470D
S11311100278C9B28A421AB11CBF10F8012FF9E74C
S113112018BF00207047000000F10103810704D0BC
S113113010F8011B89B18107FAD10268B2F10131BB
S1131140914311F0803F04BF50F8042FF6E710F8E4
S1131150011B11B110F8011BFBE7C01A7047000016
S1131160C9B2830706D0521E22D310F8013B99421C
S1131170F7D11FE0083A13D302F1040241EA012136
S113118041EA014150F8043B121F21BF4B40A3F137
S1131190013C2CEA030C1CF0803FF3D0C9B2001FC1
S11311A0083210F8013B521E28BF91EA030FF8D809
S11311B018BF0120401E70471B4213D1094236D18B
S11311C02AB18446B0FBF2F002FB10C2704700F073
S11311D0B5BCFCD30022002370470B0002000021A1
S11311E000207047904271EB030CF6D370B5B1FA4E
S11311F081F4B3FA83F52C1BA340C4F1200532FA21
S113120005F63343A2405FF00046E64002E05B0887
S11312105FEA3202841A71EB030524BF2046294693
S11312207641F4D302000B003000002170BD012A86
S1131230CFD970B5140C20D0B1FA81F4B2FA82F58A
S1131240C4F120046419B4F12006D6D3B2405FF08F
S11312500044F440002502E052085FEA3303C61A52
S113126071EB020E24BF3046714664416D41F3D3E5
S113127002000B002000290070BD0C46B1FBF2F106
S113128002FB11452D0445EA1045B5FBF2F402FBBF
S1131290145580B240EA0545B5FBF2F002FB10524A
S11312A040EA044070BD000062B38B0708D0521EB0
S11312B011F8013B00F8013B00F024808B07F6D1C4
S11312C0830740F0208000BF103A07D330B4B1E860
S11312D03810103AA0E83810F9D230BC530724BFB4
S11312E0B1E80810A0E8081044BF51F8043B40F8E6
S11312F0043BD20724BF31F8022B20F8022B44BF51
S11313000B7803707047083A07D3B1E80810083A1D
S113131040F8043B40F804CBF7D25307E4E730B479
S1131320436803F0004201211B031B0B436004BF0D
S11313300368002B08D10DE00368DD0F45EA44047F
S113134044605B000360491E4468E302F4D5230350
S11313501B0B436043681A434260084630BC704725
S11313604FF4001C1CEB410F94BF1CEB430F09E02E
S113137041EA030C50EA4C0C52EA0C0C03D2994299
S113138008BF9042704714BF8B42824270470000EE
S11313904FF4001C1CEB410F94BF1CEB430F09E0FE
S11313A041EA030C50EA4C0C52EA0C0C03D28B4277
S11313B008BF8242704714BF9942904270470000B0
S11313C070B504460D466068C0F30A5040F2FF72DF
S11313D0904207D16068000304BF2068002817D03A
S11313E0022070BD20B92046FFF799FF012867DA73
S11313F0012D0FDB40F2FF71091A8D420AD3606898
S1131400002847BF00202F4900202F49C4E90001CC
S1131410012070BD4142A942616806DA6FF31E5192
S1131420401941EA0050606041E001F000410122AE
S1131430636862F31F536360401E451905F135006C
S1131440352803D361600020206070BD002215F1AF
S11314501F0F04DA20352268236000206060684290
S113146013D0521E9241D243C0F1200325689D40FF
S113147055EAD2722568C540666806FA03F32B4321
S11314802360636823FA00F060606068084360606A
S1131490B2F1004F03D80DD12078C0070AD52068D7
S11314A0401C2060206828B96068401C60604FF0D0
S11314B0FF3070BD6068884204BF20680028F6D100
S11314C0002070BD0000F0FF0000F07FF446400DE6
S11314D040EAC120490006D200F014F8004248BF97
S11314E06FF00040604700F00DF84FF00041884273
S11314F08CBF084640426047400D40EAC120490085
S113150080F00D8040F00040490DA1F58061491C38
S113151005D4D1F11F0154BFC840C01770474FF024
S113152000007047010040F10980F446404200F099
S113153005F851F000416047010000BF09D0B0FA3E
S113154080F18840C91CC1F58461090501EBD021F3
S11315504005704770B44FF0004591EA030F44BF53
S11315606B4000F0EDBA00BF841A71EB030604D29D
S11315706E40001BB141121973414FF4001C1CEB67
S1131580410F34BF7CEB430684E00C0DA4EB1356EF
S1131590362E7DDC012E43DC45EAC32343EA525355
S11315A012BFD20292025B08240545EAC12141EA36
S11315B05051D2EBC020994125D407D1B0FA80F61E
S11315C010FA06F164D00020203608E0B1FA81F662
S11315D0B140C6F1200220FA02F21143B0404FEAB2
S11315E0F474B4EB465434F001064FEA74040AD898
S11315F0D6F50016760D04F00044F04061FA06F2C8
S11316005040F1404840C00A40EA415021F00041B6
S113161028BF5FEA500550F1000044EBD12137E0C8
S113162045EAC323DB0A45EAC121C90AB6F120050C
S11316300EDD42EA0242120CC5F1200603FA06F658
S1131640EB4042EA06056D42984161F100010DE06C
S113165062FA06F5F240554063FA06FC82EA0C028F
S1131660F3405A406D42904161EB030111F4801F35
S113167005D1641E620502D06D004041494121F448
S11316808011430875F1004350F1000041EB04510F
S113169070BC70471CEB410F15D223F0004352EA93
S11316A043060BD04FEA4C0CBCEB410F04D80C0D95
S11316B0661E342EB7DDEBE7801A994150EA4106E5
S11316C008BF0021E4E708BF1CEB430F28BF6FF0FD
S11316D00001DDE7B0B581EA030C0CF0004C40F2E8
S11316E0FF7515EA11541DBF15EA1357AC42AF42FA
S11316F039E0E41923EA455343F48013C90241F065
S1131700004141EA505EC7021100A7FB0202002813
S11317104FF00000EEFB01204FF00001E3FB072136
S113172018BF42F00102401800214941E3FB0E01B9
S1131730A4F580640F0302D252004041494154F1A0
S113174001046CDD470872F1004250F1000051EBD6
S11317500451A1F580115CBF41EA0C01B0BD4CEA13
S113176005510020B0BD05EA1357AC4214BFAF4287
S113177041E050EA410E1CBF52EA430E02E06146CA
S11317800020B0BD24423C441BD15FEA070EF6D0D2
S1131790090302BF01460020AEF1140EB1FA81F72D
S11317A0AEEB070401FA07FE0C37C7F1200100FA7B
S11317B007F7C8404EEA000E23EA455343F480136A
S11317C0A2E733F00043B3FA83F704BFB2FA82FE10
S11317D077440B3FE41BB7F1200E2FBF02FA0EF340
S11317E0BB40C7F1200E22FA0EFE38BF43EA0E03B7
S11317F0BA40641C82E750EA410E14BF52EA430E19
S11318006FF000014FF4001717EB430F8ABF19461E
S113181017EB410FB5E74CEA05510020B0BDD4F1F8
S11318200104B4F120070FDAC4F12007520828BFDD
S113183042F0010210FA07F501FA07F7E1BF2A4363
S1131840E0403843E1400FE0352C98DCC7F1200438
S113185052EA400220FA07F218BF42F0010231FABC
S113186007F0A1400A43002172F1004250F1000048
S113187051EB0C01B0BD0000F0B540F2FF7581EAF8
S1131880030C0CF0004C15EA11541DBF15EA135754
S1131890AC42AF42E5E0BC41C1F31301C3F313030F
S11318A0801A994143F4801304D2641E40004941D4
S11318B080185941C90241EA5051B1FBF3F603FBC8
S11318C01611A2FB0675D7EBC020A94102D2761EE1
S11318D080185941C90241EA5051B1FBF3FE03FBA0
S11318E01E11A2FB0E75D7EBC020A94103D2AEF1A5
S11318F0010E80185941890241EA9051760546EA61
S11319008E2EB1FBF3F603FB1611A2FB0675D7EB83
S11319108020A94102D2761E80185941C90241EAA9
S113192050514EEA060EB1FBF3F603FB1611A2FB6F
S11319300675D7EBC020A94102D2761E8018594102
S1131940C90241EA5051B1FBF3F703FB1711A2FBA3
S11319500735D3EBC020A94167F100070CBF004253
S113196047F0010766F3D5274FEA1E31B80814F58E
S1131970806412DDBD0775F1004250EB0E5051EB4F
S1131980045111F5801F5CBF41EA0C01F0BD4CF01D
S11319907F6141F0E0410020F0BDBD076D0840EAE1
S11319A00E5041F48011D4F10104B4F120060ADA96
S11319B0C4F120060200E04001FA06F3E1401843B6
S11319C0B24015430EE0342C13DCC6F1200445EA82
S11319D040056D0820FA06F2154321FA06F0A140ED
S11319E00D43002175F1004250F1000051EB0C0150
S11319F0F0BD00205FEA0C01F0BDCFB992185B4145
S1131A00B3FA83F704BFB2FA82F6BF190B3FB7F1FA
S1131A1020062FBF02FA06F3BB40C7F1200622FAC4
S1131A2006F638BF3343BA401CB1E419641E33E7E9
S1131A307F4231F00041B1FA81F404BFB0FA80F67C
S1131A40A4190B3CB4F120062FBF00FA06F1A14003
S1131A50C4F1200620FA06F638BF3143A0403C1BEF
S1131A601AE7AC421ABF05EA1357AF4212E050EA34
S1131A7041061CBF52EA4306BFE750EA410730461D
S1131A8061461CBF41EA0551F0BD52EA430C08BF50
S1131A90C143F0BD00204FF4001616EB410F98BF70
S1131AA016EB430F08BF16EB410F24BFC14305E0FB
S1131AB016EB430F0CBF61464CEA0551F0BD000024
S1131AC080B5134800F0A6F80FF2480101604160A8
S1131AD08160C1600161416181610FF23C02426237
S1131AE08162C162016341630FF2300282630FF2CB
S1131AF03402C2630164416401BD10B5044800F0BE
S1131B0089F80446206808B9FFF7DAFF204610BDBB
S1131B1088EAFF1F000000002E00000066616C735D
S1131B2065000000747275650000000091FBF2F31B
S1131B3003FB1211C0E90031704700007047000038
S1131B40841A71EB030603D2001BB14112197341CD
S1131B504FF4001C1CEB410F34BF7CEB430443E007
S1131B600C0DA4EB1356352E50DC45EAC323DB0AD7
S1131B7045EAC121C912B6F120050DDD63FA05F667
S1131B80EB4086EA0305124218BF45F00105C01870
S1131B9051F100010CD213E062FA06F5F24055400F
S1131BA0F3415A40B340F3405A408018594107D397
S1131BB049085FEA30005FEA350528BF45F00105B2
S1131BC001F58011420875F1004250F1000041EB2B
S1131BD0045170BC4FF4001C1CEB410F38BF70471C
S1131BE00020090D090570471CEB410F10D252EA81
S1131BF043060BD0BCEB410F05D80C0DAB43661E5E
S1131C00342EB5DD02E0AB438018594170BC7047F7
S1131C1070BC704770470000DFF800F0E5E4FF1F78
S1131C2000F082F900F09CF900F0E8F900F05AFAAB
S1131C3000F003F800F07EFBFEE780B58C480068F6
S1131C40C0F302118B4800F067FC89480068000962
S1131C5010F00700002806D002280CD007D304286F
S1131C6011D00CD313E0844800F056FC12E08348F2
S1131C7000F052FC0EE0824800F04EFC0AE081487D
S1131C8000F04AFC06E0804800F046FC02E07F4891
S1131C9000F042FC7648006810F00F017C4800F028
S1131CA03BFC7348006810F00F00022812D004288F
S1131CB014D0052816D0062818D007281AD00828CA
S1131CC01CD009281ED00A2820D00C2822D00E2887
S1131CD024D027E06F4800F01FFC26E06E4800F097
S1131CE01BFC22E06D4800F017FC1EE06C4800F07D
S1131CF013FC1AE06B4800F00FFC16E06A4800F091
S1131D000BFC12E0694800F007FC0EE0684800F0A4
S1131D1003FC0AE0674800F0FFFB06E0664800F0B9
S1131D20FBFB02E0654800F0F7FB51480068C0F394
S1131D300331634800F0F0FB4D480068000B10F0DD
S1131D400F00002803D0022809D004D30BE05D481B
S1131D5000F0E2FB0AE05C4800F0DEFB06E05B48D2
S1131D6000F0DAFB02E05A4800F0D6FB00F035F848
S1131D7058480068C0F30331574800F0CDFB55487C
S1131D800068000B10F00F0001280AD003280CD0C3
S1131D9005280ED0072810D0082812D0092814D0FE
S1131DA017E04E4800F0B8FB16E04D4800F0B4FBD5
S1131DB012E04C4800F0B0FB0EE04B4800F0ACFBE6
S1131DC00AE04A4800F0A8FB06E0494800F0A4FBFA
S1131DD002E0484800F0A0FB01BD80B546487021F0
S1131DE001704648032101704548002101704548AF
S1131DF00021017044480021017044480121017010
S1131E00FFF70AFF42480078C0B2009041480378C7
S1131E10DBB241480278D2B240480178C9B24048A6
S1131E2000F07AFB35480321017035480021017028
S1131E3034480021017034480421017033480121E1
S1131E400170FFF7E9FE32480078C0B200903148D3
S1131E500378DBB230480278D2B230480178C9B294
S1131E60304800F059FB24487021017001BD000086
S1131E7024800440EC390000243A00002C3A00008D
S1131E80343A00003C3A0000443A0000AC3500000B
S1131E90FC3900004C3A0000543A00005C3A00005F
S1131EA0643A00006C3A0000743A00007C3A000086
S1131EB0843A00008C3A0000943A0000D4350000C3
S1131EC0D0380000E4380000F83800000C39000075
S1131ED0483400000070044010380000203900002D
S1131EE034390000483900005C39000070390000C2
S1131EF084390000643700000000024007000240FB
S1131F000600024005000240040002400F000240A7
S1131F1008000240090002400A0002400B0002408F
S1131F20FC3500000C37000080B500F009F80A48C1
S1131F3000884FF6FE7108400749088001BD000083
S1131F4072B606484CF22051018004484DF628111F
S1131F50018062B670470000002005400E20054055
S1131F6080B51C481C4988420AD0002006E0194963
S1131F70194A52F8202041F82020401CFF28F6D9A5
S1131F80144800F0DBFA1549154A1648801A03E094
S1131F9013780B70521C491C0300581E002BF7D1F8
S1131FA011491248401A02E000220A70491C02003A
S1131FB0501E002AF8D10E490E4A0F48801A03E039
S1131FC013780B70521C491C0300581E002BF7D1C8
S1131FD001BD00BF00E0FF1F0000000000E4FF1F80
S1131FE0382C0000202D0000F8E4FF1F87E6FF1FB7
S1131FF0E4E4FF1F98390000AC39000000B583B059
S11320002D48006850F478502B4908602B4800781C
S1132010000705D52948007850F0080027490870C2
S113202027485FF48031016024480078000705D513
S11320302248007850F008002049087001200190DF
S1132040192000900423012200211E4800F0D2FA36
S11320501D4908601C480068FF2800DCFEE71A4898
S113206000684FF47A7190FBF1F018490860174842
S1132070006813490968090F491CB0FBF1F01449C1
S11320800860124800680E490968C1F30361491CDD
S1132090B0FBF1F00F4908600F484FF44071016044
S11320A00E484FF4407101605FF4E1320848016862
S11320B00B4800F00FFC07BD3880044002D00740F5
S11320C04480044000127A0048E5FF1F4CE5FF1FDE
S11320D050E5FF1F54E5FF1F18C004401CC0044016
S11320E000A0064080B5DFF8D8010078800603D54B
S11320F0DFF8D00100F010FADFF8C4010078C00660
S113210003D5DFF8C40100F007FADFF8B401007862
S1132110000703D5DFF8B40100F0FEF9DFF8A001F1
S11321200078400703D5DFF8A80100F0F5F9DFF8DF
S113213090010078800703D5DFF8980100F0ECF9EE
S1132140DFF87C010078C00703D5DFF88C0100F0CC
S1132150E3F9DFF888010078000603D5DFF8800191
S113216000F0DAF9DFF874010078400603D5DFF8EF
S1132170740100F0D1F9DFF864010078800603D51A
S1132180DFF8640100F0C8F9DFF850010078400777
S113219003D5DFF8580100F0BFF9DFF840010078FB
S11321A0800703D5DFF8480100F0B6F9DFF82C0109
S11321B00078C0076CD5DFF83C0100F0ADF9DFF81A
S11321C038010178C9B2DFF8340100F0A5F9DFF86D
S11321D030010178C9B2DFF82C0100F09DF9DFF875
S11321E028010178C9B2494800F096F948480178B5
S11321F0C9B2484800F090F941480078C0B210F0E4
S11322000700032802D1444800F086F93C480078CE
S1132210C0B210F00700042807D13B48007807211A
S1132220084202D13D4800F077F935480078C0B241
S113223010F00700042809D133480078C0B210F028
S11322400700012802D1364800F066F92C480078CE
S1132250C0B210F00700042809D12B480078C0B29E
S113226010F00700022802D12E4800F055F9244846
S11322700078C0B210F00700042809D12248007881
S1132280C0B210F00700032802D1274800F044F937
S113229012480078C0B2002810D109480078C0B2B2
S11322A000280BD10D480178C9B2204800F034F958
S11322B003480178C9B21E4800F02EF901BD0000A0
S11322C001F007404C360000AC390000BC39000076
S11322D0CC3900002C3700000C3A000000F0074015
S11322E0DC390000A838000080370000983700006F
S11322F048370000F834000000E00740AC36000026
S113230001E00740CC36000002E0074070360000D0
S113231003E00740EC360000BC380000B037000092
S1132320C8370000E0370000F83700005C350000D3
S11323308435000082B04FF63C50ADF80400002014
S1132340ADF802000024002500260020ADF80000AE
S11323505FF00008002772B600F022FB002000F0B6
S11323604BFB002301220821022000F017FC00236C
S113237001220921022000F011FC00F022FB62B6C8
S11323805B4800F0C9F808E05A4800218171594AB5
S11323900621594800F0F3FA01275848007801282B
S11323A02ED157480078002804D0022801D002D248
S11323B001E000E0FFE752484078002811D050487F
S11323C04078C0F34002D2B20821022000F01FFC82
S11323D04B484078C0F34002D2B20921022000F0F9
S11323E016FC484A48480078811E89B2424800F0E9
S11323F0C6FA4548002101704048002101700127B8
S1132400FFB2012F4BD100F07FFB012101A800F0A6
S113241023FB5FF000082BE001210DF1020000F026
S11324201BFB00A800F039FB012808D1BDF800000F
S113243014FA80F401210DF1020000F00DFB00A854
S113244000F02BFB012808D1BDF8000015FA80F537
S113245001210DF1020000F0FFFA00A800F01DFBBD
S1132460012803D1BDF8000016FA80F618F101081E
S11324701FFA88F8B8F1050FCED300F03DFB002712
S11324800520B4FBF0F01B4908800520B5FBF0F0F3
S1132490184948800520B6FBF0F016498880FFB241
S11324A0002F7FF47AAF1948007801287FF46CAFCD
S11324B010488079242806D10E4A1548017889B23B
S11324C00D4800F05CFA0B48002181711148007836
S11324D008494018002100F8011C0C480021017033
S11324E00B48062101700B480621017054E700BF18
S11324F0C034000008E5FF1F00A0064085E6FF1F6A
S1132500F8E4FF1FFAE4FF1F84E6FF1F86E6FF1FBF
S113251001E4FF1F00E4FF1F0EB400B582B003A95D
S1132520009100AB02460121034878440A30FDF7CC
S113253083FF06BC5DF810FB4D13000025490860BD
S1132540704710B504003E2C02DB2348FFF7E4FF7C
S1132550202094FBF0F0002803D0022827D013D3C6
S113256037E00120202194FBF1F202FB114290405C
S11325701A4908600120202194FBF1F202FB114268
S113258090401749086024E00120202194FBF1F2D7
S113259002FB11429040134908600120202194FB62
S11325A0F1F202FB114290400F49086011E0012052
S11325B0202194FBF1F202FB114290400B49086088
S11325C00120202194FBF1F202FB114290400849C2
S11325D0086010BD08ED00E08834000080E200E0EF
S11325E000E100E084E200E004E100E088E200E0D1
S11325F008E100E070B4DFF8B8422478C4F3810441
S1132600E4B2002C09D1DFF8A8422478E40604D50A
S1132610DFF89C422478A40601D5012034E1DFF8D8
S11326206C42A04201DB21202EE1D2B2002A08D064
S1132630DFF85C42041BDFF85C52AC4201D3222079
S113264022E1C9B2012900D301215C1EE4B2192C94
S113265001D3412018E19DF90C40B4F11805EDB205
S1132660202D01D342200FE15BB290FBF3F5DFF89C
S11326702862AD1BDFF82462B54201D3432003E195
S11326805BB290FBF3F564B26543DFF81462AD1BF3
S1132690DFF81062B54201D34520F5E0DFF80852B7
S11326A02D7815F0C305DFF80462B04208DAC9B228
S11326B0C900D2B29600314351F010010D4307E036
S11326C0C9B2C900D2B29600314351F020010D4382
S11326D0DFF8D4110D70DFF8DC11884201DA002133
S11326E018E0DFF8D411884201DA012112E0DFF8A2
S11326F0CC11884201DA02210CE0DFF8C4118842CF
S113270001DA032106E0DFF8BC11884201DA042172
S113271000E00521DFF8B0512D7815F00305C9005C
S113272011F0380151F080010D00DFF89C110D709B
S1132730D2B2002A13D0002100E0491C42F21072E8
S113274009B2914204DADFF8682112789207F4D5CD
S1132750DFF85C110978890701D4232094E0002173
S113276000E0491C09B2B1F5FA6F07DADFF840213D
S11327701278C2F38102D2B2022AF2D1DFF8301108
S11327800978C1F38101C9B2022901D01A207BE082
S1132790DFF83811097851F02001DFF83021117089
S11327A0DFF82C110D7815F0E005591E11F01F010A
S11327B00D43DFF81C110D70DFF810110D7815F0C2
S11327C0E005B4F1180111F01F0151F040010D436F
S11327D0DFF8F8100D70002100E0491C09B2B1F5D2
S11327E0FA6F04DADFF8C82012789206F5D5DFF81C
S11327F0C0100978890601D4162045E0002100E0C4
S1132800491C09B2B1F5FA6F04DADFF8A420127892
S11328105206F5D5DFF898100978490601D444200A
S113282032E0DFF8AC10097811F01F014A1CDFF820
S11328309C10097811F01F0111F11803DFF88810BA
S1132840097811F03F01DFF880402170002100E099
S1132850491C09B2B1F5FA6F07DADFF8544024785D
S1132860C4F38104E4B2032CF2D1DFF844100978F4
S1132870C1F38101C9B2032901D01B2004E0D2B203
S113288090FBF2F0DBB2584370BC704781F0FA025F
S1132890C0C62D004181BA0180841E0081841E00BF
S11328A0006CDC020175190301400640C1C62D000D
S11328B006400640D1121300A1252600414B4C00CE
S11328C081969800012D31010040064005400640E4
S11328D00440064030B4404B984206D13F4B1B683D
S11328E053F480633D4C236012E03D4B984206D183
S11328F03A4B1B6853F40063384C236008E0394BAF
S1132900984205D1354B1B6853F48053334C2360F4
S1132910C37813F0F303C370002383704FF47A7306
S113292003FB01F3140193FBF4F3047814F0E004C3
S11329309BB21D0A15F01F052C43047043704FF41D
S1132940FA446143120191FBF2F19BB2B1EB4311E2
S1132950827A12F0E00411F01F0121438172C178E0
S113296051F00C01C17030BC704701798906FCD567
S1132970C079704702791206FCD5C1717047F8B569
S113298004000D001600002705E02000FFF7EDFF0E
S1132990BFB2B8557F1CBFB2ADB2AF42F5D3F1BDE3
S11329A080B512484FF44071016011484FF44071F2
S11329B001605FF4E1320C4801680948FFF78AFFBF
S11329C001BD80B50B48007850F02000094908701B
S11329D01020FFF7B6FD01BD00A00640348004407E
S11329E000B0064000C0064050E5FF1F00D0044080
S11329F004D0044003A0064010B5040000F065F8BC
S1132A003349096851F48051314A116031494FF416
S1132A1010720A6030494FF410720A602F494FF463
S1132A2010720A602E494FF400720A602D49016049
S1132A30E4B2002C06D1016851F0004101602A493A
S1132A40C16002E05FF0F041C1602849C1620168E1
S1132A5049084900016010BD70B504000D0000264E
S1132A6000F033F82149C162016851F4406101600A
S1132A7000210E0005E034F8161051F48031416352
S1132A80761CAE4208D2691E8E42F4D134F8161078
S1132A90174A11434163F3E770BD10B5040000F019
S1132AA014F8C16A890308D5816BC9B22180C16A4F
S1132AB051F40031C162012006E00C49C162016891
S1132AC051F440610160002010BD0A4870470000C5
S1132AD03C80044010B0044014B0044018B00440DA
S1132AE01CB00440010C3F0040000CF800000A1A1E
S1132AF00000010800C0024080B5FFF7E6FF01684E
S1132B0051F00101016001BD80B5FFF7DEFF0168EE
S1132B1049084900016001BDC0B2002806D002285E
S1132B2008D005D3042809D006D309E0114870471A
S1132B301148FCE71148FAE71148F8E71148F6E7AD
S1132B400020F4E7C0B2002806D0022808D005D33C
S1132B50042809D006D309E00B4870470B48FCE76A
S1132B600B48FAE70B48F8E70B48F6E70020F4E7D0
S1132B70000000000090044000A0044000B00440A5
S1132B8000C0044000D0044000F00F4040F00F406B
S1132B9080F00F40C0F00F4000F10F402DE9F041EC
S1132BA007000C0090461D003800C0B2FFF7CAFFB2
S1132BB006003800C0B2FFF7AFFF002801D10120A2
S1132BC023E0E4B24FF4807140F824105FFA88F8EF
S1132BD0B8F1010F13D170690121A140084370615C
S1132BE0EDB2012D05D130680121A14008433060C8
S1132BF00AE030680121A1408843306004E0706934
S1132C000121A140884370610020BDE8F08138B5FE
S1132C100C001500C0B2FFF795FFEDB2002D05D1F1
S1132C2001680122A2409143016004E0016801228D
S1132C30A2401143016031BD0606000001040000FA
S1132C4041E4FF1F42E4FF1F41E4FF1F41E4FF1F73
S1132C5041E4FF1F41E4FF1F28E4FF1F00000000C0
S1132C600000000000000000000000000000000060
S1132C700000000000000000000000000204010148
S1132C80A8E5FF1FF8E5FF1FA8E5FF1FA8E5FF1F44
S1132C90A8E5FF1F81E4FF1F68E4FF1F0000000098
S1132CA00000000000000000000000000000000020
S1132CB00000000000000000000000000208020202
S1132CC058E5FF1FA8E5FF1F58E5FF1F58E5FF1F44
S1132CD058E5FF1FC1E4FF1FA8E4FF1F0000000028
S1132CE000000000000000000000000000000000E0
S1132CF000000000000000000000000004E4FF1FCA
S1132D0044E4FF1F84E4FF1F0000000000000000F3
S1132D1000000000000000000000000000000000AF
S1132D2010B40021354A134653F8084B844207D1A6
S1132D30002342F8313002EBC1014B6010BC7047F4
S1132D40491C53F8084B84421EBF491C53F8084BD6
S1132D5084421EBF491C53F8084B8442E8D0491CE6
S1132D601029E1D310BC704770B40023234C2546CE
S1132D7055F8086B8E4209D1014604EBC303012ABE
S1132D8004BF5A685118596070BC70475B1C55F8F1
S1132D90086B8E421EBF5B1C55F8086B8E421EBF2B
S1132DA05B1C55F8086B8E42E6D05B1C102BDFD3FE
S1132DB070BC704710B40021104A134653F8084BF6
S1132DC0844204D102EBC100406810BC7047491C26
S1132DD053F8084B84421EBF491C53F8084B8442E5
S1132DE01EBF491C53F8084B8442EBD0491C1029E0
S1132DF0E4D3002010BC70470000000004E6FF1F6D
S1132E002DE9F04104460D4616461F46207803215D
S1132E10084258D0204600F09AF8002853D115B142
S1132E20D5E900018619012F3DD12088C00416D5AB
S1132E3004F13D02A169204600F0A6F88046626ACA
S1132E4002B92269E168204600F09EF8A6EB080169
S1132E500E1AA26AE168204600F096F8361A46BBBC
S1132E6020884FF4405108420ED06068E060206131
S1132E70A06260616068E06204F23D00A06104F158
S1132E802400E061002060622DB104F13000D5E936
S1132E900223C0E9002320884CF6FF61084020800B
S1132EA00020BDE8F081022F03D04FB916F1010FC5
S1132EB009D03A46314694F9030000F06BF806460F
S1132EC016F1010FCCD100F08BF8232101604FF0F3
S1132ED0FF30BDE8F081000038B500F087F8044603
S1132EE0208880042ED5656809E04A1B294600F035
S1132EF07FF810F1010F18BF00280CD0451994F980
S1132F000300E1688D42F0D30022002100F070F844
S1132F1010F1010F0DD16068E0606061E06220880B
S1132F2040F400702080204600F061F84FF0FF303C
S1132F3032BD6568E5606561E56220884DF6FF7124
S1132F4008402080204600F052F8002032BDF8B539
S1132F50A0B9C046C04600240A4D08264FF0FF37EA
S1132F60286820B1FFF7B8FF002848BF3C462D1D54
S1132F70761EF5D1C046C0462046F2BDBDE8F240FB
S1132F80AAE70000C4E4FF1F914201D2501A70471F
S1132F900020704730B583B004000D00012A02D12F
S1132FA0FFF708FF07E0022A07D1009400200190F0
S1132FB069460C20ABBE2D1801E0002A0CD1009408
S1132FC0019569460A20ABBE002805D100222100E4
S1132FD02800FFF7C9FE01E00020C04303B030BD64
S1132FE00148FEF717BE0000D8EAFF1F704770477C
S1132FF070B50C0015000026002C01D1002017E04C
S1133000012812D0022810D05FF0FF3010E02078A1
S11330100A2803D10D210748FFF7ACFC21780548A5
S1133020FFF7A8FC641C761C6D1E002DEFD1300048
S113303070BD00BF00A0064010B50446E068616999
S1133040884252D3218849F202020A40022A08D057
S113305008044CBF4FF400704FF4844008432080B0
S11330603CE001F4C041B1F5C04F06D1A1688842EB
S113307003D32046FFF76BFF80BB20884FF44061E9
S1133080084202BF606804F13D01884217D14FF441
S1133090007000F02DF8606030B904F23D0060600B
S11330A0E060401CA0600AE0218841F040012180DA
S11330B0E06000F50071A160A0626068E062606891
S11330C02061A0686061207840070AD502220021AF
S11330D0204600F065F810F1010F02D14FF0FF30E7
S11330E010BD208840F4C0402080002010BD0000A6
S11330F070B5054605F10F00C408E400C046C0469B
S1133100A54232D2082C04D2082402E0083000F090
S113311059F82248026811000CD1011D0A6802B353
S11331201368A34238BF111DF8D310E01D68A542EF
S11331300DD2191D0B68002BF8D11268011D00E097
S1133140191D0B6893420CD01D68A542F8D361B1D8
S11331500D682A68A2F10803A3420AD26A680A60C9
S11331600FE000F06FF80028D0D1C046C046002020
S113317070BD63190B606E685E60121B0B681A6089
S11331802C60096800291DBF4A68002A091D002116
S11331900160C046C04605F1080070BDF8E5FF1F98
S11331A070B50C461546FFF721FF06462B4622460E
S11331B00021FFF725FE04463046FFF718FF20469E
S11331C070BD000000B9704710B5A0F10804206874
S11331D0082833D310F0070F30D1C046C046184832
S11331E0416809B18C4203D26160446017E019461A
S11331F04B680BB1A342FAD30A6853189C421BD301
S1133200A34204D123689A180A600C4607E04A686E
S11332101AB123681B199A420ED362604C6061682C
S113322051B1226813198B4206D100230360086848
S11332308018206048686060C046C04610BD000029
S1133240F8E5FF1F0649086808B1002070470548E3
S113325008600549C908C900091A0160704700BF20
S113326000E6FF1F88E6FF1F88EAFF1F01780906B2
S113327027D500211C4A1368834204D1002342F855
S11332802130FFF79FBF0121536883421EBF0221F3
S113329093688342F2D00321D36883421EBF042182
S11332A013698342EAD00521536983421EBF062174
S11332B0936983421EBF0721D3698342DED0FFF79F
S11332C081BF002101804FF0FF31C17000F23D0148
S11332D04160C160016181624161C162816100F14B
S11332E02401C16170470000C4E4FF1F38B50446DF
S11332F020780321084202D06056002809D5C04630
S1133300C0462046FFF7B2FFC046C0464FF0FF3527
S113331027E02046FFF71BFE0546C046C04620783E
S1133320400644BF6068FFF74DFF0020606094F9D9
S11333300300022804D900F016F808B14FF0FF3555
S1133340A06B48B100F01CF808B14FF0FF35A06B3A
S1133350FFF738FF0020A0632046FFF787FFC04631
S1133360C046284632BD10B582B0020000926946BC
S11333700220ABBE04001000FFF7D2FC200016BDF3
S113338000B583B00090FDF7CFFE019069460E2092
S1133390ABBE03B000BD000010B5144C206808B1EA
S11333A0FFF7A4FF606808B1FFF7A0FFA06808B1A9
S11333B0FFF79CFFE06808B1FFF798FF206908B1A8
S11333C0FFF794FF606908B1FFF790FFA06908B1A7
S11333D0FFF78CFFE06908B1FFF788FF00220021A6
S11333E04FF0FF30BDE81040FFF702BEC4E4FF1FFA
S11333F038B505460846FFF7F9FD0446E0686169FB
S1133400884204D32046FFF717FE002810D4E06852
S1133410401CE06000F8015D2088010504D44005EB
S11334200CD5EDB20A2D09D12046FFF790FD28B145
S11334302046FFF7DCFD4FF0FF3032BD2046FFF79A
S1133440D6FDE8B232BD00000A546869732076657F
S11334507273696F6E206F6620736F667477617222
S11334606520646F65736E2774207265636F676E81
S1133470697A6520746865207265766973696F6E10
S113348020636F64652E00000A4552522120496E64
S113349076616C6964204952512076616C756520AF
S11334A070617373656420746F20656E61626C650E
S11334B0206972712066756E6374696F6E210A00EB
S11334C00A52756E6E696E67207468652068656C53
S11334D06C6F5F776F726C642070726F6A6563746F
S11334E020696E204B313035304D487A2066616D4D
S11334F0696C790A000000005B6F75745352535D68
S113350057616B65757020626974207365742066F9
S1133510726F6D206C6F7720706F776572206D6F9E
S1133520646520657869740A000000000A2A2A2A62
S11335302A64656661756C745F69737220656E7464
S113354065726564206F6E20766563746F722025E2
S1133550642A2A2A2A2A0D0A0A0000005B6F75745D
S11335605352535D52434D5F53525330206973207D
S11335705A45524F2020203D202523303258200D1B
S11335800A0000005B6F75745352535D52434D5FE4
S113359053525331206973205A45524F2020203D05
S11335A0202523303258200D0A0000000A556E727F
S11335B065636F676E697A6564204B696E657469CB
S11335C0732066616D696C79206465766963652E24
S11335D00A0000000A556E7265636F676E697A654A
S11335E064204B696E65746973207061636B6167F5
S11335F06520636F6465202E0A000000466C6173C9
S11336006820706172616D6574657220766572738D
S1133610696F6E2025642E25642E25642E25640A88
S11336200000000010B5074979441831064C7C4469
S1133630163404E0081D0A68511888470146A1425F
S1133640F8D110BD500000006400000053746F7086
S1133650204D6F64652041636B6E6F776C656467A2
S113366065204572726F722052657365740A00009A
S11336705B6F75745352535D534D435F564C4C53BB
S11336804354524C2020203D202523303258200D15
S11336900A0000005BDAFFFF90010000F8E4FF1F5E
S11336A004000000D8EAFF1F000000005B6F75747F
S11336B05352535D534D435F504D50524F5420204D
S11336C0203D202523303258200D0A005B6F75748D
S11336D05352535D534D435F504D4354524C20203D
S11336E0203D202523303258200D0A005B6F75746D
S11336F05352535D534D435F504D53544154202016
S1133700203D202523303258200D0A00466C617379
S1133710682076657273696F6E2049442025642E93
S113372025642E25642E25640A000000436F72650B
S1133730204C6F636B7570204576656E74205265FE
S11337407365740A000000004C6F772D766F6C74FB
S1133750616765204465746563742052657365749C
S11337600A00000020455252212120556E646566EE
S1133770696E65642052414D2073697A650A0A00B6
S11337805761746368646F6728434F5029205265FA
S11337907365740A000000004C6F7373206F662019
S11337A0436C6F636B2052657365740A00000000FC
S11337B05B6F75745352535D20564C4C53302065E7
S11337C0786974200A0000005B6F75745352535D6E
S11337D020564C4C53312065786974200A0000004F
S11337E05B6F75745352535D20564C4C53322065B5
S11337F0786974200A0000005B6F75745352535D3E
S113380020564C4C53332065786974200A0000001C
S11338100A2052414D5F53495A455F4944203D2097
S113382030782578200A000080B503480178C9B2B1
S11338300248FEF771FE01BD04ED00E02C350000E6
S113384000F009F8002801D0FFF7ECFE0020FEF795
S113385071FD00F002F80120704700F001B800008B
S11338600746FFF799FD384600F002F8FBE7000031
S1133870C046C046024A11001820ABBEFBE700BF99
S11338802600020038B504460D46284600F006F826
S1133890A84218BF0024204632BD00000149FFF7AA
S11338A0A7BD00BF44E4FF1F45787465726E616C68
S11338B02050696E2052657365740A005B6F7574DD
S11338C05352535D204C4C532065786974200A0090
S11338D00A205245565F4944203D203078257820FF
S11338E00A00000053696C69636F6E20726576206C
S11338F0312E300A0000000053696C69636F6E203A
S113390072657620312E310A0000000053696C691B
S1133910636F6E2072657620312E320A000000003B
S113392038206B4279746573206F662052414D0ACA
S11339300A0000003136206B4279746573206F668B
S11339402052414D0A0A00003332206B42797465DB
S113395073206F662052414D0A0A00003634206BF2
S11339604279746573206F662052414D0A0A000043
S11339703936206B4279746573206F662052414D4D
S11339800A0A0000313238206B4279746573206F63
S1133990662052414D0A0A00034880210170024802
S11339A000780006FBD5704700000240457A506F4E
S11339B072742052657365740A0000004D444D2DE5
S11339C041502052657365740A000000536F667499
S11339D0776172652052657365740A00506F77656C
S11339E0722D6F6E2052657365740A000A20464179
S11339F04D5F4944203D2030782578000A20504905
S1133A004E5F4944203D2030782578004A54414790
S1133A102052657365740A00C046C046C046C0465D
S1133A20FFF70EFF0A4B31302D0000000A4B3230F5
S1133A302D0000000A4B33302D0000000A4B3430B7
S1133A402D0000000A4B36302D000000333270691F
S1133A506E0A0000343870696E0A000036347069EA
S1133A606E0A0000383070696E0A000038317069DF
S1133A706E0A000031303070696E0A0031303470E3
S1133A80696E0A0031343470696E0A003139367057
S1133A90696E0A0032353670696E0A000000000053
S1133AA00000000000000000000000000000000012
S1133AB00000000000000000FFFFFFFFFFFFFFFF0A
S1133AC000000000000000000000000000000000F2
S1133AD000000000000000000000000000000000E2
S10F3AE000000000FFFFFFFFFFFF0000DC
S9033A19A9
