S0030000FC
S3FD00000000E0FCFF1F0D0B0000B1040000B1040000B1040000B1040000B1040000B1040000B1040000B1040000B1040000B1040000B1040000B1040000B1040000B1040000B1040000B1040000B1040000B1040000B1040000B1040000B1040000B1040000B1040000B1040000B1040000B1040000B1040000B1040000B1040000B1040000B1040000B1040000B1040000B1040000B1040000B1040000B1040000B1040000B1040000B1040000B1040000B1040000B1040000B1040000B1040000B1040000B1040000B1040000B10400009123000069180000B1040000B1040000B1040000B1040000B1040000BD240000B1040000B1040000B10400008D
S3FD000000F8FFFFFFFFFFFFFFFFFFFFFFFFFFFFFFFFFFFFFFFFFFFFFFFFFFFFFFFFFFFFFFFFFFFFFFFFFFFFFFFFFFFFFFFFFFFFFFFFFFFFFFFFFFFFFFFFFFFFFFFFFFFFFFFFFFFFFFFFFFFFFFFFFFFFFFFFFFFFFFFFFFFFFFFFFFFFFFFFFFFFFFFFFFFFFFFFFFFFFFFFFFFFFFFFFFFFFFFFFFFFFFFFFFFFFFFFFFFFFFFFFFFFFFFFFFFFFFFFFFFFFFFFFFFFFFFFFFFFFFFFFFFFFFFFFFFFFFFFFFFFFFFFFFFFFFFFFFFFFFFFFFFFFFFFFFFFFFFFFFFFFFFFFFFFFFFFFFFFFFFFFFFFFFFFFFFFFFFFFFFFFFFFFFFFFFFFFFFFFFFFFFFFFFFFFFFFFFFFFFFFFFFFFFFFFFFFFFFFFFFFFFFFFFFFFFFFFFFFFFFFFFFFFFFFFFFFFFFFFFFFFFFFFFFFFFFFFFFF02
S3FD000001F0FFFFFFFFFFFFFFFFFFFFFFFFFFFFFFFFFFFFFFFFFFFFFFFFFFFFFFFFFFFFFFFFFFFFFFFFFFFFFFFFFFFFFFFFFFFFFFFFFFFFFFFFFFFFFFFFFFFFFFFFFFFFFFFFFFFFFFFFFFFFFFFFFFFFFFFFFFFFFFFFFFFFFFFFFFFFFFFFFFFFFFFFFFFFFFFFFFFFFFFFFFFFFFFFFFFFFFFFFFFFFFFFFFFFFFFFFFFFFFFFFFFFFFFFFFFFFFFFFFFFFFFFFFFFFFFFFFFFFFFFFFFFFFFFFFFFFFFFFFFFFFFFFFFFFFFFFFFFFFFFFFFFFFFFFFFFFFFFFFFFFFFFFFFFFFFFFFFFFFFFFFFFFFFFFFFFFFFFFFFFFFFFFFFFFFFFFFFFFFFFFFFFFFFFFFFFFFFFFFFFFFFFFFFFFFFFFFFFFFFFFFFFFFFFFFFFFFFFFFFFFFFFFFFFFFFFFFFFFFFFFFFFFFFFFFFFFFFF09
S3FD000002E8FFFFFFFFFFFFFFFFFFFFFFFFFFFFFFFFFFFFFFFFFFFFFFFFFFFFFFFFFFFFFFFFFFFFFFFFFFFFFFFFFFFFFFFFFFFFFFFFFFFFFFFFFFFFFFFFFFFFFFFFFFFFFFFFFFFFFFFFFFFFFFFFFFFFFFFFFFFFFFFFFFFFFFFFFFFFFFFFFFFFFFFFFFFFFFFFFFFFFFFFFFFFFFFFFFFFFFFFFFFFFFFFFFFFFFFFFFFFFFFFFFFFFFFFFFFFFFFFFFFFFFFFFFFFFFFFFFFFFFFFFFFFFFFFFFFFFFFFFFFFFFFFFFFFFFFFFFFFFFFFFFFFFFFFFFFFFFFFFFFFFFFFFFFFFFFFFFFFFFFFFFFFFFFFFFFFFFFFFFFFFFFFFFFFFFFFFFFFFFFFFFFFFFFFFFFFFFFFFFFFFFFFFFFFFFFFFFFFFFFFFFFFFFFFFFFFFFFFFFFFFFFFFFFFFFFFFFFFFFFFFFFFFFFFFFFFFFFF10
S3FD000003E0FFFFFFFFFFFFFFFFFFFFFFFFFFFFFFFFFFFFFFFFFFFFFFFFFFFFFFFFFFFFFFFFFFFFFFFFFFFFFFFFFFFFFFFFFEFFFFFF2DE9F843DFF87A10DFF87A0081420DD0002408E0A100DFF86E004258A100DFF862004250641CB4F5807FF3D3DFF8520000F088FBDFF85250DFF85270DFF852008046A8EB050405E038467F1C29466D1C007808702046641E0028F5D1DFF83660DFF836008146A9EB060403E03146761C002008702046641E0028F7D1BDE8F843704700E0FF1F0000000010E4FF1F303300003CEAFF1F40EAFF1FD5F4FF1F000008B5DFF818004EF60451CEF20001097802F016F9BDE808407047C04610E4FF1F08B582B048F2380174
S3FD000004D8C4F20401086840F4785008604DF20200C4F20700007800F00800002807D04DF20201C4F20701087840F0080008704FF4803148F24400C4F2040001604DF20200C4F20700007800F00800002807D04DF20201C4F20701087840F008000870182000900120019041F20020C0F27A0000210122042300F078FBDFF860110860DFF85C010068B0F5807F00DAFEE7DFF84C0100684FF47A7102F0F9FCDFF844110860DFF83C01016848F24400C4F20400006800F07040000F401CB1FBF0F1DFF824010160DFF81C01016848F24400C4F20400006800F07060000E401CB1FBF0F1DFF80801016000F082F800F090F84BF20001C4F206014AF2000005
S3FD000005D0C4F2060081420DD14FF440714CF21800C4F2040001604FF440714CF21C00C4F2040001604BF20001C4F206014BF20000C4F2060081420DD14FF440714DF20000C4F2040001604FF440714DF20400C4F2040001604BF20001C4F206014CF20000C4F2060081420DD14FF440714CF20C00C4F2040001604FF440714CF20800C4F2040001604BF20001C4F206014AF20000C4F20600814209D04BF20001C4F206014BF20000C4F2060081420BD14BF20000C4F20600DFF8341009684FF4E13200F031FF0AE04BF20000C4F20600DFF8201009684FF4E13200F025FF02B0BDE808407047C04654EAFF1F50EAFF1F4CEAFF1F48EAFF1F48F20401B4
S3FD000006C8C4F20401086840F4805008604FF4E06149F21800C4F204000160704748F20402C4F2040211686FF0E0000840106048F20401C4F20401086840F0400008604FF4A8614BF20C00C4F2040001607047000008B500F06BFFFFF777FEFFF7D5FE00F06BFD00F003F801F021FFFEE708B5DFF8660248F22401C4F20401096801F07001090901F0D1FF48F22400C4F20400006800F070000009042826D84FEA80008744F0BF00F008B800F00BB800F00EB800F011B800F014B8DFF8220201F0B5FF17E0DFF81A0201F0B0FF12E0DFF8160201F0ABFF0DE0DFF80E0201F0A6FF08E0DFF80A0201F0A1FF03E0DFF8020201F09CFFDFF8FE0148F22401E0
S3FD000007C0C4F20401096801F00F0101F091FF48F22400C4F20400006800F00F000E2853D84FEA80008744F0BF00F04EB800F04CB800F018B800F048B800F019B800F01CB800F01FB800F022B800F025B800F028B800F02BB800F038B800F02CB800F034B800F02DB8DFF8960101F062FF30E0DFF8920101F05DFF2BE0DFF88A0101F058FF26E0DFF8860101F053FF21E0DFF87E0101F04EFF1CE0DFF87A0101F049FF17E0DFF8720101F044FF12E0DFF86E0101F03FFF0DE0DFF8660101F03AFF08E0DFF8620101F035FF03E0DFF85A0101F030FFDFF8560148F22401C4F20401096801F47041090B01F024FF48F22400C4F20400006800F47040000B93
S3FD000008B8001E002806D0401E002808D0401E00280AD00EE0DFF81E0101F00EFF0DE0DFF81A0101F009FF08E0DFF8120101F004FF03E0DFF80E0101F0FFFE00F095F8DFF8060147F20001C4F20401096801F47041090B01F0F1FE47F20000C4F20400006800F47040000B092835D84FEA80008744F0BF00F030B800F010B800F02CB800F011B800F028B800F012B800F024B800F013B800F016B800F019B8DFF8AE0001F0CBFE1CE0DFF8A60001F0C6FE17E0DFF8A20001F0C1FE12E0DFF89A0001F0BCFE0DE0DFF8960001F0B7FE08E0DFF88E0001F0B2FE03E0DFF88A0001F0ADFEBDE808407047C0463EE4FF1F4EE4FF1F54E4FF1F5AE4FF1F60E415
S3FD000009B0FF1F66E4FF1F6CE4FF1F92E4FF1FA2E4FF1FA9E4FF1FB0E4FF1FB7E4FF1FBEE4FF1FC5E4FF1FCDE4FF1FD5E4FF1FDDE4FF1FE5E4FF1FEDE4FF1F13E5FF1F25E5FF1F36E5FF1F47E5FF1F58E5FF1F97E5FF1FAEE5FF1FC0E5FF1FD3E5FF1FE6E5FF1FF9E5FF1F0CE6FF1F20E6FF1F000008B570210020C4F20200017003210720C4F20200017000210620C4F20200017000210520C4F20200017000210420C4F20200017001210F20C4F202000170DFF8A00080470820C4F2020000780090DFF894000B21C4F2020109780A22C4F2020212780923C4F202031B7801F031FE03210720C4F20200017000210620C4F20200017000210520C4F259
S3FD00000AA80200017004210420C4F20200017001210F20C4F202000170DFF83C0080470820C4F2020000780090DFF834000B21C4F2020109780A22C4F2020212780923C4F202031B7801F000FE70210020C4F202000170BDE80840704721EAFF1F3CE6FF1F61E6FF1FDFF8400085464FF000004FF000014FF000024FF000034FF000044FF000054FF000064FF000074FF000084FF000094FF0000A4FF0000B4FF0000C62B6FFF7E6FDFFF7FEBFE0FCFF1F0FB400994EF60850CEF20000016004B07047000038B504463D2C03DDDFF8C60001F0BCFD201104EBD0604511281E002806D0401E00281ED0401E002836D04FE00122E10FC1EBC46001EBF06015
S3FD00000BA002FA00F14EF28020CEF2000001600122E10FC1EBC46001EBF06002FA00F14EF20010CEF20000016034E00122E10FC1EBC46001EBF06002FA00F14EF28420CEF2000001600122E10FC1EBC46001EBF06002FA00F14EF20410CEF20000016019E00122E10FC1EBC46001EBF06002FA00F14EF28820CEF2000001600122E10FC1EBC46001EBF06002FA00F14EF20810CEF200000160BDE8384070477FE6FF1F00000FB42DE9F84F06469846DDF838B044F20600C4F20600007800F00C008008002811D144F20600C4F20600007800F01000002808D044F20600C4F20600007800F02000002801D00120A0E14FF28000C0F2FA20864201DD212058
S3FD00000C9898E10CA8007800280DD04CF2C060C0F22D00864205DB44F60000C0F2E810864201DD222086E10BA80078002802D001210BA80170B8F1010F02DBB8F1190F01DD412077E1BBF1180F02DBBBF1370F01DD42206FE196FBF8F0814648F28040C0F21E00814505DB40F60010C0F23D00814501DD43205EE196FBF8F00BFB00F0824646F60040C0F2DC20824505DB4EF20010C0F2F550824501DD45204BE144F20100C4F20600047804F0C3044CF2C060C0F22D0086420BDC0BA80078C00040F010000CA9097889000843C0B204430AE00BA80078C00040F020000CA9097889000843C0B2044344F20100C4F20600047041F2D020C0F2130086424E
S3FD00000D9001DC002720E042F2A050C0F22600864201DC012718E044F64030C0F24C00864201DC022710E049F28060C0F29800864201DC032708E042F60050C0F23110864201DC042700E0052744F20000C4F20600047804F00304F800C0B200F0380040F08000C4B244F20000C4F2060004700CA8007800281BD000250AE044F20600C4F20600007800F00200002805D16D1C2DB242F210708542F0DB44F20600C4F20600007800F00200002801D12320C6E000250BE044F20600C4F20600007800F00C008008022804D06D1C2DB2B5F5FA6FF0DB44F20600C4F20600007800F00C008008022801D01A20A9E044F20501C4F20601087840F02000087064
S3FD00000E8844F20400C4F20600047804F0E004A8F10100C0B2C0B200F01F002043C4B244F20400C4F20600047044F20500C4F20600047804F0E004ABF11800C0B2C0B200F01F0040F04000C0B2044344F20500C4F20600047000250AE044F20600C4F20600007800F02000002804D16D1C2DB2B5F5FA6FF1DB44F20600C4F20600007800F02000002801D116205CE000250AE044F20600C4F20600007800F04000002804D16D1C2DB2B5F5FA6FF1DB44F20600C4F20600007800F04000002801D1442041E044F20400C4F20600007800F01F00401CC1B200A8417044F20500C4F20600007800F01F001830C1B200A8017044F20001C4F20601087800F0A0
S3FD00000F803F00087000250BE044F20600C4F20600007800F00C008008032804D06D1C2DB2B5F5FA6FF0DB44F20600C4F20600007800F00C008008032801D01B2006E000A8017800A8407896FBF0F04843BDE8F84F04B0704744F20600C4F20600007800F00C008008002813D144F20600C4F20600007800F0100000280AD044F20600C4F20600007800F02000002801D10320F6E044F20600C4F20600007800F00C008008032813D144F20600C4F20600007800F0100000280AD144F20600C4F20600007800F02000002801D00820D8E044F20600C4F20600007800F00C00800802281CD144F20600C4F20600007800F01000002813D144F20600C4F261
S3FD000010780600007800F0200000280AD044F20100C4F20600007800F00200002801D10720B1E044F20600C4F20600007800F00C00800802281CD144F20600C4F20600007800F01000002813D144F20600C4F20600007800F0200000280AD144F20100C4F20600007800F00200002801D105208AE044F20600C4F20600007800F00C008008022813D144F20600C4F20600007800F0100000280AD144F20100C4F20600007800F00200002801D006206CE044F20600C4F20600007800F00C00800801281CD144F20600C4F20600007800F01000002813D044F20600C4F20600007800F0200000280AD144F20100C4F20600007800F00200002801D001202F
S3FD0000117045E044F20600C4F20600007800F00C00800801281CD144F20600C4F20600007800F01000002813D044F20600C4F20600007800F0200000280AD144F20100C4F20600007800F00200002801D102201EE044F20600C4F20600007800F00C008008002813D144F20600C4F20600007800F0100000280AD144F20600C4F20600007800F02000002801D1042000E00020704708B54FF20100C4F20700007800F02000002803D0DFF87E0201F06AFA4FF20100C4F20700007800F01000002803D0DFF86A0201F05DFA4FF20100C4F20700007800F00800002803D0DFF8520201F050FA4FF20100C4F20700007800F00400002803D0DFF83E0201F0EF
S3FD0000126843FA4FF20100C4F20700007800F00200002803D0DFF8260201F036FA4FF20100C4F20700007800F00100002803D0DFF8120201F029FA4FF20000C4F20700007800F08000002803D0DFF8FA0101F01CFA4FF20000C4F20700007800F04000002803D0DFF8E60101F00FFA4FF20000C4F20700007800F02000002803D0DFF8CE0101F002FA4FF20000C4F20700007800F00400002803D0DFF8BA0101F0F5F94FF20000C4F20700007800F00200002803D0DFF8A20101F0E8F94FF20000C4F20700007800F00100002800F08D80DFF88A0101F0DAF9DFF886014EF20001C4F20701097801F0D1F9DFF87A014EF20101C4F20701097801F0C8F9E9
S3FD00001360DFF86A014EF20201C4F20701097801F0BFF9DFF85E014EF20301C4F20701097801F0B6F94EF20100C4F20700007800F00700032803D1DFF83E0101F0A9F94EF20100C4F20700007800F0070004280CD14EF20200C4F20700007800F00700002803D1DFF8160101F093F94EF20100C4F20700007800F0070004280CD14EF20200C4F20700007800F00700012803D1DFF8EE0001F07DF94EF20100C4F20700007800F0070004280CD14EF20200C4F20700007800F00700022803D1DFF8C60001F067F94EF20100C4F20700007800F0070004280CD14EF20200C4F20700007800F00700032803D1DFF89E0001F051F94FF20000C4F20700007883
S3FD00001458002818D14FF20100C4F207000078002811D1DFF87E004FF20001C4F20701097801F03AF9DFF86E004FF20101C4F20701097801F031F9BDE808407047C046B7E6FF1FDAE6FF1FE8E6FF1FF6E6FF1F06E7FF1F1FE7FF1F2BE7FF1F3BE7FF1F4FE7FF1F64E7FF1F79E7FF1F93E7FF1FC4E7FF1FE4E7FF1F04E8FF1F26E8FF1F46E8FF1F5AE8FF1F70E8FF1F86E8FF1F9CE8FF1FB2E8FF1FD8E8FF1F00002DE9F8430446894690464AF20000C4F20600844208D148F23401C4F20401086840F4806008601CE04BF20000C4F20600844208D148F23401C4F20401086840F4006008600DE04CF20000C4F20600844207D148F23401C4F20401086889
S3FD0000155040F480500860E07800F0F300E0700020A0704FF47A7009FB00F14FEA081091FBF0F085B221786FF01F000840C6B205F4F8500012C0B2C0B200F01F003043C0B22070E8B260704FF4FA4009FB00F14FEA081091FBF0F16801081A87B2A17A6FF01F000840C6B2F8B2C0B200F01F003043C0B2A072E07840F00C00E070BDE8F843704700000FB418B40446207900F080000028FAD003A890F90000C0B2E07118BC04B0704708B500F00DF842F20002C4F2050211884FF6FE7008401080BDE808407047000072B64CF2205142F20E00C4F2050001804DF6281142F20E00C4F20500018062B6704700000FB410B5029C20780A2806D14BF20000E1
S3FD00001648C4F206000D21FFF7C1FF4BF20000C4F20600217849B2FFF7B9FFBDE8104004B0704700000FB410B5029C13E020780A2806D14BF20000C4F206000D21FFF7A6FF2146641C4BF20000C4F20600097849B2FFF79CFF20780028E8D1BDE8104004B0704700000FB408B502A80078001E002806D0401E002815D0401E00282FD046E048F20401C4F20401086840F4A020086048F24802C4F2040211686FF00F000840106034E000F040F848F20402C4F2040211686FF480300840106048F20401C4F20401086840F48020086048F24802C4F2040211686FF00F000840106017E048F20402C4F2040211686FF480200840106048F23801C4F2040158
S3FD00001740086840F4007008604FF4007149F26400C4F20400016048F23401C4F20401086840F480200860BDE8084004B0704700007047000008B548F23C01C4F20401086840F4001008602420FFF7EEF9C12145F20400C4F203000160BDE808407047000010B5DFF88000007800F00100002835D000F042F8044604F0F000002804D0DFF8680000F095FF17E004F00F00012803D1DFF8580000F08CFF04F00F00022803D1DFF84C0000F084FF04F00F00032803D1DFF8400000F07CFFDFF82800007800F0FE01DFF8200001700121C0F2002145F20000C4F203000160012000E00020BDE81040704758EAFF1FFEE8FF1F11E9FF1F2FE9FF1F4DE9FF1F69
S3FD0000183810B545F20800C4F20300006800F44030000CC4B245F20800C4F20300006800F44010000CC0B204432046BDE81040704745F20001C4F20301086840F00100086045F20800C4F20300006800F44020B0F5002F07D142F20811C4F20701087840F01000087045F20800C4F20300006800F48000002808D045F20800C4F20300006800F44010002807D0DFF81000007840F00101DFF8080001707047C04658EAFF1F08B50021DFF84C00017000F0CFF84BF21C01C4F20401086840F4407008604FF4165000F0ADF8DFF8301008600021DFF8280001710021DFF8200041710821DFF818008171DFF81400802100F0A3FDBDE8084070475CEAFF1FD8
S3FD00001930E0EAFF1F5DEAFF1F08B5DFF866000078001E002806D02038002808D0801E00281FD023E00021DFF84A0001701EE0DFF84600007800F00100002817D0DFF83600007800F0FE01DFF82E0001700020DFF82A1000F0B1F900200021002200F0F2F804E000200021002200F0ECF8BDE8084070475CEAFF1F15ECFF1FE0EAFF1F000010B50024DFF886000068407822280BDC202806DB202818D021280FD022281AD030E00A2803D02DE0AA281AD02AE00020DFF85E10012200F0C5F823E00020DFF85610072200F0BEF81CE02021DFF84A000170012416E02221DFF83E000170002410E0DFF83A00802100F028FDDFF83200007840F08001DFF83D
S3FD00001A282A000170FF21DFF81E0001702046BDE810407047C04600ECFF1F06ECFF1FE0EAFF1F5CEAFF1F5DEAFF1F15ECFF1F000038B5054605F07F40040E05F47F00000A241805F47F400002241805F0FF00000624182046BDE838407047000008B5DFF8DC000169DFF8D80001600021DFF8D40001700020FFF706FE2320FFF761F842F20C11C4F20701087840F08000087042F20C10C4F20700007800F080000028F6D1DFF8A400000AC1B242F29C00C4F207000170DFF89400000CC1B242F2B000C4F207000170DFF88000000EC1B242F2B400C4F20700017042F28001C4F20701087840F00200087042F28401C4F20701087840F00100087042F2BC
S3FD00001B200011C4F20701087800F03F00087042F20C11C4F20701087840F04000087042F29401C4F20701087840F00100087042F20811C4F20701087840F010000870BDE80840704770E9FF1F00ECFF1F04ECFF1F00F0FF1F0FB42DE9F00304469146002080462646002C01D0A000C4B2A41CE4B2A100DFF832014758DFF82E01007800F0010000281ED00799DFF822010160DFF8220180F80090DFF81E010068C0790102DFF8120100688079081880B28046C84508DA022C06D1DFF8FE0000688179DFF8F2000170DFF8EA000178DFF8EE00005D814216D9DFF8E200055DDFF8D6000178DFF8D600005D091AC9B2DFF8C6000170DFF8B600007800F056
S3FD00001C18FE01DFF8AE0001700EE0DFF8AE0005780021DFF8A6000170DFF89600007840F00101DFF88E000170E100DFF89A00401845800AE03846471CDFF87A100B685A1CDFF872100A60197801702846451EEDB20028EFD1DFF8720001780120B0400840002810D08822E100DFF85A004254DFF85A0001780120B040C043C0B20140DFF84A0001700EE0C822E100DFF83A004254DFF8360001780120B040C0B20143DFF82A000170BDE8F00304B07047C04680E9FF1F14ECFF1F10ECFF1F0DECFF1F00ECFF1F8E31000000F0FF1F0CECFF1F0000F8B504460F46641CE4B2A100DFF832004658E100DFF82E0040184088C5B22C4605E039464F1C30460B
S3FD00001D10461C007808702846451EEDB20028F4D12046BDE8F8407047C04680E9FF1F00F0FF1F000038B50546A800C100DFF8300040184088001200F0FF02A800C100DFF820004018408800F0FF000002104380B2C4B240F2FF302040BDE838407047C04600F0FF1F052142F2C400C4F207000170052142F2C800C4F207000170092142F2CC00C4F207000170012142F2D000C4F207000170012142F2D400C4F207000170012142F2D800C4F2070001700021DFF8580080F830100021DFF84C004186DFF84C10DFF8440041630021DFF83C0080F850100021DFF83000A0F85210DFF83010DFF8240041658021DFF81C0080F86010FF21DFF81400A0F8AB
S3FD00001E086210DFF81810DFF8080041667047C04600F0FF1F36EDFF1FB6ECFF1F76ECFF1F08B5DFF8300100684078092800F28C804FEA80008744F0BF00F07BB800F084B800F082B800F080B800F07EB800F008B800F010B800F078B800F064B800F03EB8002000210022FFF781FE0321DFF8E80001706BE0DFF8DC000068C078401E002806D0401E00280AD0401E00280ED022E00020DFF8C8101222FFF768FE56E00020DFF8BC104322FFF761FE4FE00020DFF8A410096889788A00DFF8A8108958DFF89420126892789300DFF89820D2581278FFF74CFE3AE000F063F937E0DFF874000068C178DFF86C00006880780818C1B2DFF874000170DFF876
S3FD00001F005C000068C178DFF8540000688078081800281FD0FFF72EFF002000210022FFF729FE0121DFF83800017013E00020DFF840100122FFF71EFE0CE00021DFF8340001800020DFF82C100222FFF713FE01E000F02AF9BDE808407047C04600ECFF1F04ECFF1FC2310000E831000070E9FF1F0AECFF1F08ECFF1F10B5DFF89200007800F0FE01DFF886000170DFF886000068007800F01F00001E002806D0401E002812D0401E00281ED024E0DFF866000068007800F01F00002801D1FFF735FF8821DFF85200017017E0FFF7F2FC0446002C04D18821DFF83E0001700DE0C821DFF83600017008E000F019F88821DFF82600017001E000F0D8F892
S3FD00001FF842F29401C4F20701087800F0DF000870BDE8104070470CECFF1F00ECFF1F00F0FF1F000008B5DFF8B00000684078001E002806D0401E00281ED0801E002832D046E0DFF8980002780121DFF88C000068407901FA00F01040002804D04FF4807100A8018002E0002100A80180002000A90222FFF783FD2BE0DFF8600002780121DFF854000068407901FA00F0C043C0B202EA0001DFF844000170002000210022FFF76CFD14E0DFF8340002780121DFF828000068407901FA00F0C0B242EA0001DFF818000170002000210022FFF756FDBDE808407047C04600ECFF1F05ECFF1F38B542F29000C4F20700007800F0080542F29000C4F20700F2
S3FD000020F000780011C4B2002C12D0002D21D10022A000C100DFF842004254DFF8420001780120A040C0B20143DFF83200017010E0002D02D000F016F80BE0DFF81E0000788006000F0D2802D1FFF71EFF01E000F047F8BDE838407047C04600F0FF1F15ECFF1F000008B5DFF844000078032814D1DFF83C000068817842F29800C4F2070001700421DFF824000170DFF82800007840F00101DFF81C000170002000210022FFF7F0FCBDE808407047C04604ECFF1F00ECFF1F14ECFF1F42F2C001C4F20701087840F0020008708821DFF8100001702021DFF8080041807047C04600F0FF1FDFF81800007840F00101DFF8100001708821DFF80C000170BC
S3FD000021E87047C04615ECFF1F00F0FF1F42F2C000C4F20700007800F00200002807D042F2C001C4F20701087800F0FD00087042F28001C4F20701087840F0800008707047FF21DFF8440101700021DFF8400101700021DFF83C010170002142F2C400C4F207000170002142F2C800C4F207000170002142F2CC00C4F207000170002142F2D000C4F207000170002142F2D400C4F207000170002142F2D800C4F2070001702021DFF8F0004180DFF8EC10DFF8E4004160C821DFF8DC0001702021DFF8D4004181DFF8D810DFF8CC00C160C821DFF8C40001722021DFF8BC004182DFF8C010DFF8B00041618821DFF8A80001742021DFF8A0004183DFF824
S3FD000022E0AC10DFF89800C1618821DFF8900001760D2142F2C000C4F207000170FF2142F28800C4F207000170FF2142F28000C4F207000170002142F29800C4F207000170FF2142F28C00C4F20700017042F28401C4F20701087840F00800087042F28401C4F20701087840F00400087042F28401C4F20701087840F00200087042F28401C4F20701087840F0010008707047C04614ECFF1F0CECFF1F0BECFF1F00F0FF1FF6EDFF1FD6EDFF1FB6EDFF1F96EDFF1F10B542F28000C4F20700007800F00100002802D0FFF740FF5AE042F28000C4F20700007800F00400002805D0042142F28000C4F20700017042F28000C4F20700007800F0800000285A
S3FD000023D801D0FFF70BFF42F28000C4F20700007800F00800002811D042F29401C4F20701087840F002000870FFF76AFE42F28001C4F20701087840F00800087042F28000C4F20700007800F01000002807D042F28001C4F20701087840F01000087042F28000C4F20700007800F0020000280BD042F28000C4F207000078FEF7BFFD0446DFF80A0000F048F9BDE810407047C0E9FF1F000038B504460D466019411EDFF82C000160DFF828000460DFF828000570DFF824000460DFF8240004600021DFF820000170BDE838407047C0468CF0FF1F90F0FF1F81F0FF1F88F0FF1F84F0FF1F80F0FF1F10B54BF2A000C4F2040004684BF2A000C4F2040026
S3FD000024D00460002C1DD04FF29000C4F20F00006800F40060002808D0DFF82E00007840F00201DFF8260001700BE042F20811C4F20701087800F0EF000870DFF8120000F0EFF8BDE810407047C04694F0FF1FCCE9FF1F000008B548F23801C4F20401086840F4006008604FF480714BF22400C4F2040001604FF29401C4F20F01086840F4007008602A20FEF707FB40F20311C0F20B014BF22C00C4F204000160BDE808407047000008B5DFF81E11DFF81E01016047F20401C4F20401086840F08070086047F20001C4F20401086840F00040086047F20401C4F20401086840F08060086047F20001C4F20401086840F08040086047F20401C4F2040102
S3FD000025C8086840F00070086047F20001C4F20401086840F000500860FFF7A0FF4FF28801C4F20F01086840F400700860FFF770F9FFF7BCF8DFF89E0000F076F8FFF798F9FFF7CAF8DFF89200007800F0020000281AD04FF0011145F20000C4F20300016045F20001C4F20301086840F080700860DFF86A0000F058F8DFF85E00007800F0FD01DFF856000170DFF85600007800F008000028D2D00320FFF768FB2021DFF84600A0F862108021DFF83A0080F86010DFF82E00007800F0F701DFF8260001700220DFF826100122FFF770FAB6E79CF0FF1F98F0FF1FDAE9FF1F94F0FF1F10EAFF1F15ECFF1F00F0FF1F76ECFF1F0000CBB2521C05E010F8F2
S3FD000026C0011B994201D1401E7047521EF7D10020704700000FB410B5012004AA012400F00DFC00B100242046BDE8104004B070470FB408B50020009002AB23F00303DFF81400029A00211B1D00F04AFABDE8084004B07047D52600004FF0FF3210F8011B521C0029FAD11046704700008446521C0CE011F8013BDBB20CF8013B33B9002101E00CF8011B521EFBD17047521EF0D170470000C9B203E08A4201D1401E704710F8012B002AF7D1002918BF002000D1401E70472DE9F84384B001230DF10008154688F80030002288F8012088F8022088F8032088F80420471C3C780E4602920392252C0BD188F8054000AA03CA03C503CA03C504B0781C5B
S3FD000027B8BDE8F84370474FF0020901202B2C08DC12DA232C26DC202C24DB10D0232C16D020E0302C1EDC2D2C1CDB02D0302C11D018E088F8002016E088F8013013E098F801C0BCF1010F18BF88F801900BE088F8033008E098F800C0BCF1000F18BF88F8009000E0002010B17F1C3C78CDE72A2C0FD10868001D0860001F01680291002904DA002088F80000484202907F1C3C7810E04FF00A0908E00298A4F1300100FB09F07F1C08183C780290204600F03AFB0028F1D1029940F2FD1081420CDDFF2000AA88F8050003CA03C503CA03C504B0781CBDE8F84370472E2C23D17F1C3C78012088F802002A2C0DD13068001D3060001F0068039000280B
S3FD000028B0BCBF002088F802007F1C3C780EE00A2607E00398A4F1300170437F1C08183C780390204600F002FB0028F2D10121B4F1680002D0001F04D007E0022088F8040004E0032088F8040000E0002109B17F1C3C7888F80540692C0ADC632C05DB30D0642C14D0692C12D03CE0582C0FD039E06E2C01DC39D035E0A4F16F00092831D8DFE800F00513303029300530300598F8020010B90120039027E098F80000022804BF012088F800001FE0782088F80500012088F80300032088F804000820039013E098F8020010B998F8040068B1FF2088F8050009E098F8040030B1FF2088F8050002E0FF2088F8050000AA03CA03C503CA03C5781C04B0BF
S3FD000029A8BDE8F843704700000FB42DE9F00F9DF828A083469DF82B909DF82D800C9F0D9B00264D1E0A240022DC462E70F0B9EBB9B9F1000F02D0B8F16F0F17D0B8F1640F02D0B8F1690F0CD19DF82900022803D16D1E2020287004E0012802D16D1E2B2028702846BDE8F00F04B07047B8F1690F09DC1CDAB8F1580F01DC28D02BE0B8F1640F14D027E0B8F16F0F05DC02BF082400208DF829001EE0B8F1780F1BDCB8F1750F18DB0ED0B8F1780F10D013E00A24002810DAB0F1004F1CBFC0F1000BDC46012608E000200A248DF8290003E000208DF829001024BCFBF4F004FB10C0BCFBF4FC0A2838BF303004D3B8F1780F0CBF573037306D1E521C52
S3FD00002AA02870BCF1000FEAD1082C09D1B9F1000F06D02878302803D06D1E30202870521CBAF1020F0BD13B4616B99DF8290000B17B1E102C03D1B9F1000F00D09B1E481B191840F2FD108142C8BF002054DC981A302700282FDDC10800F013806D1E05F8017905F8017905F8017905F8017905F8017905F8017905F801792F70491E7FF4EDAF10F0040F00F008806D1E05F8017905F8017905F801792F7010F0020F00F004806D1E05F801792F7010F0010F00F002806D1E2F70102C0BD1B9F1000F08D0BBF1000F05D0681E80F80080AD1E302028701EB16D1E2D2028700CE09DF82900012803D16D1E2B20287004E0022802D16D1E2020287028466B
S3FD00002B98BDE8F00F04B070470FB42DE9F04FADF5077D8246202002AC894693466070002581E158462521FFF7C9FD0646A8B95846FFF7A6FD0246AD18002A00F0798148465946D047002840F073810DF5077D4FF0FF30BDE8F04F04B07047A0EB0B02AD185AB148465946D04738B90DF5077D4FF0FF30BDE8F04F04B07047304693A903AAFFF7ACFD8346607A6E2815DC80F29480582804DC44DA252800F0A980ADE0692800F3AB806328C0F2A88000F09680642810D069280ED0A0E0782800F39E80732805DB52D075282BD0782829D095E06F2826D092E0207A032803BF9399091D939193991CBF091D9391091F0F68022801D13FB202E0012800D1A8
S3FD00002C907FB2059906980091019003A80CC887A93846FFF785FE0746002800F0728086A90331A1EB000885E0217A032903BF9398001D939093981CBF001D9390001F0768022901D1BFB202E0012900D1FFB2059906980091019003A80CC887A93846FFF75FFE074600284CD086A90331A1EB000860E09398001D9390001F07680FB9DFF8C671E07948B1A07917F8018B002851D006988045C8BF80464CE0A07958B1DDF81880384600214246FFF7BEFC002841D0A0EB07083EE03846FFF7E6FC804639E09398001D9390001F0168207A28B1801E05D0401E08BF0D60A9E00D60A7E00D80A5E0939807AF001D9390001F00684FF0010820751EE02520AC
S3FD00002D8807AF20754FF0010818E03046FFF7C0FC0246AD185AB148463146D04738B90DF5077D4FF0FF30BDE8F04F04B070470DF5077D2846BDE8F04F04B070472079464600284FD002280CBF30202020607038782B2803D02D2801D0202812D1607830280FD1484639460122D04738B90DF5077D4FF0FF30BDE8F04F04B070477F1CA8F10108207902282AD1607A612801D0412825D1B8F1020FB8BF4FF0FF3051DB484639460222D04738B90DF5077D4FF0FF30BDE8F04F04B07047A8F10208BF1C0EE002A9484601310122D04738B90DF5077D4FF0FF30BDE8F04F04B07047761C05988642EDDBB8F1000F0CD0484639464246D04738B90DF5077DEC
S3FD00002E804FF0FF30BDE8F04F04B070472079A8B920270DF108080EE04846414601222770D04738B90DF5077D4FF0FF30BDE8F04F04B07047761C05988642EDDBAD199BF8000000287FF479AE28460DF5077DBDE8F04F04B070471DEAFF1F00000121B0F5807F98BF0021002911BF0020DFF80810085C00F0200070472B3200002DE9F04117688846012F06D84046FEF795FB0020BDE8F04170470026DFF8425000240CE0284608EB06015022FFF700FC284685F85040FEF79BFB503F5036502FF0D857B1284608EB06013A46FFF7F0FB0020E8552846FEF78BFB0020BDE8F041704784F4FF1F000080EA010C0CF0004C0028BCBFC0F100000CF1010C92
S3FD00002F780029B8BFC1F1000100F0ED8088423CBF4FEA00014FF00000C0F0E5804FF01C024FEA1013B1EB133FDCBFA2F110024FEA1343B1EB131FDCBFA2F108024FEA13239942DCBFA2F104024FEA131300FA02F0C1F10001001802EB42024FEA82027A44974651EB430338BFA3EB0103404151EB430338BFA3EB0103404151EB430338BFA3EB0103404151EB430338BFA3EB0103404151EB430338BFA3EB0103404151EB430338BFA3EB0103404151EB430338BFA3EB0103404151EB430338BFA3EB0103404151EB430338BFA3EB0103404151EB430338BFA3EB0103404151EB430338BFA3EB0103404151EB430338BFA3EB0103404151EB430338BFB6
S3FD00003070A3EB0103404151EB430338BFA3EB0103404151EB430338BFA3EB0103404151EB430338BFA3EB0103404151EB430338BFA3EB0103404151EB430338BFA3EB0103404151EB430338BFA3EB0103404151EB430338BFA3EB0103404151EB430338BFA3EB0103404151EB430338BFA3EB0103404151EB430338BFA3EB0103404151EB430338BFA3EB0103404151EB430338BFA3EB0103404151EB430338BFA3EB0103404151EB430338BFA3EB0103404151EB430338BFA3EB0103404151EB430338BFA3EB0103404151EB430338BFA3EB0103404151EB430338BFA3EB0103404151EB430338BFA3EB010340414FEA03011CF0004318BFC0F10000D7
S3FD000031681CF0010318BFC1F1000170474FEA00014FF0000070470000040309040A06000200000010010020202020202020202020202020202020120354004500530054005F0031002E00300012035500530042002D0055004100520054001201100102000020A2150FA5000001020301140346007200650065007300630061006C00650009024300020100C032090400000102020101052400100105240100010424020005240600010705810320000209040100020A0000010705820220000007050302200000404040404040404040414141414140404040404040404040404040404040404005020202020202020202020202020202A0A0A0A0A0A1
S3D500003260A0A0A0A0A00202020202020290909090909010101010101010101010101010101010101010100202020202028888888888880808080808080808080808080808080808080808020202024000000000000000000000000000000000000000000000000000000000000000000000000000000000000000000000000000000000000000000000000000000000000000000000000000000000000000000000000000000000000000000000000000000000000000000000000000000000000000000000000000000000000000000000000000A6
S3FD000033300A2A2A2A2A64656661756C745F69737220656E7465726564206F6E20766563746F722025642A2A2A2A2A0D0A0A000A2046414D5F4944203D2030782578000A4B31302D000A4B32302D000A4B33302D000A4B34302D000A4B36302D000A556E7265636F676E697A6564204B696E657469732066616D696C79206465766963652E0A000A2050494E5F4944203D203078257800333270696E0A00343870696E0A00363470696E0A00383070696E0A00383170696E0A0031303070696E0A0031303470696E0A0031343470696E0A0031393670696E0A0032353670696E0A000A556E7265636F676E697A6564204B696E65746973207061636B618B
S3FD00003428676520636F6465202E0A000A205245565F4944203D2030782578200A0053696C69636F6E2072657620312E300A0053696C69636F6E2072657620312E310A0053696C69636F6E2072657620312E320A000A546869732076657273696F6E206F6620736F66747761726520646F65736E2774207265636F676E697A6520746865207265766973696F6E20636F64652E000A2052414D5F53495A455F4944203D2030782578200A0038206B4279746573206F662052414D0A0A003136206B4279746573206F662052414D0A0A003332206B4279746573206F662052414D0A0A003634206B4279746573206F662052414D0A0A003936206B42797496
S3FD000035206573206F662052414D0A0A00313238206B4279746573206F662052414D0A0A0020455252212120556E646566696E65642052414D2073697A650A0A00466C61736820706172616D657465722076657273696F6E2025642E25642E25642E25640A00466C6173682076657273696F6E2049442025642E25642E25642E25640A000A4552522120496E76616C6964204952512076616C75652070617373656420746F20656E61626C65206972712066756E6374696F6E210A0053746F70204D6F64652041636B6E6F776C65646765204572726F722052657365740A00457A506F72742052657365740A004D444D2D41502052657365740A00536F77
S3FD000036186674776172652052657365740A00436F7265204C6F636B7570204576656E742052657365740A004A5441472052657365740A00506F7765722D6F6E2052657365740A0045787465726E616C2050696E2052657365740A005761746368646F6728434F50292052657365740A004C6F7373206F6620436C6F636B2052657365740A004C6F772D766F6C74616765204465746563742052657365740A005B6F75745352535D57616B65757020626974207365742066726F6D206C6F7720706F776572206D6F646520657869740A005B6F75745352535D534D435F504D50524F542020203D202523303258200D0A005B6F75745352535D534D435F0B
S3FD00003710504D4354524C2020203D202523303258200D0A005B6F75745352535D534D435F564C4C534354524C2020203D202523303258200D0A005B6F75745352535D534D435F504D535441542020203D202523303258200D0A005B6F75745352535D204C4C532065786974200A005B6F75745352535D20564C4C53302065786974200A005B6F75745352535D20564C4C53312065786974200A005B6F75745352535D20564C4C53322065786974200A005B6F75745352535D20564C4C53332065786974200A005B6F75745352535D52434D5F53525330206973205A45524F2020203D202523303258200D0A005B6F75745352535D52434D5F535253315E
S3FD00003808206973205A45524F2020203D202523303258200D0A004F6F6F6F6F6F707320444344204572726F72000A436F6E6E656374656420746F2061205374616E6461726420486F7374000A436F6E6E656374656420746F2061204368617267696E6720486F7374000A436F6E6E656374656420746F2061204465646963617465642043686172676572000080310000D4310000B03100009E310000F6EDFF1FD6EDFF1FB6EDFF1F96EDFF1F76EDFF1F56EDFF1F36EDFF1F16EDFF1FF6ECFF1FD6ECFF1FB6ECFF1F96ECFF1F76ECFF1F56ECFF1F36ECFF1F16ECFF1F0A555342204572726F720A000A5642555320697320446F776E000A2A2A2A2A2AA8
S365000039002A2A2A2A2A204443442F55534220446576696365204D6F64756C652054657374696E67202A2A2A2A2A2A2A2A2A2A0A000A564255532069732055700A0000000080210020C4F2020001700020C4F20200007800F080000028F7D070470000000044
S70500000B0CE3
