S0030000FC
S3FD0000000070F9FF1F3D110000E10A0000E10A0000E10A0000E10A0000E10A0000E10A0000E10A0000E10A0000E10A0000E10A0000E10A0000E10A0000E10A0000E10A0000E10A0000E10A0000E10A0000E10A0000E10A0000E10A0000E10A0000E10A0000E10A0000DD160000E10A0000E10A0000E10A0000E10A0000E10A0000E10A0000E10A0000E10A0000E10A0000E10A0000E10A0000E10A0000E10A0000E10A0000E10A0000E10A0000E10A0000E10A0000E10A0000E10A0000E10A0000E10A0000E10A0000E10A0000E10A0000E10A0000E10A0000B5080000E10A0000E10A0000E10A0000E10A0000E10A0000E10A0000E10A0000E10A00003F
S3FD000000F8FFFFFFFFFFFFFFFFFFFFFFFFFFFFFFFFFFFFFFFFFFFFFFFFFFFFFFFFFFFFFFFFFFFFFFFFFFFFFFFFFFFFFFFFFFFFFFFFFFFFFFFFFFFFFFFFFFFFFFFFFFFFFFFFFFFFFFFFFFFFFFFFFFFFFFFFFFFFFFFFFFFFFFFFFFFFFFFFFFFFFFFFFFFFFFFFFFFFFFFFFFFFFFFFFFFFFFFFFFFFFFFFFFFFFFFFFFFFFFFFFFFFFFFFFFFFFFFFFFFFFFFFFFFFFFFFFFFFFFFFFFFFFFFFFFFFFFFFFFFFFFFFFFFFFFFFFFFFFFFFFFFFFFFFFFFFFFFFFFFFFFFFFFFFFFFFFFFFFFFFFFFFFFFFFFFFFFFFFFFFFFFFFFFFFFFFFFFFFFFFFFFFFFFFFFFFFFFFFFFFFFFFFFFFFFFFFFFFFFFFFFFFFFFFFFFFFFFFFFFFFFFFFFFFFFFFFFFFFFFFFFFFFFFFFFFFFFFF02
S3FD000001F0FFFFFFFFFFFFFFFFFFFFFFFFFFFFFFFFFFFFFFFFFFFFFFFFFFFFFFFFFFFFFFFFFFFFFFFFFFFFFFFFFFFFFFFFFFFFFFFFFFFFFFFFFFFFFFFFFFFFFFFFFFFFFFFFFFFFFFFFFFFFFFFFFFFFFFFFFFFFFFFFFFFFFFFFFFFFFFFFFFFFFFFFFFFFFFFFFFFFFFFFFFFFFFFFFFFFFFFFFFFFFFFFFFFFFFFFFFFFFFFFFFFFFFFFFFFFFFFFFFFFFFFFFFFFFFFFFFFFFFFFFFFFFFFFFFFFFFFFFFFFFFFFFFFFFFFFFFFFFFFFFFFFFFFFFFFFFFFFFFFFFFFFFFFFFFFFFFFFFFFFFFFFFFFFFFFFFFFFFFFFFFFFFFFFFFFFFFFFFFFFFFFFFFFFFFFFFFFFFFFFFFFFFFFFFFFFFFFFFFFFFFFFFFFFFFFFFFFFFFFFFFFFFFFFFFFFFFFFFFFFFFFFFFFFFFFFFFFF09
S3FD000002E8FFFFFFFFFFFFFFFFFFFFFFFFFFFFFFFFFFFFFFFFFFFFFFFFFFFFFFFFFFFFFFFFFFFFFFFFFFFFFFFFFFFFFFFFFFFFFFFFFFFFFFFFFFFFFFFFFFFFFFFFFFFFFFFFFFFFFFFFFFFFFFFFFFFFFFFFFFFFFFFFFFFFFFFFFFFFFFFFFFFFFFFFFFFFFFFFFFFFFFFFFFFFFFFFFFFFFFFFFFFFFFFFFFFFFFFFFFFFFFFFFFFFFFFFFFFFFFFFFFFFFFFFFFFFFFFFFFFFFFFFFFFFFFFFFFFFFFFFFFFFFFFFFFFFFFFFFFFFFFFFFFFFFFFFFFFFFFFFFFFFFFFFFFFFFFFFFFFFFFFFFFFFFFFFFFFFFFFFFFFFFFFFFFFFFFFFFFFFFFFFFFFFFFFFFFFFFFFFFFFFFFFFFFFFFFFFFFFFFFFFFFFFFFFFFFFFFFFFFFFFFFFFFFFFFFFFFFFFFFFFFFFFFFFFFFFFFFFF10
S3FD000003E0FFFFFFFFFFFFFFFFFFFFFFFFFFFFFFFFFFFFFFFFFFFFFFFFFFFFFFFFFFFFFFFFFFFFFFFFFFFFFFFFFFFFFFFFFEFFFFFF10B5044600E0641E002CFCD1BDE810407047000008B548F23801C4F20401086840F4006008604FF480714BF22800C4F2040001604FF480714BF22400C4F20400016000F005F800F017F8BDE8084070474FF29401C4F20F01086840F4C0600860704700004FF28401C4F20F01086840F4C0600860704700004FF28002C4F20F0211686FF4C06008401060704747F20001C4F20401086840F44020086048F23C01C4F20401086840F0005008607047000010B5FFF7EBFF00F0F3F8FFF7ABFF00F099F900200021102255
S3FD000004D800F0D4FE092000F065FE00214BF20C00C4F2040001602A214EF20000C4F20700017045F20001C4F20401086840F00200086045F20001C4F20401086840F05000086045F20001C4F20401086840F080000860DFF8D60002F007FAFFF79FFFDFF8CE00426ADFF8C600406A411EDFF8BE004162002A0BD0DFF8B600026ADFF8AE00006A411CDFF8A6000162107803E0DFF89E0002F01FF901F0C9FF00F0E3F800F04DF801F095FF01F003FD0446072C05D141F20020C0F27A0001F078FC012000F051F8012000F066F800F006F9DFF8620002F0CAF9FFF758FFDFF85A0002F0C4F9DFF84A00426ADFF84600406A411EDFF83E004162002A0BD087
S3FD000005D0DFF83200026ADFF82E00006A411CDFF826000162107803E0DFF81A0002F0DEF801F088FF00F00EF800F0A0F801F066FF93E710E4FF1FBCEFFF1F47E4FF1F62E4FF1F000008B5002000F028F8002000F00DF800F003F8BDE808407047032149F20800C4F204000160704700000FB400A80078002808D044F20501C4F20601087840F02000087007E044F20501C4F20601087800F0DF00087004B070470FB400A8007800280ED04FF440714DF20000C4F2040001604FF440714DF20400C4F2040001600BE000214DF20000C4F20400016000214DF20400C4F20400016004B0704708B548F23801C4F20401086840F020000860002149F21000C2
S3FD000006C8C4F20400016045F20001C4F20401086840F40040086045F20002C4F2040211680120C0F254700843106045F20402C4F20402116840F60120C0F6097008431060252000F04FFD412145F20800C4F20400016045F20800C4F20400006845F20001C4F20401086840F080000860BDE808407047000045F20002C4F2040211686FF080000840106045F20000C4F204000068002801D1012000E0002000F400400028F1D145F20001C4F20401086840F48040086045F20001C4F20401086840F40040086045F20002C4F2040211686FF010000840106045F20001C4F20401086840F0800008607047000045F20002C4F2040211686FF080000840B9
S3FD000007C0106045F20001C4F20401086840F48040086045F20001C4F20401086840F40040086045F20001C4F20401086840F01000086045F20001C4F20401086840F080000860704708B545F20001C4F20401086840F48070086045F20000C4F204000068002801D1012000E0002000F400400028F1D145F69070C0F20100FFF7E9FD45F20010C4F20400006881B2DFF862000180DFF85A00008800F5807081B2DFF84E00018445F20C10C4F20400006881B2DFF83E004180DFF83600408800F5807081B2DFF82A004184DFF82600018C45F22010C4F20400016045F20002C4F2040211686FF0800008401060BDE808407047B0F0FF1F000038B5002402
S3FD000008B845F20000C4F204000168DFF86C01016045F20001C4F20401086840F48040086045F20001C4F20401086840F40040086045F20000C4F204000168DFF84001016045F20010C4F20400006885B2DFF83001008C854223D9DFF82801B0F8400040F00101DFF81C01A0F84010DFF818010068411EDFF810010160DFF80801006800281CD144F00104DFF8F800B0F840104FF6FE700140DFF8E800A0F840100EE0DFF8E000B0F840104FF6FE700140DFF8D000A0F840100421DFF8CC00016045F20C10C4F20400006885B2DFF8B400408C854223D9DFF8AC00B0F8400040F00201DFF8A000A0F84010DFF89C004068411EDFF894004160DFF88C0098
S3FD000009B0406800281CD144F00204DFF87C00B0F840104FF6FD700140DFF86C00A0F840100EE0DFF86400B0F840104FF6FD700140DFF85400A0F840100421DFF85000416004F00100002809D04FF480614FF28C00C4F20F0001604FF6FE70044004F00200002809D04FF400714FF28C00C4F20F0001604FF6FD700440BDE838407047C046F8F0FF1FF4F0FF1FB0F0FF1F9CE4FF1F2DE9F843DFF87A10DFF87A0081420DD0002408E0A100DFF86E004258A100DFF862004250641CB4F5807FF3D3DFF8520000F092FBDFF85250DFF85270DFF852008046A8EB050405E038467F1C29466D1C007808702046641E0028F5D1DFF83660DFF836008146A9EBA2
S3FD00000AA8060403E03146761C002008702046641E0028F7D1BDE8F843704700E0FF1F0000000010E4FF1F10350000A8F0FF1FB0F0FF1F65F1FF1F000008B5DFF818004EF60451CEF20001097801F026FFBDE808407047C046DCE4FF1F08B582B048F23801C4F20401086840F4785008604DF20200C4F20700007800F00800002807D04DF20201C4F20701087840F0080008704FF4803148F24400C4F2040001604DF20200C4F20700007800F00800002807D04DF20201C4F20701087840F008000870192000900120019041F20020C0F27A0000210122042300F0B8FFDFF860110860DFF85C010068B0F5807F00DAFEE7DFF84C0100684FF47A7102F0D2
S3FD00000BA025FBDFF844110860DFF83C01016848F24400C4F20400006800F07040000F401CB1FBF0F1DFF824010160DFF81C01016848F24400C4F20400006800F07060000E401CB1FBF0F1DFF80801016000F082F800F090F84BF20001C4F206014AF20000C4F2060081420DD14FF440714CF21800C4F2040001604FF440714CF21C00C4F2040001604BF20001C4F206014BF20000C4F2060081420DD14FF440714DF20000C4F2040001604FF440714DF20400C4F2040001604BF20001C4F206014CF20000C4F2060081420DD14FF440714CF20C00C4F2040001604FF440714CF20800C4F2040001604BF20001C4F206014AF20000C4F20600814209D050
S3FD00000C984BF20001C4F206014BF20000C4F2060081420BD14BF20000C4F20600DFF8341009684FF4E13201F039FC0AE04BF20000C4F20600DFF8201009684FF4E13201F02DFC02B0BDE808407047C04610F1FF1F0CF1FF1F08F1FF1F04F1FF1F48F20401C4F20401086840F4805008604FF4E06149F21800C4F204000160704748F20402C4F2040211686FF0E0000840106048F20401C4F20401086840F0400008604FF4A8614BF20C00C4F2040001607047000008B501F07FFCFFF777FEFFF7D5FE01F02DFA00F003F8FFF7AFFBFEE708B5DFF8660248F22401C4F20401096801F07001090901F0E1FD48F22400C4F20400006800F0700000090428E7
S3FD00000D9026D84FEA80008744F0BF00F008B800F00BB800F00EB800F011B800F014B8DFF8220201F0C5FD17E0DFF81A0201F0C0FD12E0DFF8160201F0BBFD0DE0DFF80E0201F0B6FD08E0DFF80A0201F0B1FD03E0DFF8020201F0ACFDDFF8FE0148F22401C4F20401096801F00F0101F0A1FD48F22400C4F20400006800F00F000E2853D84FEA80008744F0BF00F04EB800F04CB800F018B800F048B800F019B800F01CB800F01FB800F022B800F025B800F028B800F02BB800F038B800F02CB800F034B800F02DB8DFF8960101F072FD30E0DFF8920101F06DFD2BE0DFF88A0101F068FD26E0DFF8860101F063FD21E0DFF87E0101F05EFD1CE0DFF882
S3FD00000E887A0101F059FD17E0DFF8720101F054FD12E0DFF86E0101F04FFD0DE0DFF8660101F04AFD08E0DFF8620101F045FD03E0DFF85A0101F040FDDFF8560148F22401C4F20401096801F47041090B01F034FD48F22400C4F20400006800F47040000B001E002806D0401E002808D0401E00280AD00EE0DFF81E0101F01EFD0DE0DFF81A0101F019FD08E0DFF8120101F014FD03E0DFF80E0101F00FFD00F095F8DFF8060147F20001C4F20401096801F47041090B01F001FD47F20000C4F20400006800F47040000B092835D84FEA80008744F0BF00F030B800F010B800F02CB800F011B800F028B800F012B800F024B800F013B800F016B800F0E8
S3FD00000F8019B8DFF8AE0001F0DBFC1CE0DFF8A60001F0D6FC17E0DFF8A20001F0D1FC12E0DFF89A0001F0CCFC0DE0DFF8960001F0C7FC08E0DFF88E0001F0C2FC03E0DFF88A0001F0BDFCBDE808407047C0460AE5FF1F1AE5FF1F20E5FF1F26E5FF1F2CE5FF1F32E5FF1F38E5FF1F5EE5FF1F6EE5FF1F75E5FF1F7CE5FF1F83E5FF1F8AE5FF1F91E5FF1F99E5FF1FA1E5FF1FA9E5FF1FB1E5FF1FB9E5FF1FDFE5FF1FF1E5FF1F02E6FF1F13E6FF1F24E6FF1F63E6FF1F7AE6FF1F8CE6FF1F9FE6FF1FB2E6FF1FC5E6FF1FD8E6FF1FECE6FF1F000008B570210020C4F20200017003210720C4F20200017000210620C4F20200017000210520C4F2020055
S3FD00001078017000210420C4F20200017001210F20C4F202000170DFF8A00080470820C4F2020000780090DFF894000B21C4F2020109780A22C4F2020212780923C4F202031B7801F041FC03210720C4F20200017000210620C4F20200017000210520C4F20200017004210420C4F20200017001210F20C4F202000170DFF83C0080470820C4F2020000780090DFF834000B21C4F2020109780A22C4F2020212780923C4F202031B7801F010FC70210020C4F202000170BDE8084070478DF0FF1F08E7FF1F2DE7FF1FDFF8400085464FF000004FF000014FF000024FF000034FF000044FF000054FF000064FF000074FF000084FF000094FF0000A4FF054
S3FD00001170000B4FF0000C62B6FFF7E6FDFFF7FEBF70F9FF1F4EF61051CEF20001086840F00400086030BF70470FB400994EF60850CEF20000016004B07047000038B504463D2C03DDDFF8C60001F0C2FB201104EBD0604511281E002806D0401E00281ED0401E002836D04FE00122E10FC1EBC46001EBF06002FA00F14EF28020CEF2000001600122E10FC1EBC46001EBF06002FA00F14EF20010CEF20000016034E00122E10FC1EBC46001EBF06002FA00F14EF28420CEF2000001600122E10FC1EBC46001EBF06002FA00F14EF20410CEF20000016019E00122E10FC1EBC46001EBF06002FA00F14EF28820CEF2000001600122E10FC1EBC46001EB73
S3FD00001268F06002FA00F14EF20810CEF200000160BDE8384070474BE7FF1F00000FB470B506460D464CF20000C4F20700047806F00100002810D0E8B200F003002043C4B2DFF8C40301F048FB4CF20501C4F20701087840F00100087006F00200002811D0A800C0B200F00C002043C4B2DFF89C0301F032FB4CF20501C4F20701087840F00200087006F00400002811D02801C0B200F030002043C4B2DFF8740301F01CFB4CF20501C4F20701087840F00400087006F00800002811D0A801C0B200F0C0002043C4B2DFF84C0301F006FB4CF20501C4F20701087840F0080008704CF20000C4F2070004704CF20100C4F20700047806F01000002810D099
S3FD00001360E8B200F003002043C4B2DFF8140301F0E7FA4CF20501C4F20701087840F01000087006F02000002811D0A800C0B200F00C002043C4B2DFF8EC0201F0D1FA4CF20501C4F20701087840F02000087006F04000002811D02801C0B200F030002043C4B2DFF8C40201F0BBFA4CF20501C4F20701087840F04000087006F08000002811D0A801C0B200F0C0002043C4B2DFF89C0201F0A5FA4CF20501C4F20701087840F0800008704CF20100C4F2070004704CF20200C4F20700047806F48070002810D0E8B200F003002043C4B2DFF8600201F086FA4CF20601C4F20701087840F00100087006F40070002811D0A800C0B200F00C002043C4B28B
S3FD00001458DFF8380201F070FA4CF20601C4F20701087840F00200087006F48060002811D02801C0B200F030002043C4B2DFF8100201F05AFA4CF20601C4F20701087840F00400087006F40060002811D0A801C0B200F0C0002043C4B2DFF8E80101F044FA4CF20601C4F20701087840F0080008704CF20200C4F2070004704CF20300C4F20700047806F48050002810D0E8B200F003002043C4B2DFF8B00101F025FA4CF20601C4F20701087840F01000087006F40050002811D0A800C0B200F00C002043C4B2DFF8880101F00FFA4CF20601C4F20701087840F02000087006F48040002811D02801C0B200F030002043C4B2DFF8600101F0F9F94CF273
S3FD000015500601C4F20701087840F04000087006F40040002811D0A801C0B200F0C0002043C4B2DFF8380101F0E3F94CF20601C4F20701087840F0800008704CF20300C4F20700047006A801784CF20400C4F207000170DFF80C014CF20001C4F20701097801F0C6F9DFF8FC004CF20101C4F20701097801F0BDF9DFF8F0004CF20201C4F20701097801F0B4F9DFF8E0004CF20301C4F20701097801F0ABF9DFF8D4004CF20401C4F20701097801F0A2F9DFF8C4004CF20501C4F20701097801F099F9DFF8B8004CF20601C4F20701097801F090F9DFF8A8004CF20701C4F20701097801F087F9DFF89C004CF20801C4F20701097801F07EF9DFF88C001B
S3FD000016484CF20901C4F20701097801F075F9DFF880004CF20A01C4F20701097801F06CF9BDE8704004B0704783E7FF1FD8E7FF1F25E8FF1F71E8FF1FBEE8FF1F0EE9FF1F65E9FF1FB1E9FF1FFCE9FF1F48EAFF1F94EAFF1FD8EAFF1F1CEBFF1F69EBFF1FABEBFF1FFEEBFF1F53ECFF1F6CECFF1F81ECFF1F9AECFF1FAFECFF1FC8ECFF1FDDECFF1FF6ECFF1F0BEDFF1F24EDFF1F39EDFF1F10B54CF20500C4F20700007800F00100002807D04CF20501C4F20701087840F0010008704CF20500C4F20700007800F00200002807D04CF20501C4F20701087840F0040008704CF20500C4F20700007800F00400002807D04CF20501C4F20701087840F09B
S3FD00001740040008704CF20500C4F20700007800F00800002807D04CF20501C4F20701087840F0080008704CF20500C4F20700007800F01000002807D04CF20501C4F20701087840F0100008704CF20500C4F20700007800F02000002807D04CF20501C4F20701087840F0200008704CF20500C4F20700007800F04000002807D04CF20501C4F20701087840F0400008704CF20500C4F20700007800F08000002807D04CF20501C4F20701087840F0800008704CF20600C4F20700007800F00100002807D04CF20601C4F20701087840F0010008704CF20600C4F20700007800F00200002807D04CF20601C4F20701087840F0020008704CF20600C4F244
S3FD000018380700007800F00400002807D04CF20601C4F20701087840F0040008704CF20600C4F20700007800F00800002807D04CF20601C4F20701087840F0080008704CF20600C4F20700007800F01000002807D04CF20601C4F20701087840F0100008704CF20600C4F20700007800F02000002807D04CF20601C4F20701087840F0200008704CF20600C4F20700007800F04000002817D048F23801C4F20401086840F4805008604CF20601C4F20701087840F0400008704CF21001C4F20401086840F0807008604CF20600C4F20700007800F0800000283DD048F23801C4F20401086840F4805008604AF20000C4F2060000F075FE0446DFF8B6015E
S3FD00001930826EDFF8B201806E411EDFF8AA018166002A0DD0DFF89E01426EDFF89A01406E411CDFF892014166E0B21070107804E02046DFF8861100F071FF4CF20601C4F20701087840F0800008704CF21801C4F20401086840F0807008604CF20700C4F20700007800F00100002807D04CF20701C4F20701087840F0010008704CF20700C4F20700007800F00200002807D04CF20701C4F20701087840F0020008704CF20700C4F20700007800F00400002807D04CF20701C4F20701087840F0040008704CF20700C4F20700007800F00800002807D04CF20701C4F20701087840F0080008704CF20700C4F20700007800F01000002807D04CF2070136
S3FD00001A28C4F20701087840F0100008704CF20700C4F20700007800F02000002807D04CF20701C4F20701087840F0200008704CF20700C4F20700007800F04000002807D04CF20701C4F20701087840F0400008704CF20700C4F20700007800F08000002807D04CF20701C4F20701087840F0800008704CF20800C4F20700007800F08000002807D04CF20801C4F20701087840F0800008704CF20900C4F20700007800F08000002807D04CF20901C4F20701087840F080000870BDE810407047C046BCEFFF1F00F0FF1F00000FB42DE9F84F06469846DDF838B044F20600C4F20600007800F00C008008002811D144F20600C4F20600007800F010001D
S3FD00001B20002808D044F20600C4F20600007800F02000002801D00120A0E14FF28000C0F2FA20864201DD212098E10CA8007800280DD04CF2C060C0F22D00864205DB44F60000C0F2E810864201DD222086E10BA80078002802D001210BA80170B8F1010F02DBB8F1190F01DD412077E1BBF1180F02DBBBF1370F01DD42206FE196FBF8F0814648F28040C0F21E00814505DB40F60010C0F23D00814501DD43205EE196FBF8F00BFB00F0824646F60040C0F2DC20824505DB4EF20010C0F2F550824501DD45204BE144F20100C4F20600047804F0C3044CF2C060C0F22D0086420BDC0BA80078C00040F010000CA9097889000843C0B204430AE00BA88A
S3FD00001C180078C00040F020000CA9097889000843C0B2044344F20100C4F20600047041F2D020C0F21300864201DC002720E042F2A050C0F22600864201DC012718E044F64030C0F24C00864201DC022710E049F28060C0F29800864201DC032708E042F60050C0F23110864201DC042700E0052744F20000C4F20600047804F00304F800C0B200F0380040F08000C4B244F20000C4F2060004700CA8007800281BD000250AE044F20600C4F20600007800F00200002805D16D1C2DB242F210708542F0DB44F20600C4F20600007800F00200002801D12320C6E000250BE044F20600C4F20600007800F00C008008022804D06D1C2DB2B5F5FA6FF0DB5E
S3FD00001D1044F20600C4F20600007800F00C008008022801D01A20A9E044F20501C4F20601087840F02000087044F20400C4F20600047804F0E004A8F10100C0B2C0B200F01F002043C4B244F20400C4F20600047044F20500C4F20600047804F0E004ABF11800C0B2C0B200F01F0040F04000C0B2044344F20500C4F20600047000250AE044F20600C4F20600007800F02000002804D16D1C2DB2B5F5FA6FF1DB44F20600C4F20600007800F02000002801D116205CE000250AE044F20600C4F20600007800F04000002804D16D1C2DB2B5F5FA6FF1DB44F20600C4F20600007800F04000002801D1442041E044F20400C4F20600007800F01F00401C98
S3FD00001E08C1B200A8417044F20500C4F20600007800F01F001830C1B200A8017044F20001C4F20601087800F03F00087000250BE044F20600C4F20600007800F00C008008032804D06D1C2DB2B5F5FA6FF0DB44F20600C4F20600007800F00C008008032801D01B2006E000A8017800A8407896FBF0F04843BDE8F84F04B070470FB478B444F20600C4F20600007800F00C00800802281AD144F20600C4F20600007800F01000002811D144F20600C4F20600007800F02000002808D044F20100C4F20600007800F00200002801D0072055E000240AE044F20600C4F20600007800F04000002804D1641C24B2B4F5FA6FF1DB44F20600C4F20600007882
S3FD00001F0000F04000002801D144203AE044F20400C4F20600007800F01F00401CC5B244F20500C4F20600007800F01F001830C6B244F20001C4F20601087800F03F00087000240BE044F20600C4F20600007800F00C008008032804D0641C24B2B4F5FA6FF0DB44F20600C4F20600007800F00C008008032801D01B2003E0049890FBF5F0704378BC04B0704744F20600C4F20600007800F00C008008002813D144F20600C4F20600007800F0100000280AD044F20600C4F20600007800F02000002801D10320F6E044F20600C4F20600007800F00C008008032813D144F20600C4F20600007800F0100000280AD144F20600C4F20600007800F0200016
S3FD00001FF8002801D00820D8E044F20600C4F20600007800F00C00800802281CD144F20600C4F20600007800F01000002813D144F20600C4F20600007800F0200000280AD044F20100C4F20600007800F00200002801D10720B1E044F20600C4F20600007800F00C00800802281CD144F20600C4F20600007800F01000002813D144F20600C4F20600007800F0200000280AD144F20100C4F20600007800F00200002801D105208AE044F20600C4F20600007800F00C008008022813D144F20600C4F20600007800F0100000280AD144F20100C4F20600007800F00200002801D006206CE044F20600C4F20600007800F00C00800801281CD144F2060087
S3FD000020F0C4F20600007800F01000002813D044F20600C4F20600007800F0200000280AD144F20100C4F20600007800F00200002801D0012045E044F20600C4F20600007800F00C00800801281CD144F20600C4F20600007800F01000002813D044F20600C4F20600007800F0200000280AD144F20100C4F20600007800F00200002801D102201EE044F20600C4F20600007800F00C008008002813D144F20600C4F20600007800F0100000280AD144F20600C4F20600007800F02000002801D1042000E00020704708B54FF20100C4F20700007800F02000002803D0DFF87E0200F0B8FB4FF20100C4F20700007800F01000002803D0DFF86A0200F06F
S3FD000021E8ABFB4FF20100C4F20700007800F00800002803D0DFF8520200F09EFB4FF20100C4F20700007800F00400002803D0DFF83E0200F091FB4FF20100C4F20700007800F00200002803D0DFF8260200F084FB4FF20100C4F20700007800F00100002803D0DFF8120200F077FB4FF20000C4F20700007800F08000002803D0DFF8FA0100F06AFB4FF20000C4F20700007800F04000002803D0DFF8E60100F05DFB4FF20000C4F20700007800F02000002803D0DFF8CE0100F050FB4FF20000C4F20700007800F00400002803D0DFF8BA0100F043FB4FF20000C4F20700007800F00200002803D0DFF8A20100F036FB4FF20000C4F20700007800F020
S3FD000022E00100002800F08D80DFF88A0100F028FBDFF886014EF20001C4F20701097800F01FFBDFF87A014EF20101C4F20701097800F016FBDFF86A014EF20201C4F20701097800F00DFBDFF85E014EF20301C4F20701097800F004FB4EF20100C4F20700007800F00700032803D1DFF83E0100F0F7FA4EF20100C4F20700007800F0070004280CD14EF20200C4F20700007800F00700002803D1DFF8160100F0E1FA4EF20100C4F20700007800F0070004280CD14EF20200C4F20700007800F00700012803D1DFF8EE0000F0CBFA4EF20100C4F20700007800F0070004280CD14EF20200C4F20700007800F00700022803D1DFF8C60000F0B5FA4EF290
S3FD000023D80100C4F20700007800F0070004280CD14EF20200C4F20700007800F00700032803D1DFF89E0000F09FFA4FF20000C4F207000078002818D14FF20100C4F207000078002811D1DFF87E004FF20001C4F20701097800F088FADFF86E004FF20101C4F20701097800F07FFABDE808407047C0464EEDFF1F71EDFF1F7FEDFF1F8DEDFF1F9DEDFF1FB6EDFF1FC2EDFF1FD2EDFF1FE6EDFF1FFBEDFF1F10EEFF1F2AEEFF1F5BEEFF1F7BEEFF1F9BEEFF1FBDEEFF1FDDEEFF1FF1EEFF1F07EFFF1F1DEFFF1F33EFFF1F49EFFF1F6FEFFF1F000008B508214EF20000C4F20700017003214EF20100C4F207000170FEF75FFEBDE80840704708B54EF27B
S3FD000024D00100C4F20700007800F0E00040F00400C1B24EF20100C4F20700017001214EF20200C4F207000170FEF744FEBDE808407047000008B54EF20101C4F20701087840F080000870DFF818004EF20101C4F20701097800F00CFABDE808407047C04695EFFF1F2DE9F8430446894690464AF20000C4F20600844208D148F23401C4F20401086840F4806008601CE04BF20000C4F20600844208D148F23401C4F20401086840F4006008600DE04CF20000C4F20600844207D148F23401C4F20401086840F480500860E07800F0F300E0700020A0704FF47A7009FB00F14FEA081091FBF0F085B221786FF01F000840C6B205F4F8500012C0B2C0B2ED
S3FD000025C800F01F003043C0B22070E8B260704FF4FA4009FB00F14FEA081091FBF0F16801081A87B2A17A6FF01F000840C6B2F8B2C0B200F01F003043C0B2A072E07840F00C00E070BDE8F8437047000010B50446207900F020000028FAD0E07940B2BDE8104070470FB418B40446207900F080000028FAD003A890F90000C0B2E07118BC04B0704708B500F00DF842F20002C4F2050211884FF6FE7008401080BDE808407047000072B64CF2205142F20E00C4F2050001804DF6281142F20E00C4F20500018062B6704700000FB410B5029C20780A2806D14BF20000C4F206000D21FFF7C1FF4BF20000C4F20600217849B2FFF7B9FFBDE8104004B07F
S3FD000026C0704700000FB410B5029C13E020780A2806D14BF20000C4F206000D21FFF7A6FF2146641C4BF20000C4F20600097849B2FFF79CFF20780028E8D1BDE8104004B07047000008B54BF20000C4F20600FFF781FFC0B2BDE8084070470000816942690162816AC3691140591A41620263704770B504460E461546FFF7F0FF012D04BFE06960622068A169A36B04F124029847C0B2022804BF002161620EB1616A316020B96169606A081860610020BDE870407047000038B50D46026A81690446521A0DD042620068E36B04F1240298470DB1616A296038B96169606A081860612046FFF7BCFF0020BDE83840704710B500214162017B044609B9CD
S3FD000027B8C17921B90020C043BDE810407047427A012A03D0417911F0010108D101210173002141620020C043BDE810407047032A0BD3511E4172032A04BFC16A4162D11E4018C07BBDE8104070470221417200210A46FFF791FFC1B209B9606A80B9012904D1012020730020606204E0002101206172E07261620020C043BDE810407047216A401E6062481C20620878BDE810407047000070B5054600204862087B0C46CA7900B922B90020C043BDE870407047487A40B9487910F0020004D0012048722046FFF74FFF607A012808D001202073002060620020C043BDE870407047A079022805D0216AA069E269081A82420DD1204600210026FFF790
S3FD000028B061FF38B10120207300206662C043BDE870407047606A216A401E6062481C20620D70A079022812D008B10A2D0DD1204600210026FFF746FF38B10120207300206662C043BDE870407047002060622846BDE8704070470000CBB2521C05E010F8011B994201D1401E7047521EF7D10020704700000FB410B5012004AA012400F027FC00B100242046BDE8104004B070470FB408B50020009002AB23F00303DFF81400029A00211B1D00F04AFABDE8084004B07047252900004FF0FF3210F8011B521C0029FAD11046704700008446521C0CE011F8013BDBB20CF8013B33B9002101E00CF8011B521EFBD17047521EF0D170470000C9B203E074
S3FD000029A88A4201D1401E704710F8012B002AF7D1002918BF002000D1401E70472DE9F84384B001230DF10008154688F80030002288F8012088F8022088F8032088F80420471C3C780E4602920392252C0BD188F8054000AA03CA03C503CA03C504B0781CBDE8F84370474FF0020901202B2C08DC12DA232C26DC202C24DB10D0232C16D020E0302C1EDC2D2C1CDB02D0302C11D018E088F8002016E088F8013013E098F801C0BCF1010F18BF88F801900BE088F8033008E098F800C0BCF1000F18BF88F8009000E0002010B17F1C3C78CDE72A2C0FD10868001D0860001F01680291002904DA002088F80000484202907F1C3C7810E04FF00A0908E0D4
S3FD00002AA00298A4F1300100FB09F07F1C08183C780290204600F03AFB0028F1D1029940F2FD1081420CDDFF2000AA88F8050003CA03C503CA03C504B0781CBDE8F84370472E2C23D17F1C3C78012088F802002A2C0DD13068001D3060001F006803900028BCBF002088F802007F1C3C780EE00A2607E00398A4F1300170437F1C08183C780390204600F002FB0028F2D10121B4F1680002D0001F04D007E0022088F8040004E0032088F8040000E0002109B17F1C3C7888F80540692C0ADC632C05DB30D0642C14D0692C12D03CE0582C0FD039E06E2C01DC39D035E0A4F16F00092831D8DFE800F00513303029300530300598F8020010B901200390B5
S3FD00002B9827E098F80000022804BF012088F800001FE0782088F80500012088F80300032088F804000820039013E098F8020010B998F8040068B1FF2088F8050009E098F8040030B1FF2088F8050002E0FF2088F8050000AA03CA03C503CA03C5781C04B0BDE8F843704700000FB42DE9F00F9DF828A083469DF82B909DF82D800C9F0D9B00264D1E0A240022DC462E70F0B9EBB9B9F1000F02D0B8F16F0F17D0B8F1640F02D0B8F1690F0CD19DF82900022803D16D1E2020287004E0012802D16D1E2B2028702846BDE8F00F04B07047B8F1690F09DC1CDAB8F1580F01DC28D02BE0B8F1640F14D027E0B8F16F0F05DC02BF082400208DF829001EE02A
S3FD00002C90B8F1780F1BDCB8F1750F18DB0ED0B8F1780F10D013E00A24002810DAB0F1004F1CBFC0F1000BDC46012608E000200A248DF8290003E000208DF829001024BCFBF4F004FB10C0BCFBF4FC0A2838BF303004D3B8F1780F0CBF573037306D1E521C2870BCF1000FEAD1082C09D1B9F1000F06D02878302803D06D1E30202870521CBAF1020F0BD13B4616B99DF8290000B17B1E102C03D1B9F1000F00D09B1E481B191840F2FD108142C8BF002054DC981A302700282FDDC10800F013806D1E05F8017905F8017905F8017905F8017905F8017905F8017905F801792F70491E7FF4EDAF10F0040F00F008806D1E05F8017905F8017905F8017906
S3FD00002D882F7010F0020F00F004806D1E05F801792F7010F0010F00F002806D1E2F70102C0BD1B9F1000F08D0BBF1000F05D0681E80F80080AD1E302028701EB16D1E2D2028700CE09DF82900012803D16D1E2B20287004E0022802D16D1E202028702846BDE8F00F04B070470FB42DE9F04FADF5077D8246202002AC894693466070002581E158462521FFF7C9FD0646A8B95846FFF7A6FD0246AD18002A00F0798148465946D047002840F073810DF5077D4FF0FF30BDE8F04F04B07047A0EB0B02AD185AB148465946D04738B90DF5077D4FF0FF30BDE8F04F04B07047304693A903AAFFF7ACFD8346607A6E2815DC80F29480582804DC44DA252899
S3FD00002E8000F0A980ADE0692800F3AB806328C0F2A88000F09680642810D069280ED0A0E0782800F39E80732805DB52D075282BD0782829D095E06F2826D092E0207A032803BF9399091D939193991CBF091D9391091F0F68022801D13FB202E0012800D17FB2059906980091019003A80CC887A93846FFF785FE0746002800F0728086A90331A1EB000885E0217A032903BF9398001D939093981CBF001D9390001F0768022901D1BFB202E0012900D1FFB2059906980091019003A80CC887A93846FFF75FFE074600284CD086A90331A1EB000860E09398001D9390001F07680FB9DFF8C671E07948B1A07917F8018B002851D006988045C8BF804670
S3FD00002F784CE0A07958B1DDF81880384600214246FFF7BEFC002841D0A0EB07083EE03846FFF7E6FC804639E09398001D9390001F0168207A28B1801E05D0401E08BF0D60A9E00D60A7E00D80A5E0939807AF001D9390001F00684FF0010820751EE0252007AF20754FF0010818E03046FFF7C0FC0246AD185AB148463146D04738B90DF5077D4FF0FF30BDE8F04F04B070470DF5077D2846BDE8F04F04B070472079464600284FD002280CBF30202020607038782B2803D02D2801D0202812D1607830280FD1484639460122D04738B90DF5077D4FF0FF30BDE8F04F04B070477F1CA8F10108207902282AD1607A612801D0412825D1B8F1020FB8BF51
S3FD000030704FF0FF3051DB484639460222D04738B90DF5077D4FF0FF30BDE8F04F04B07047A8F10208BF1C0EE002A9484601310122D04738B90DF5077D4FF0FF30BDE8F04F04B07047761C05988642EDDBB8F1000F0CD0484639464246D04738B90DF5077D4FF0FF30BDE8F04F04B070472079A8B920270DF108080EE04846414601222770D04738B90DF5077D4FF0FF30BDE8F04F04B07047761C05988642EDDBAD199BF8000000287FF479AE28460DF5077DBDE8F04F04B0704788F0FF1F00000121B0F5807F98BF0021002911BF0020DFF80810085C00F02000704708340000F8B51746002516680C460CE0FFF7D4FAC0B220700D2801D00A2802D161
S3FD00003168681C386003E06D1C641CB542F0D30020BDE8F840704700002DE9F04117688846012F06D84046FFF77FFA0020BDE8F04170470026DFF8425000240CE0284608EB06015022FFF7E6FB284685F85040FFF785FA503F5036502FF0D857B1284608EB06013A46FFF7D6FB0020E8552846FFF775FA0020BDE8F041704714F1FF1F00000020704780EA010C0CF0004C0028BCBFC0F100000CF1010C0029B8BFC1F1000100F0ED8088423CBF4FEA00014FF00000C0F0E5804FF01C024FEA1013B1EB133FDCBFA2F110024FEA1343B1EB131FDCBFA2F108024FEA13239942DCBFA2F104024FEA131300FA02F0C1F10001001802EB42024FEA82027A44A9
S3FD00003260974651EB430338BFA3EB0103404151EB430338BFA3EB0103404151EB430338BFA3EB0103404151EB430338BFA3EB0103404151EB430338BFA3EB0103404151EB430338BFA3EB0103404151EB430338BFA3EB0103404151EB430338BFA3EB0103404151EB430338BFA3EB0103404151EB430338BFA3EB0103404151EB430338BFA3EB0103404151EB430338BFA3EB0103404151EB430338BFA3EB0103404151EB430338BFA3EB0103404151EB430338BFA3EB0103404151EB430338BFA3EB0103404151EB430338BFA3EB0103404151EB430338BFA3EB0103404151EB430338BFA3EB0103404151EB430338BFA3EB0103404151EB430338BF2A
S3FD00003358A3EB0103404151EB430338BFA3EB0103404151EB430338BFA3EB0103404151EB430338BFA3EB0103404151EB430338BFA3EB0103404151EB430338BFA3EB0103404151EB430338BFA3EB0103404151EB430338BFA3EB0103404151EB430338BFA3EB0103404151EB430338BFA3EB0103404151EB430338BFA3EB0103404151EB430338BFA3EB010340414FEA03011CF0004318BFC0F100001CF0010318BFC1F1000170474FEA00014FF0000070470000404040404040404040414141414140404040404040404040404040404040404005020202020202020202020202020202A0A0A0A0A0A0A0A0A0A00202020202020290909090909010E5
S3C50000345010101010101010101010101010101010101010020202020202888888888888080808080808080808080808080808080808080802020202400000000000000000000000000000000000000000000000000000000000000000000000000000000000000000000000000000000000000000000000000000000000000000000000000000000000000000000000000000000000000000000000000000000000000000000000000000000000000000000000000000000000000000000000000000000062
S3FD000035100D0A2053656E6420616E792063686172616374657220746F20676F20696E746F206C6F7720706F776572206D6F6465204C4C53200D0A000D0A20576F6B652075702066726F6D204C4C5320212121200D0A000D0A2053656E6420616E792063686172616374657220746F20676F20696E746F206C6F7720706F776572206D6F646520564C4C5378200D0A0000040000000000000000000000000000000000000000000000000000000000000000000000000000000000000000000000000000000000000000000000000000000A2A2A2A2A64656661756C745F69737220656E7465726564206F6E20766563746F722025642A2A2A2A2A0D0AD5
S3FD000036080A000A2046414D5F4944203D2030782578000A4B31302D000A4B32302D000A4B33302D000A4B34302D000A4B36302D000A556E7265636F676E697A6564204B696E657469732066616D696C79206465766963652E0A000A2050494E5F4944203D203078257800333270696E0A00343870696E0A00363470696E0A00383070696E0A00383170696E0A0031303070696E0A0031303470696E0A0031343470696E0A0031393670696E0A0032353670696E0A000A556E7265636F676E697A6564204B696E65746973207061636B61676520636F6465202E0A000A205245565F4944203D2030782578200A0053696C69636F6E2072657620312E3082
S3FD000037000A0053696C69636F6E2072657620312E310A0053696C69636F6E2072657620312E320A000A546869732076657273696F6E206F6620736F66747761726520646F65736E2774207265636F676E697A6520746865207265766973696F6E20636F64652E000A2052414D5F53495A455F4944203D2030782578200A0038206B4279746573206F662052414D0A0A003136206B4279746573206F662052414D0A0A003332206B4279746573206F662052414D0A0A003634206B4279746573206F662052414D0A0A003936206B4279746573206F662052414D0A0A00313238206B4279746573206F662052414D0A0A0020455252212120556E64656602
S3FD000037F8696E65642052414D2073697A650A0A00466C61736820706172616D657465722076657273696F6E2025642E25642E25642E25640A00466C6173682076657273696F6E2049442025642E25642E25642E25640A000A4552522120496E76616C6964204952512076616C75652070617373656420746F20656E61626C65206972712066756E6374696F6E210A00204C4C575520636F6E666967757265642070696E7320505445312F55415254315F52582F493243315F53434C202F535049315F53494E20746F20626520616E204C4C57552077616B65757020736F75726365200A00204C4C575520636F6E666967757265642070696E73205054CF
S3FD000038F045322F535049315F53434B2F53444843305F44434C4B20746F20626520616E204C4C57552077616B65757020736F75726365200A00204C4C575520636F6E666967757265642070696E7320505445342F535049315F504353302F53444843305F443320746F20626520616E204C4C57552077616B65757020736F75726365200A00204C4C575520636F6E666967757265642070696E7320505441342F46544D305F4348312F4E4D492F455A505F435320746F20626520616E204C4C57552077616B65757020736F75726365200A00204C4C575520636F6E666967757265642070696E732050544131332F46544D315F434831202F46544D31B7
S3FD000039E85F51445F50484220746F20626520616E204C4C57552077616B65757020736F75726365200A00204C4C575520636F6E666967757265642070696E7320505442302F493243305F53434C2F46544D315F4348302F46544D315F51445F50484120746F20626520616E204C4C57552077616B65757020736F75726365200A00204C4C575520636F6E666967757265642070696E7320505443312F55415254315F5254532F46544D305F43483020746F20626520616E204C4C57552077616B65757020736F75726365200A00204C4C575520636F6E666967757265642070696E7320505443332F55415254315F52582F46544D305F43483220746FA1
S3FD00003AE020626520616E204C4C57552077616B65757020736F75726365200A00204C4C575520636F6E666967757265642070696E7320505443342F535049305F504353302F46544D305F43483320746F20626520616E204C4C57552077616B65757020736F75726365200A00204C4C575520636F6E666967757265642070696E7320505443352F535049305F53434B2F493253305F5258443020746F20626520616E204C4C57552077616B65757020736F75726365200A00204C4C575520636F6E666967757265642070696E7320505443362F504442305F455854524720746F20626520616E204C4C57552077616B65757020736F75726365200A0021
S3FD00003BD8204C4C575520636F6E666967757265642070696E732050544331312F493253305F5258443120746F20626520616E204C4C57552077616B65757020736F75726365200A00204C4C575520636F6E666967757265642070696E7320505444302F535049305F504353302F55415254325F52545320746F20626520616E204C4C57552077616B65757020736F75726365200A00204C4C575520636F6E666967757265642070696E7320505444322F55415254325F525820746F20626520616E204C4C57552077616B65757020736F75726365200A00204C4C575520636F6E666967757265642070696E7320505444342F55415254305F5254532F51
S3FD00003CD046544D305F4348342F45574D5F494E20746F20626520616E204C4C57552077616B65757020736F75726365200A00204C4C575520636F6E666967757265642070696E7320505444362F55415254305F52582F46544D305F4348362F46544D305F464C543020746F20626520616E204C4C57552077616B65757020736F75726365200A004C4C5755205045312020203D203078253032582C20202020004C4C5755205045322020203D203078253032580A004C4C5755205045332020203D203078253032582C20202020004C4C5755205045342020203D203078253032580A004C4C5755204D45202020203D203078253032582C202020200072
S3FD00003DC84C4C5755204631202020203D203078253032580A004C4C5755204632202020203D203078253032582C20202020004C4C5755204633202020203D203078253032580A004C4C57552046494C5431203D203078253032582C20202020004C4C57552046494C5432203D203078253032580A004C4C5755205253542020203D203078253032580A0053746F70204D6F64652041636B6E6F776C65646765204572726F722052657365740A00457A506F72742052657365740A004D444D2D41502052657365740A00536F6674776172652052657365740A00436F7265204C6F636B7570204576656E742052657365740A004A544147205265736574E4
S3FD00003EC00A00506F7765722D6F6E2052657365740A0045787465726E616C2050696E2052657365740A005761746368646F6728434F50292052657365740A004C6F7373206F6620436C6F636B2052657365740A004C6F772D766F6C74616765204465746563742052657365740A005B6F75745352535D57616B65757020626974207365742066726F6D206C6F7720706F776572206D6F646520657869740A005B6F75745352535D534D435F504D50524F542020203D202523303258200D0A005B6F75745352535D534D435F504D4354524C2020203D202523303258200D0A005B6F75745352535D534D435F564C4C534354524C2020203D2025233032D1
S3FD00003FB858200D0A005B6F75745352535D534D435F504D535441542020203D202523303258200D0A005B6F75745352535D204C4C532065786974200A005B6F75745352535D20564C4C53302065786974200A005B6F75745352535D20564C4C53312065786974200A005B6F75745352535D20564C4C53322065786974200A005B6F75745352535D20564C4C53332065786974200A005B6F75745352535D52434D5F53525330206973205A45524F2020203D202523303258200D0A005B6F75745352535D52434D5F53525331206973205A45524F2020203D202523303258200D0A005B656E61626C655F6C707775695D534D435F504D4354524C20202028
S3FD000040B03D202523303258200D0A0000000000000001000200000000000000000000000000000000C9EFFF1F01000000C9EFFF1F00000000000000000000000000000000000000004D31000081310000E93100000100000000020002000000000000000000000000000000000DF0FF1F010000000DF0FF1F00000000000000000000000000000000000000004D31000081310000E931000002000000000200020000000000000000000000000000000051F0FF1F0100000051F0FF1F00000000000000000000000000000000000000004D31000081310000E93100000000000080210020C4F2020001700020C4F20200007800F080000028F7D070479D
S30D000041A8000000000000000009
S7050000113CAD
