S0030000FC
S3FD00000000501F00206D0A0000110400001104000011040000110400001104000011040000110400001104000011040000110400001104000011040000110400001104000011040000110400001104000011040000110400001104000011040000110400001104000011040000110400001104000011040000110400001104000011040000110400001104000011040000110400001104000011040000110400001104000011040000110400001104000011040000110400001104000011040000110400001104000011040000110400002931000011040000110400001104000011040000110400001104000011040000110400001104000011040000CB
S3FD000000F8FFFFFFFFFFFFFFFFFFFFFFFFFFFFFFFFFFFFFFFFFFFFFFFFFFFFFFFFFFFFFFFFFFFFFFFFFFFFFFFFFFFFFFFFFFFFFFFFFFFFFFFFFFFFFFFFFFFFFFFFFFFFFFFFFFFFFFFFFFFFFFFFFFFFFFFFFFFFFFFFFFFFFFFFFFFFFFFFFFFFFFFFFFFFFFFFFFFFFFFFFFFFFFFFFFFFFFFFFFFFFFFFFFFFFFFFFFFFFFFFFFFFFFFFFFFFFFFFFFFFFFFFFFFFFFFFFFFFFFFFFFFFFFFFFFFFFFFFFFFFFFFFFFFFFFFFFFFFFFFFFFFFFFFFFFFFFFFFFFFFFFFFFFFFFFFFFFFFFFFFFFFFFFFFFFFFFFFFFFFFFFFFFFFFFFFFFFFFFFFFFFFFFFFFFFFFFFFFFFFFFFFFFFFFFFFFFFFFFFFFFFFFFFFFFFFFFFFFFFFFFFFFFFFFFFFFFFFFFFFFFFFFFFFFFFFFFFFF02
S3FD000001F0FFFFFFFFFFFFFFFFFFFFFFFFFFFFFFFFFFFFFFFFFFFFFFFFFFFFFFFFFFFFFFFFFFFFFFFFFFFFFFFFFFFFFFFFFFFFFFFFFFFFFFFFFFFFFFFFFFFFFFFFFFFFFFFFFFFFFFFFFFFFFFFFFFFFFFFFFFFFFFFFFFFFFFFFFFFFFFFFFFFFFFFFFFFFFFFFFFFFFFFFFFFFFFFFFFFFFFFFFFFFFFFFFFFFFFFFFFFFFFFFFFFFFFFFFFFFFFFFFFFFFFFFFFFFFFFFFFFFFFFFFFFFFFFFFFFFFFFFFFFFFFFFFFFFFFFFFFFFFFFFFFFFFFFFFFFFFFFFFFFFFFFFFFFFFFFFFFFFFFFFFFFFFFFFFFFFFFFFFFFFFFFFFFFFFFFFFFFFFFFFFFFFFFFFFFFFFFFFFFFFFFFFFFFFFFFFFFFFFFFFFFFFFFFFFFFFFFFFFFFFFFFFFFFFFFFFFFFFFFFFFFFFFFFFFFFFFFFF09
S3FD000002E8FFFFFFFFFFFFFFFFFFFFFFFFFFFFFFFFFFFFFFFFFFFFFFFFFFFFFFFFFFFFFFFFFFFFFFFFFFFFFFFFFFFFFFFFFFFFFFFFFFFFFFFFFFFFFFFFFFFFFFFFFFFFFFFFFFFFFFFFFFFFFFFFFFFFFFFFFFFFFFFFFFFFFFFFFFFFFFFFFFFFFFFFFFFFFFFFFFFFFFFFFFFFFFFFFFFFFFFFFFFFFFFFFFFFFFFFFFFFFFFFFFFFFFFFFFFFFFFFFFFFFFFFFFFFFFFFFFFFFFFFFFFFFFFFFFFFFFFFFFFFFFFFFFFFFFFFFFFFFFFFFFFFFFFFFFFFFFFFFFFFFFFFFFFFFFFFFFFFFFFFFFFFFFFFFFFFFFFFFFFFFFFFFFFFFFFFFFFFFFFFFFFFFFFFFFFFFFFFFFFFFFFFFFFFFFFFFFFFFFFFFFFFFFFFFFFFFFFFFFFFFFFFFFFFFFFFFFFFFFFFFFFFFFFFFFFFFFFF10
S3FD000003E0FFFFFFFFFFFFFFFFFFFFFFFFFFFFFFFFFFFFFFFFFFFFFFFFFFFFFFFFFFFFFFFFFFFFFFFFFFFFFFFFFFFFFFFFFEFFFFFF08B5DFF818004EF60451CEF20001097805F0F6F8BDE808407047C04610E4FF1F08B582B048F23801C4F20401086840F4785008604DF20200C4F20700007800F00800002807D04DF20201C4F20701087840F0080008704FF4803148F24400C4F2040001604DF20200C4F20700007800F00800002807D04DF20201C4F20701087840F008000870182000900120019041F20020C0F27A0000210122042300F078FBDFF860110860DFF85C010068B0F5807F00DAFEE7DFF84C0100684FF47A7105F0FBFCDFF844110860C2
S3FD000004D8DFF83C01016848F24400C4F20400006800F07040000F401CB1FBF0F1DFF824010160DFF81C01016848F24400C4F20400006800F07060000E401CB1FBF0F1DFF80801016000F082F800F090F84BF20001C4F206014AF20000C4F2060081420DD14FF440714CF21800C4F2040001604FF440714CF21C00C4F2040001604BF20001C4F206014BF20000C4F2060081420DD14FF440714DF20000C4F2040001604FF440714DF20400C4F2040001604BF20001C4F206014CF20000C4F2060081420DD14FF440714CF20C00C4F2040001604FF440714CF20800C4F2040001604BF20001C4F206014AF20000C4F20600814209D04BF20001C4F20601D8
S3FD000005D04BF20000C4F2060081420BD14BF20000C4F20600DFF8341009684FF4E13200F01BFE0AE04BF20000C4F20600DFF8201009684FF4E13200F00FFE02B0BDE808407047C04694EFFF1F90EFFF1F8CEFFF1F88EFFF1F48F20401C4F20401086840F4805008604FF4E06149F21800C4F204000160704748F20402C4F2040211686FF0E0000840106048F20401C4F20401086840F0400008604FF4A8614BF20C00C4F2040001607047000008B500F055FE01F07DFCFFF7D5FE00F055FC00F003F802F0F9FDFEE708B5DFF8660248F22401C4F20401096801F07001090904F0B1FF48F22400C4F20400006800F070000009042826D84FEA8000874445
S3FD000006C8F0BF00F008B800F00BB800F00EB800F011B800F014B8DFF8220204F095FF17E0DFF81A0204F090FF12E0DFF8160204F08BFF0DE0DFF80E0204F086FF08E0DFF80A0204F081FF03E0DFF8020204F07CFFDFF8FE0148F22401C4F20401096801F00F0104F071FF48F22400C4F20400006800F00F000E2853D84FEA80008744F0BF00F04EB800F04CB800F018B800F048B800F019B800F01CB800F01FB800F022B800F025B800F028B800F02BB800F038B800F02CB800F034B800F02DB8DFF8960104F042FF30E0DFF8920104F03DFF2BE0DFF88A0104F038FF26E0DFF8860104F033FF21E0DFF87E0104F02EFF1CE0DFF87A0104F029FF17E049
S3FD000007C0DFF8720104F024FF12E0DFF86E0104F01FFF0DE0DFF8660104F01AFF08E0DFF8620104F015FF03E0DFF85A0104F010FFDFF8560148F22401C4F20401096801F47041090B04F004FF48F22400C4F20400006800F47040000B001E002806D0401E002808D0401E00280AD00EE0DFF81E0104F0EEFE0DE0DFF81A0104F0E9FE08E0DFF8120104F0E4FE03E0DFF80E0104F0DFFE00F095F8DFF8060147F20001C4F20401096801F47041090B04F0D1FE47F20000C4F20400006800F47040000B092835D84FEA80008744F0BF00F030B800F010B800F02CB800F011B800F028B800F012B800F024B800F013B800F016B800F019B8DFF8AE0004F004
S3FD000008B8ABFE1CE0DFF8A60004F0A6FE17E0DFF8A20004F0A1FE12E0DFF89A0004F09CFE0DE0DFF8960004F097FE08E0DFF88E0004F092FE03E0DFF88A0004F08DFEBDE808407047C0463EE4FF1F4EE4FF1F54E4FF1F5AE4FF1F60E4FF1F66E4FF1F6CE4FF1F92E4FF1FA2E4FF1FA9E4FF1FB0E4FF1FB7E4FF1FBEE4FF1FC5E4FF1FCDE4FF1FD5E4FF1FDDE4FF1FE5E4FF1FEDE4FF1F13E5FF1F25E5FF1F36E5FF1F47E5FF1F58E5FF1F97E5FF1FAEE5FF1FC0E5FF1FD3E5FF1FE6E5FF1FF9E5FF1F0CE6FF1F20E6FF1F000008B570210020C4F20200017003210720C4F20200017000210620C4F20200017000210520C4F20200017000210420C4F2CB
S3FD000009B00200017001210F20C4F202000170DFF8A00080470820C4F2020000780090DFF894000B21C4F2020109780A22C4F2020212780923C4F202031B7804F011FE03210720C4F20200017000210620C4F20200017000210520C4F20200017004210420C4F20200017001210F20C4F202000170DFF83C0080470820C4F2020000780090DFF834000B21C4F2020109780A22C4F2020212780923C4F202031B7804F0E0FD70210020C4F202000170BDE80840704765EFFF1F3CE6FF1F61E6FF1FDFF8400085464FF000004FF000014FF000024FF000034FF000044FF000054FF000064FF000074FF000084FF000094FF0000A4FF0000B4FF0000C62B63B
S3FD00000AA8FFF7E6FDFFF7FEBF501F00200FB400994EF60850CEF20000016004B07047000038B504463D2C03DDDFF8C60004F09CFD201104EBD0604511281E002806D0401E00281ED0401E002836D04FE00122E10FC1EBC46001EBF06002FA00F14EF28020CEF2000001600122E10FC1EBC46001EBF06002FA00F14EF20010CEF20000016034E00122E10FC1EBC46001EBF06002FA00F14EF28420CEF2000001600122E10FC1EBC46001EBF06002FA00F14EF20410CEF20000016019E00122E10FC1EBC46001EBF06002FA00F14EF28820CEF2000001600122E10FC1EBC46001EBF06002FA00F14EF20810CEF200000160BDE8384070477FE6FF1F0000D4
S3FD00000BA00FB42DE9F84F06469846DDF838B044F20600C4F20600007800F00C008008002811D144F20600C4F20600007800F01000002808D044F20600C4F20600007800F02000002801D00120A0E14FF28000C0F2FA20864201DD212098E10CA8007800280DD04CF2C060C0F22D00864205DB44F60000C0F2E810864201DD222086E10BA80078002802D001210BA80170B8F1010F02DBB8F1190F01DD412077E1BBF1180F02DBBBF1370F01DD42206FE196FBF8F0814648F28040C0F21E00814505DB40F60010C0F23D00814501DD43205EE196FBF8F00BFB00F0824646F60040C0F2DC20824505DB4EF20010C0F2F550824501DD45204BE144F201000F
S3FD00000C98C4F20600047804F0C3044CF2C060C0F22D0086420BDC0BA80078C00040F010000CA9097889000843C0B204430AE00BA80078C00040F020000CA9097889000843C0B2044344F20100C4F20600047041F2D020C0F21300864201DC002720E042F2A050C0F22600864201DC012718E044F64030C0F24C00864201DC022710E049F28060C0F29800864201DC032708E042F60050C0F23110864201DC042700E0052744F20000C4F20600047804F00304F800C0B200F0380040F08000C4B244F20000C4F2060004700CA8007800281BD000250AE044F20600C4F20600007800F00200002805D16D1C2DB242F210708542F0DB44F20600C4F2060019
S3FD00000D90007800F00200002801D12320C6E000250BE044F20600C4F20600007800F00C008008022804D06D1C2DB2B5F5FA6FF0DB44F20600C4F20600007800F00C008008022801D01A20A9E044F20501C4F20601087840F02000087044F20400C4F20600047804F0E004A8F10100C0B2C0B200F01F002043C4B244F20400C4F20600047044F20500C4F20600047804F0E004ABF11800C0B2C0B200F01F0040F04000C0B2044344F20500C4F20600047000250AE044F20600C4F20600007800F02000002804D16D1C2DB2B5F5FA6FF1DB44F20600C4F20600007800F02000002801D116205CE000250AE044F20600C4F20600007800F04000002804D1D2
S3FD00000E886D1C2DB2B5F5FA6FF1DB44F20600C4F20600007800F04000002801D1442041E044F20400C4F20600007800F01F00401CC1B200A8417044F20500C4F20600007800F01F001830C1B200A8017044F20001C4F20601087800F03F00087000250BE044F20600C4F20600007800F00C008008032804D06D1C2DB2B5F5FA6FF0DB44F20600C4F20600007800F00C008008032801D01B2006E000A8017800A8407896FBF0F04843BDE8F84F04B0704708B54FF20100C4F20700007800F02000002803D0DFF87E0204F060FB4FF20100C4F20700007800F01000002803D0DFF86A0204F053FB4FF20100C4F20700007800F00800002803D0DFF8520255
S3FD00000F8004F046FB4FF20100C4F20700007800F00400002803D0DFF83E0204F039FB4FF20100C4F20700007800F00200002803D0DFF8260204F02CFB4FF20100C4F20700007800F00100002803D0DFF8120204F01FFB4FF20000C4F20700007800F08000002803D0DFF8FA0104F012FB4FF20000C4F20700007800F04000002803D0DFF8E60104F005FB4FF20000C4F20700007800F02000002803D0DFF8CE0104F0F8FA4FF20000C4F20700007800F00400002803D0DFF8BA0104F0EBFA4FF20000C4F20700007800F00200002803D0DFF8A20104F0DEFA4FF20000C4F20700007800F00100002800F08D80DFF88A0104F0D0FADFF886014EF20001E7
S3FD00001078C4F20701097804F0C7FADFF87A014EF20101C4F20701097804F0BEFADFF86A014EF20201C4F20701097804F0B5FADFF85E014EF20301C4F20701097804F0ACFA4EF20100C4F20700007800F00700032803D1DFF83E0104F09FFA4EF20100C4F20700007800F0070004280CD14EF20200C4F20700007800F00700002803D1DFF8160104F089FA4EF20100C4F20700007800F0070004280CD14EF20200C4F20700007800F00700012803D1DFF8EE0004F073FA4EF20100C4F20700007800F0070004280CD14EF20200C4F20700007800F00700022803D1DFF8C60004F05DFA4EF20100C4F20700007800F0070004280CD14EF20200C4F20700B3
S3FD00001170007800F00700032803D1DFF89E0004F047FA4FF20000C4F207000078002818D14FF20100C4F207000078002811D1DFF87E004FF20001C4F20701097804F030FADFF86E004FF20101C4F20701097804F027FABDE808407047C046B7E6FF1FDAE6FF1FE8E6FF1FF6E6FF1F06E7FF1F1FE7FF1F2BE7FF1F3BE7FF1F4FE7FF1F64E7FF1F79E7FF1F93E7FF1FC4E7FF1FE4E7FF1F04E8FF1F26E8FF1F46E8FF1F5AE8FF1F70E8FF1F86E8FF1F9CE8FF1FB2E8FF1FD8E8FF1F00002DE9F8430446894690464AF20000C4F20600844208D148F23401C4F20401086840F4806008601CE04BF20000C4F20600844208D148F23401C4F20401086840F4D9
S3FD00001268006008600DE04CF20000C4F20600844207D148F23401C4F20401086840F480500860E07800F0F300E0700020A0704FF47A7009FB00F14FEA081091FBF0F085B221786FF01F000840C6B205F4F8500012C0B2C0B200F01F003043C0B22070E8B260704FF4FA4009FB00F14FEA081091FBF0F16801081A87B2A17A6FF01F000840C6B2F8B2C0B200F01F003043C0B2A072E07840F00C00E070BDE8F843704700000FB418B40446207900F080000028FAD003A890F90000C0B2E07118BC04B0704708B500F00DF842F20002C4F2050211884FF6FE7008401080BDE808407047000072B64CF2205142F20E00C4F2050001804DF6281142F20E00F4
S3FD00001360C4F20500018062B6704700000FB410B5029C20780A2806D14BF20000C4F206000D21FFF7C1FF4BF20000C4F20600217849B2FFF7B9FFBDE8104004B0704700000FB410B5029C13E020780A2806D14BF20000C4F206000D21FFF7A6FF2146641C4BF20000C4F20600097849B2FFF79CFF20780028E8D1BDE8104004B0704700000FB408B502A80078001E002806D0401E002815D0401E00282FD046E048F20401C4F20401086840F4A020086048F24802C4F2040211686FF00F000840106034E000F040F848F20402C4F2040211686FF480300840106048F20401C4F20401086840F48020086048F24802C4F2040211686FF00F000840106089
S3FD0000145817E048F20402C4F2040211686FF480200840106048F23801C4F20401086840F4007008604FF4007149F26400C4F20400016048F23401C4F20401086840F480200860BDE8084004B0704700007047000008B548F23801C4F20401086840F4006008604FF480714BF22400C4F2040001604FF29401C4F20F01086840F4007008604FF28401C4F20F01086840F4007008600020FFF779FF402142F20010C4F207000170BDE808407047002070470FB470B50C46256872B604982946DFF8242002F09FFF0646002E05D100206060204602F0FFFF606062B6BDE8704004B07047C04698EFFF1F0FB418B581B0059C00202076E069002808D0089800
S3FD0000155000900498216A069A079BD4F81CC0E04701B0BDE8184004B0704700000FB42DE9F84183B0064698460E9FCA2572B6306802F0D2FF002805D030680468A06802F0A1FD0546002D03D1207E002800D08525002D33D17068E061B06820620BA8017801A801700CA8017801A841704FEA2820C1B201A8C170C8F3070101A88170E06880780012C1B201A84171E0688078C1B201A801713812C1B201A8C171F9B201A881710094A06801A90F9ADFF8203003F043FE0546072D01D10120207662B6284603B0BDE8F84104B07047C0463D1500000FB408B582B00020009000200190049821210B2205AB1B78FFF798FF02B0BDE8084004B0704700003D
S3FD000016480FB42DE9F84783B08A460E98042800F2AC804FEA80008744F0BF00F0A6B800F006B800F051B800F002B800F02BB8282003F0ACFE06460020B04200F0968030460021282203F064FFDFF8280101680020814203D1DFF81C01066009E0DFF81401076800E0BF68B96800208142FAD1BE600C983061C6F814A00C985146324603F0DBF972E0DFF8EC00056818E06869504514D1072003F07AFE28620021286A814263D0012028760095DFF8CC000190029500A8296A072200F0E1FB56E0AD68696900208142E2D150E000208146DFF8A400046846E06069504541D10020814504D1A168DFF89000016002E0A068C9F808000020804617E0616A9A
S3FD00001740062008FB00F00818007900F00100002809D02068006921688968C97B08F10102D2B202F03FFC08F1010080B28046607E8045E4DB216A0020814202D0206A03F0D7FEE1690020814202D0E06903F0D0FE616A0020814202D0606A03F0C9FE204603F0C6FE05E0A146A468616900208142B4D103B0BDE8F84704B070479CEFFF1FC51700000FB42DE9F84785B016460F9C0294DFF8860403900494207E092800F236824FEA80008744F0BF00F030BA00F010B800F030B800F072B800F083B800F09DB800F0A0B900F0FAB800F005B900F058B9B0786076304603F08AFE617E881001EB5070C010083087B2384603F0D2FD20620021206A8142D7
S3FD0000183800F00982206A00213A4603F089FE0220207602A8216AFAB200F038FBFBE1B146617E0620484303F0B9FD60620021606A814200F0F081606A0021627E06235A4303F06EFE002524E0691C881001EB5070C0104844C079626A062169435054606A06216943401803784FF0010C691CCA0FC2EB417102EB71710CFA01F1C9B2194001700022606A06216943401802716D1CADB2607E8542D7DB304603F02DFE0320207600206083618B607E81420ADA608B401C80B2608302A8618BC9B2082200F0FFFAA8E10420207600206083618B607E81420ADA608B401C80B2608302A8618BC9B2102200F002FB95E1042003F056FD20620021206A81429D
S3FD0000193000F08D810520207600206083608B00280FD0707800F0FF000102307800F0FF00084380B2636A628B062151435918091F0880618B607E81420BDA608B401C80B2608302A8618BC9B2226A042300F0E8FA65E1617E881001EB5070C010401C87B2384603F01FFDE0610021E069814200F05681E06900213A4603F0D6FD00251FE0616A062068430818408800F00100002814D065830A202076616A062068430818011D087840F00100087002A8618B491CC9B2042200F088FA824604E06D1CADB2607E8542DCDB204600F08CF927E10A20207602A8618B491CC9B2042200F074FA204600F07FF91AE1626A618B062048431018408800F4806002
S3FD00001A28002801D002250CE0626A618B062048431018408800F40070002801D0012500E0002520680069E9B20E9A127F638B5B1CDBB202F0FDF9002528E0616A062068430818408800F0010000281DD0616A062068430818007900F00100002814D165830A202076616A062068430818011D087840F00100087002A8618B491CC9B2042200F026FA019004E06D1CADB2607E8542D3DB204600F02AF9C5E0206800690E99097F628B521CD2B202F088FA0020636A628B0621514359180871002528E0616A062068430818408800F0010000281DD0616A062068430818007900F00100002814D165830A202076616A062068430818011D087840F0010016
S3FD00001B20087002A8618B491CC9B2042200F0E4F9009004E06D1CADB2607E8542D3DB204600F0E8F883E0307800F0FF02707800F0FF000102F07800F0FF000006B37803F0FF031B041843084310438046C8F30F01606A638B06225A438018418008F4803000281DD0626A618B062048431018007900F00100002809D00920207602A8618B491CC9B2102200F0BDF950E00720207602A8618B491CC9B2102200F0B3F946E008F48010002813D008202076626A618B062048431018011D087840F00100087002A8618B491CC9B2142200F09BF92EE008F40030002809D00920207602A8618B491CC9B2112200F08DF920E008F4002000280CD00A202076B8
S3FD00001C1802A8618B491CC9B2132200F07FF9204600F074F80FE008F0807000280BD00A20207602A8618B491CC9B2182200F06EF9204600F063F805B0BDE8F84704B07047C046C517000000000FB42DE9F04383B00B9C0C9E72B6204602F05AFC002843D02768B86802F02AFA002801D062B63CE0002087F8210062B600251FE0705D00281AD0E80080B280460020814610E0705D00F00100002814D1701901784908017009F1010080B2814608F1010080B28046B9F1080FEBD304E06D1CADB20D988542DCD30094DFF82E000190029406202076A8F1010080B2608300A8C8F30701226A042300F029F900E062B603B0BDE8F04304B07047C046C51796
S3FD00001D100000000078B58DB00546CA2672B6284602F002FC002804D02C68A06802F0D2F90646002E1BD194F82100002817D1012084F8210000A8DFF834102A4602F080FFE8690290697E881001EB5070C010401C04902069E16900AA01F056FD064662B630460DB0BDE878407047C046611C0000F8B507460D462C6838462146DFF8482002F062FB0646002E11D100206860284602F0C2FB686038460021002202F006FBA06138460321002202F000FBE061002E05D1E069002802D0A069002801D100206860BDE8F8407047A0EFFF1F0FB418B581B0059C002084F82000606A002808D0089800900498A16A069A079BD4F824C0E04701B0BDE81840F6
S3FD00001E0804B070470FB42DE9F04383B006469946DDF838800F9FCA2572B6306802F080FB002805D030680468A06802F04FF90546002D04D194F82000002800D08525002D32D170686062B068A0620BA8017801A801700CA8017801A841704FEA2920C1B201A8C170C9F3070101A881704FEA2820C1B201A84171C8F3070101A801713812C1B201A8C171F9B201A881710094A06801A9109ADFF8203003F0F2F90546072D02D1012084F8200062B6284603B0BDE8F04304B07047C046DD1D00000FB418B583B0002472B60020009008A800780190079802900698A02106220023FFF792FF044662B6204603B0BDE8184004B070470FB400B583B005A854
S3FD00001F0000780090002001900020029004982321032206AB1B78FFF779FF03B05DF804EB04B070470FB400B583B005A800780090002001900020029004982321012206AB1B78FFF763FF03B05DF804EB04B070470FB400B583B005A80078009007A800780190069802900498A32100220023FFF74DFF03B05DF804EB04B070472DE9F843DFF87A10DFF87A0081420DD0002408E0A100DFF86E004258A100DFF862004250641CB4F5807FF3D3DFF85200FEF782FDDFF85250DFF85270DFF852008046A8EB050405E038467F1C29466D1C007808702046641E0028F5D1DFF83660DFF836008146A9EB060403E03146761C002008702046641E0028F7D150
S3FD00001FF8BDE8F843704700E0FF1F0000000010E4FF1F6064000080EFFF1F80EFFF1F49F3FF1F00000FB438B481B0002400E0641C04988442FBD3002500E06D1C4FF6FF708542FAD301B038BC04B07047642070470FB40021DFF8380001600021DFF8300041600221DFF8280081600199DFF82000C1600099DFF8180001610021DFF8100041610021DFF80C000160002004B070475CF1FF1FACEFFF1F0FB4F8B481B0DFF804010068411CDFF8FC000160DFF8F8008068012801D1012070E0DFF8F0000068411CDFF8E8000160DFF8E00000680A2803D10021DFF8D4000160DFF8D420DFF8CC0001681420484314182546069EDFF8B800C068471C05E077
S3FD000020F03046361D29462D1D006808607F1E002FF6D1DFF89C00806802280AD10020E06000202061DFF888000460DFF8840044600CE00020E060DFF8780040682061DFF870004068C460DFF868004460DFF860004069411CDFF858004161DFF85400406902280DD3DFF844000068411CDFF83C000160DFF838000068411EDFF830000160DFF82C004169DFF828000069814204D10121DFF81C00816003E00021DFF810008160002001B0F8BC04B07047A8EFFF1F5CF1FF1FACEFFF1FB0EFFF1F0FB4F0B4DFF8A0000068411CDFF898000160DFF898008068022801D102203FE0DFF888000468049D2646DFF88000C068471C05E03046361D29462D1D95
S3FD000021E8006808607F1E002FF6D1DFF864004069012808D10021DFF8580001600021DFF85000416008E0E168DFF8440001600021DFF83C0000680161DFF834004069411EDFF82C004161DFF828004069002804D10221DFF81C00816003E00021DFF8100081600020F0BC04B07047C046A4EFFF1F5CF1FF1F10B5044604202070002060600020BDE8104070470FB418B404462078042806D1616803A8008808436060042000E0052018BC04B0704700000FB418B404462078042807D1616803A80088C04308406060042000E0052018BC04B070470FB418B404462078042809D1616803A800880840002801D0022002E0032000E0052018BC04B070479D
S3FD000022E038B5DFF81A40002503E0002020716D1C10340A2DF9D3BDE838407047C046BCF0FF1F00000FB438B50024DFF8365000240AE02879002805D1281D04990C2203F011F903E0641C10350A2CF2D30A2C00D201E04FF0FF342046BDE8384004B07047C046BCF0FF1F00000FB42DE9F8478BB01446DDF860900A2082460021DFF810050160CDF80C902089814501D9208900E0484680B28146DFF8FC5494F82000002803D1207F00F07F0004E0207F00F07F0040F08000C0B242F29801C4F2070108701598012801D1802000E0002040F0400040F0040040F0080040F00100C0B242F2C001C4F207010870E07F032801D1002000E0E068804600270B
S3FD000023D80020064619E00120FFF71CFE701C0646DFF88C040F2100220123FFF761FF022801D1012000E0002000280FD0052E04D14FF60007CFF6FF7708E042F29400C4F20700007800F020000028DCD1002F40F0658194F8200000280BD0DFF848040168DFF84404006800FB09F00818000C01900AE0DFF838040168DFF83404006800FB09F00818000C019072B6FFF7EFFD0A900A99DFF80404C068814205D90A99DFF8F803C068081A04E0DFF8EC03C0680A99401A0790079843F2D40103F027FE08460090009801994018002816D042F28001C4F20701087840F00400087042F28000C4F20700007800F004000028F6D0FFF7BDFD0146DFF8A0037D
S3FD000024D0C160002042F2AC01C4F20701087042F28001C4F20701087840F004000870FF2042F28801C4F2070108701498001E002807D0401E002849D0401E002800F08D80D6E0DFF878034FF60061CFF6FF71084040F01001687800F00100C00008432063179ADFF858034FF60061CFF6FF71084040F01001687800F00100C0000843426040F2FF3009EA0000000440F08002DFF82C034FF60061CFF6FF71084040F01001687800F00100C00008430260607F00F00F0040F0D000C0B242F2A801C4F207010870687880F00100687091E0DFF8EC024FF60061CFF6FF710140287800F00100C00008432063179ADFF8D0024FF60061CFF6FF7101402878C5
S3FD000025C800F00100C0000843426040F2FF3009EA0000000440F0800194F82C0000F00100800141EA0002DFF89C024FF60061CFF6FF710140287800F00100C00008430260607F00F00F0040F09000C0B242F2A801C4F2070108702946087880F0010008704AE0DFF860024FF60061CFF6FF71084040F01001687800F00100C00008432063179ADFF840024FF60061CFF6FF71084040F01001687800F00100C0000843426040F2FF3009EA0000000440F0800194F82C0000F00100800141EA0002DFF804024FF60061CFF6FF71084040F01001687800F00100C00008430260607F00F00F0040F01000C0B242F2A801C4F207010870687880F00100687010
S3FD000026C062B6002006460CE00120FFF7A7FC701C0646642E05D16FF00F07DFF89401046008E0DFF894010F2100226423FFF7E4FD0328E9D0DFF88001406800F00200002804D04FF60007CFF6FF77AAE0DFF86801406800F00400002800F09D80DFF858010421FFF7B7FD206B0068049042F28800C4F20700007800F0AD00002806D042F28800C4F20700007847428AE00498800800F00F000F2800F27E804FEA80008744F0BF00F044B800F076B800F01AB800F018B800F070B800F06EB800F06CB800F06AB800F068B800F066B800F020B800F008B800F060B800F05EB800F011B800F04FB8002080460498000C40F2FF3100EA010794F82C0080F0C4
S3FD000027B8010084F82C004AE04FF60047CFF6FF770020804643E06FF0FF07B8F1000F06D0E068A0EB08000AFB00F0FFF71BFC0520FFF718FC33E00020064617E00120FFF711FC701C0646322E10D16FF00F000746DFF864000460B8F1000F11D0E068A0EB08000AFB00F0FFF7FDFB09E0DFF850000F210022CAF30F03FFF742FD0328DDD0322E7FF45BAF0AE04FF60067CFF6FF77E068A0EB08000AFB00F0FFF7E3FB4146481E804600297FF4BAAD38460BB0BDE8F84704B07047C04678F0FF1F80F1FF1F74F1FF1FB8F0FF1FB4F0FF1FB0F0FF1FACF0FF1F00EAFF1F0FB42DE9F84781B089461446DDF838800A9882460025002600274FF60040CFF684
S3FD000028B0FF70804501D186272EE06FF0FF00804502D0B8F1000F23DB00270D98002803D16FF0FF00804500D1972799F81F0000280CD194F83000002805D0E6686568002084F8300010E02669A5680DE099F81E00002802D0E668656806E02669A56803E0B8F1000F00DA97270020E06300202060A069DFF82E100860E06B00280CD160690021884208D000974846A1692A460D9BF31AD4F814C0E04701B0BDE8F84704B07047A8F0FF1F0000F8B5064600254FF0FF37DFF8304000250DE0A1687068814207D1E168B068814203D100202071002005E06D1C10340A2DEFDB4FF0FF30BDE8F8407047BCF0FF1F10B500240A200321FFF752FB002801D0A4
S3FD000029A88D2063E042F24251C0F27501DFF8C20001604BF61171C0F20901DFF8BA0001604AF60611C0F21F41DFF8AE0001604FF2F611C0F24E01DFF8A6000160DFF8A200FFF738FCFF2142F28000C4F20700017042F29401C4F20701087840F002000870DFF882000021202202F0A2FDDFF87A00000AC1B242F29C00C4F207000170DFF86A00000CC1B242F2B000C4F207000170DFF85600000EC1B242F2B400C4F207000170FF2142F2AC00C4F207000170402142F28400C4F207000170082142F29400C4F207000170FFF737FC2046BDE810407047B8F0FF1FB4F0FF1FB0F0FF1FACF0FF1F74F1FF1F80F1FF1F00EAFF1F0000002070470FB418B51C
S3FD00002AA083B00024022100A80170079801900898029000A8FFF7ECFA204603B0BDE8184004B0704700B583B000A8FFF76FFB0028FAD0002003B05DF804EB70470FB418B583B00024032100A80170079801900898029000A8FFF7CCFA204603B0BDE8184004B070470020704742F2A400C4F207000078010242F2A000C4F20700007808437047000018B581B0DFF8BA050068C069002800F027820021DFF8AE050176DFF8AE0500F071FB00280ED1DFF8A605D0F80022DFF89E05D0F80002411EDFF89205C0F80012002A18D10A21DFF88605C0F80012DFF87A05FFF719FB00280DD1DFF86A05C069C07F032807D1DFF86205DFF85A15C9694968FFF717
S3FD00002B98B5FBDFF84E05007E002800F0EF81DFF84205007E401E002808D0401E002800F04A81401E002800F0EA8097E1082000900020DFF81A150968496BDFF81625D269DFF80E351B6A3133FFF7B2FBDFF80205006A0069002858D0DFF8F604006A8168DFF8EE04C162DFF8EA04006A0169DFF8E20441622DE0DFF8DA04406A80B200900120DFF8CA140968496BDFF8C624D269DFF8BE34DB6AFFF78BFBDFF8B6148862DFF8AE04806A002818DBDFF8A604C16ADFF89E04806A0918DFF89604C162DFF89204416ADFF88A04806A091ADFF882044162DFF87E04406A0028CCD10121DFF87204C06980F82C10002000900220DFF85E140968496BDFF88B
S3FD00002C905A24D2690023FFF757FBDFF84E14886228E1DFF84604006AC068002858D0DFF83A04006A4168DFF83204C162DFF82A04006AC168DFF8220441622DE0DFF81A04406A80B200900220DFF80A140968496BDFF80624D269DFF80234DB6AFFF72CFBDFF8F6138862DFF8F203806A002818DBDFF8E603C16ADFF8E203806A0918DFF8DA03C162DFF8D203416ADFF8CE03806A091ADFF8C6034162DFF8BE03406A0028CCD10121DFF8B203C06980F82C10002000900120DFF89E130968496BDFF89A23D2690023FFF7F8FADFF88E138862C9E00121DFF88603C06980F82C10002000900120DFF872130968496BDFF86E23D2690023FFF7E1FADFF887
S3FD00002D88621388620021DFF85A034162AEE0DFF85203006A8168DFF84A03C162DFF84203006A0169DFF83A034162DFF83603406A80B200900120DFF826130968496BDFF82223D269DFF81A33DB6AFFF7B9FADFF8121388620A20FFF71DF9DFF80603C069C07F032800D10A24DFF8F602806A0028C0F27C80DFF8EA02C16ADFF8E602806A0918DFF8DE02C162DFF8D602416ADFF8D202806A091ADFF8CA024162DFF8C202406A002808D0DFF8BA02816ADFF8B202C06900898142B8DADFF8A602416ADFF8A202816252E0DFF89A02006A4168DFF89202C162DFF88A02006AC168DFF882024162DFF87E02406A80B200900220DFF86E120968496BDFF86A
S3FD00002E806A22D269DFF86232DB6AFFF75DFADFF85A1288620A20FFF7C1F8DFF84E02806A002827DBDFF84202C16ADFF83E02806A0918DFF83602C162DFF82E02416ADFF82A02806A091ADFF822024162DFF81A02406A002808D0DFF81202816ADFF80A02C06900898142C0DADFF8FE01416ADFF8FA018162DFF8F201806A00281FDADFF8EA01C069C07F032811D0DFF8DE01806A0090DFF8D2010068DFF8CE11C969DFF8CA21126ADFF8C2315B6AFFF7B1FCDFF8BA01C069C07F032824D10A2422E0DFF8AA01C069C07F032800D10A24DFF89A01806A0090DFF88E010068DFF88E11C969DFF88621126ADFF882315B6AFFF790FCDFF87601C069C07FD4
S3FD00002F78032803D1DFF86E01FFF7EAFCDFF86E01406800F00F00002800F0A480DFF85E01406800F0010000286AD0002142F29800C4F2070001706420FFF734F842F29400C4F20700007800F08000002801D0002000E00120C1B2DFF8160100684163DFF80E010068406B002807D142F29801C4F20701087840F080000870FF2142F28000C4F207000170092142F28400C4F20700017042F2C001C4F20701087840F08000087042F29401C4F20701087840F0100008700A20FEF7F6FF42F29401C4F20701087800F0EF00087042F29401C4F20701087840F0010008706420FEF7E3FFDFF88E000068DFF886100968496BC9B20022002300F0F5FEDFF87D
S3FD0000307086000121FFF70EF9DFF87A00406800F0020000282AD042F28001C4F20701087840F04000087042F28000C4F20700007800F04000002814D1DFF83A0000680021002200F097FF42F28001C4F20701087840F040000870402142F28400C4F207000170DFF822000621FFF7DCF801B0BDE818407047C0461CF2FF1F78F0FF1F90F0FF1F00EAFF1F74F1FF1F00000FB418B583B00024012100A80170079801900898029000A8FEF7BCFF0446204603B0BDE8184004B07047000010B542F28000C4F20700017842F28400C4F2070000780840C4B2002C28D042F28000C4F20700047004F0400000280CD042F28401C4F20701087800F0BF000870BB
S3FD00003168DFF832000121FFF77FF804F00800002804D0DFF822000421FFF776F804F001000028CED0DFF80E000221FFF76DF8C8E7BDE81040704774F1FF1F000038B50C46607F810042F2C000C4F207000D18E07F032815D84FEA80008744F0BF00F006B800F010B800F00EB800F006B8287840F00C002870656305E008202870656301E0902000E00020BDE83840704770B50E46F07F03280DD1DFF82240002507E0A068B04201D1002020716D1CADB210340A2DF5D30020BDE870407047BCF0FF1F00000FB4F8B54FF0FF37DFF848400025002605E02079002800D02546761C10340A2EF7D3002D11D0DFF830000168A868814205D10021DFF8200009
S3FD000032600160384606E00698291D0C2202F06AF900273846BDE8F84004B07047BCF0FF1F78F0FF1F08B5DFF8920002F0C1F92320FDF71AFCFEF708F972B600204FF48061DFF87A2000F06CFBDFF876100860DFF8760002F0ADF9DFF866000068DFF86A1001F06EFADFF85A100860DFF856000068002802D0012002F023F8DFF85200FEF7BDFF62B6DFF84A0002F092F9DFF84600DFF8461000F024F8FFF714FC4AF2026142F20C00C4F2050001804BF2804142F20C00C4F205000180E8E704ECFF1F0CF2FF1FA0F1FF1F0EECFF1F0863000010F2FF1F21ECFF1F08F2FF1FFCF1FF1F000070B506460D460024DFF8B0014068082800F2C9804FEA800009
S3FD000033588744F0BF00F0CAB800F00EB800F0BFB800F0C4B800F027B800F0B9B800F041B800F0A8B800F0BAB8DFF87C0102F044F90321DFF870014160DFF868018068DFF86411C968DFF8642101F06EFB0446002C00F0A480DFF85801214602F02DF9012001F0B2FF9AE0DFF84C0102F025F90521DFF830014160DFF834012860DFF8380168600020A86028460221FEF71DF90446072C00F08380DFF82401214602F00CF97CE0DFF80001406A002819D10121DFF8F4004162DFF8EC008068DFF8E810C9680322002300F08AFFDFF8D8100862DFF8D400006A002803D0DFF8E40002F0ECF8DFF8E000006801281FD1DFF8DC00DFF8DC10002201F000FC66
S3FD00003450DFF8A80006630421DFF8A0008163DFF8C8000068DFF89410096ADFF8B42000F0D3F90446072C04D0DFF8B000214602F0C7F8DFF8AC00032100220023FEF714FF022809D10121DFF884000160DFF890000321FEF7F7FE03E00021DFF870000160DFF84800406806281CD1DFF860000068012817D1304600F017F913E00021DFF82C004162DFF85C0002F09AF80021DFF81C00416006E0DFF85000DFF81010496802F08EF8BDE870407047C046A0F1FF1F60ECFF1FB0F1FF1F77ECFF1FA3ECFF1F85360000CAECFF1FF3ECFF1F5CECFF1FC8F1FF1FE13600000CF2FF1F1EEDFF1F10F2FF1F40EDFF1F55EDFF1F0FB438B50D462C460698042831
S3FD0000354870D84FEA80008744F0BF00F06BB800F006B800F040B800F006B800F033B8DFF8EC0002F051F8DFF8E800DFF8E810496802F04AF8DFF8E000617902F045F8DFF8DC00A17902F040F8DFF8D400E17902F03BF8DFF8C000406800280BD10499DFF8B4008160DFF8AC00C5600121DFF8A400416042E0DFF8AC00DFF89810496802F023F83AE0DFF8A00002F01EF80421DFF88400416031E0DFF8940002F015F8DFF89000DFF87010496802F00EF8DFF86800617902F009F8DFF86400A17902F004F8DFF85C00E17901F0FFFF0021DFF8440081600021DFF83C00C1600721DFF8340041600AE0DFF84C00DFF82810496801F0EBFF0021DFF81C0009
S3FD000036404160DFF83C000121FEF712FEBDE8384004B0704776EDFF1F90EDFF1FA0F1FF1F9BEDFF1FA8EDFF1FB8EDFF1FC9EDFF1FF7EDFF1F15EEFF1F2FEEFF1F3CEEFF1F10F2FF1F10B5029C862C04D1DFF83E0001F0BEFF09E0002C07D0DFF83600214601F0B6FF012001F03BFEDFF82A004068052803D10621DFF81E004160DFF81A000121FEF7D5FDBDE810407047C04655EEFF1F87EEFF1FA0F1FF1F10F2FF1F000008B5DFF810000221FEF7C2FDBDE808407047C04610F2FF1F10B50446207800F00100002804D0DFF8CE0001F081FF03E0DFF8C60001F07CFF207800F00200002804D0DFF8BA0001F073FF03E0DFF8B20001F06EFF207800F04D
S3FD000037380400002804D0DFF8A60001F065FF03E0DFF89E0001F060FF607800280CD060787F2804D9DFF88E0001F056FF08E0DFF88A0001F051FF03E0DFF8820001F04CFFA07800280CD0A0787F2804D9DFF8720001F042FF08E0DFF86E0001F03DFF03E0DFF8660001F038FFE07800280CD0E0787F2804D9DFF8560001F02EFF08E0DFF8520001F029FF03E0DFF84A0001F024FFDFF8460001F020FFBDE810407047BEEEFF1FCAEEFF1FD6EEFF1FE3EEFF1FF0EEFF1FFEEEFF1F0CEFFF1F13EFFF1F1AEFFF1F21EFFF1F27EFFF1F2DEFFF1F33EFFF1F3EEFFF1F49EFFF1F54EFFF1F00000FB42DE9F8438146884672B640460A9900AA00F03FFA0546F4
S3FD00003830072D02D062B628460DE04F46464648463146009A00F034F8044662B6002C01D1072000E02046BDE8F84304B070470000F8B5074600253E46B46A21680020814203D038462168884705462846BDE8F840704700000FB4F8B5074600253E46B46AE1680020814205D038460799089AE368984705462846BDE8F84004B0704700000FB4F8B5074600253E46B46A21690020814205D038460799089A2369984705462846BDE8F84004B0704700000FB4F8B5074600253E46B46A61690020814205D038460799089A6369984705462846BDE8F84004B0704700000FB4F8B5074600253E46B46A216A0020814204D038460799226A90470546284636
S3FD00003928BDE8F84004B070470FB4F8B5074600253E46B46AE16A0020814204D038460799E26A904705462846BDE8F84004B070470FB4F8B5074600253E46B46A216B0020814204D038460799226B904705462846BDE8F84004B070470FB42DE9F04107469046382001F022FDDFF836110860DFF8320100680021382201F0DAFDDFF8220101680020814202D14FF0FF3085E00021DFF80E010068C161DFF80601006880F82C700799DFF8FA00006841614FF4A86001F0FCFCDFF8EA1009684862DFF8E2000068406A00214FF4A86201F0B1FDDFF8D2000068416A0020814206D1DFF8C200006801F091FD812057E0DFF8B6000068406A00214FF4A86252
S3FD00003A2001F09AFD72B6DFF8A650382078432918DFF8960000688162DFF88E000068806A00280DD1DFF882000068406A01F070FDDFF87600006801F06BFD62B6892030E03846FDF74DFD0646002E0DD0DFF85A000068406A01F05CFDDFF84E00006801F057FD62B6C4201CE0DFF83E000068FFF7E7FE044662B6002C0DD0DFF82E000068406A01F045FDDFF82200006801F040FD4FF0FF3005E0DFF812000068C8F800000020BDE8F04104B070471CF2FF1FD062000000000FB4F8B5074600253E46B46A616B0020814204D038460799626B904705462846BDE8F84004B070470FB438B50C4606A8007800280BD004982146FFF7FBFE06E0A56AA06AAB
S3FD00003B18006CA062284601F007FDA16A00208142F4D1002084F82400BDE8384004B070470FB42DE9F0478246564672B60020804600240BE0706A38216143401890F82400002802D008F101008046641C182CF1D3002408E0716A38206043081890F82400002802D0641C182CF4D362B6182C01D390202BE0716A382060430D180A9805602F46099A3B464FF0040C03CA03C3ACF1010CBCF1000FF8D110681860002085F82C0020B26884012085F8240050462946FFF7B2FE8146B9F1000F06D0504629460022FFF78FFF902000E00020BDE8F04704B070470FB470B5442001F0EFFB04460020844201D1002016E020460021442201F0A6FC049DAE6A17
S3FD00003C100020864204D12464206CA86207E0366C316CA86A8142FAD13464A86A20642046BDE8704004B070472DE9F04180460F46002F01D100202DE04646B46A72B60020844209D14046FFF7C9FF0446002084421DD162B600201DE025462868002801D12C4614E02868B84202D162B6002011E0286CA04209D14046FFF7B0FF04460020844204D162B6002004E02D6CE5E7276062B62046BDE8F041704700002DE9F84381460D4690464E46B6F92200182801DD8F2025E048462968FFF7B6FF04460020844201D181201BE027462B46062203CB03C7521E002AFAD1296B002081420AD02B6B04F13102082118785B1C1070521C491E0029F8D1072004
S3FD00003D08E063C8F800400720BDE8F843704700000FB478B581B00E4672B63046089900AAFFF7C0FF0446072C02D062B620461DE03546002085F82C00009890F8310000F08000002801D1012000E00020C1B2009880F8301006982946009AFFF78FFD044662B6002C01D1072000E0204601B0BDE8784004B0704700002DE9F8438146484600F0A4F98046B8F1000F01D040461CE04C46002607E02046B1006118896C00F00FFD761CF6B2207D8642F4D372B665682F68284601F0B8FB3D462F6800208542F7D10020606062B60020BDE8F84370472DE9F04706468A469046994672B6304600F074F9074662B6002F01D038462BE0B8F1000F02D0B8F1B3
S3FD00003E00060F01D3C72023E00AF10F014FF6FC70084001F0DFFA04460020844201D1C62016E071680020814201D1746007E0756800E02D68296800208142FAD12C6000202060C4F80480C4F808A0C9F800400020BDE8F047704700000FB42DE9F0418AB0804600254646C82001F0B4FA04460020844201D1C62070E020460021C82201F06BFBC4F8088011A80078207312A80078607313A80078A0730020608272B6F0692060F46125460120E8732C6809E0E97BE07B814204D1E87B401CC0B2E87303E0246800208442F2D10020844202D0E87B7F28EAD92C46E07B7F2807D92068F06162B6204601F024FB9A2036E062B6DFF874C001AB0422BCE8F2
S3FD00003EF8030003C3521E002AF9D1DCF8000018600194002101A8C177217B01A880F82010A06801A904F11C02FFF70AFE002804D0204601F001FB9B2013E00120A06104F12C00009020464FF480710022082301F097F80746072F03D00020A061C82000E000200AB0BDE8F04104B070472C6300002DE9F04107460D46002085421CD0B84672B6AC6A002C10D00CE000206061384629462246FFF7A6FC0646002020600020E063246C20680028EFD1AC6A3846294600F07CFEAC6262B6BDE8F04170470000F8B505462868866868680779002407E03046A10069188968FFF7CAFF641CE4B2BC42F5D3BDE8F840704700000FB4F8B507463E4606F11C05DF
S3FD00003FF072B62C680DE0A17B08A80078814207D1617B07A80078814202D1A068B84203D0246800208442EED162B60020844220D061680020814203D02046022100F01EF8002020623846E169FFF796FF61680020814202D02046FFF79BFE72B600E02D682868A042FBD120682860204601F068FA62B6BDE8F84004B0704700000FB438B5054672B668680C300090009A0098C07800F0FF0001020098807800F0FF00084380B214180099009800780818009000984078042804D128460099059A00F0ECFA0099009800780818009000980078002802D00098A042EAD362B6BDE8384004B0704700000FB4F0B4049DAE68F46900E02468AC4202D00020DA
S3FD000040E88442F9D10020844201D1C02700E000273846F0BC04B070470FB4F8B50746154672B63846FFF7E2FF0446002C02D062B6204612E03E46304607A90988052200ABFFF756FE0446002C02D00020286002E000980C30286062B62046BDE8F84004B07047000010B504460021607901280AD10122A079022803D0A079032800D00022002A00D00121C8B2BDE81040704700000FB42DE9F80182B0884617461C460D9E00203060089DA869062801D2C120C8E0012F04D105F12C0030600020C1E06868019001980C300190022F00F0B78001990198C07800F0FF000002019A927802F0FF02104380B208180090082F00F27E804FEA87008744F0BF6C
S3FD000041E000F078B800F076B800F074B800F060B800F008B800F026B800F05CB800F05AB800F058B801980079A04201D2C8208CE00199019800780818019001990098814201D3C82081E0019840780428F0D101988078A042ECD10198C1780CA800788142E6D16FE0CDF8048001990020814201D1C8206AE001984078042803D101980078092801D0C82060E0002C03D001980079844201D9C82058E00199019800780818019001990098814201D3C8204DE001984078001F002806D0401E002800D004E0641EE4B201E0C8203FE0002CE4D139E0C8203AE00199019800780818019001990098814201D3C8202FE001984078B842F0D127E00020804524
S3FD000042D801D0CDF8048001990020814201D1C8201FE00199019800780818019001990098814201D3C82014E001984078042804D10020804501D0C8200BE001984078B842E7D12046641EE4B20028E2D101983060002002B0BDE8F80104B070470FB42DE9F84181B072B60998009000984078042803D100980078092802D062B600202BE0089C002723E00099B8002018806C81421BD165686868032813D105F10C063068A0420FD17168009881420BD130460AA909780BAA127800F015F8804662B640460AE02D6800208542E4D17F1CFFB2207D8742D8D362B6002001B0BDE8F84104B0704700002DE9F8430446894690462068FFF784FE002801D0DD
S3FD000043D000203DE0B9F1030F0ED84FEA89008744F0BF00F006B800F009B800F007B800F005B82068C0692BE0002029E0A8F10000002805D0401E002802D0FFE700201FE06068009000984078042803D100980078092801D0002013E00098077900260CE0B00020188568E87F484504D1A87F404501D1284604E0761CF6B2BE42F0D30020BDE8F843704700000FB42DE9F04706468A46002472B63068FFF734FE8146B9F1000F02D062B648464FE037687068804698F80100042803D198F80000092802D062B6CA2041E07D680020854202D162B6CA203AE06868052803D105F10C00504501D02D68F0E70A990020814202D162B6CC202AE050460021C7
S3FD000044C8AA6801F045F80A9C00E02468216800208142FAD1C4F800A05446002020600A9860603068A0607068E060B8682061DFF82C000068411CDFF824000160DFF81C0000680028F3D0DFF814000068606162B60020BDE8F04704B07047C04620F2FF1F0FB430B4029C25686068002807D061686869814201D1012000E0002002E068696060606830BC04B0704700002DE9F04705460E461446607800F0FF000102207800F0FF00084387B2E07800F0FF000102A07800F0FF00084380B2804647EA080000281DD095F8350000F0FF00000295F8341001F0FF01084380B2814695F8370000F0FF00010295F8360000F0FF00084380B282464F4503D1AB
S3FD000045C0D04501D101205BE02079FF2804D0217995F83000814227D1617995F83100814206D1A17995F83200814201D1012047E0617995F83100814204D1A079FF2801D101203DE06079FF2806D1A17995F83200814201D1012033E06079FF2804D1A079FF2801D101202BE02079FF2803D021797079814223D16179B079814205D1A179F079814201D101201AE06179B079814204D1A079FF2801D1012011E06079FF2805D1A179F079814201D1012008E06079FF2804D1A079FF2801D1012000E00020BDE8F047704700000FB42DE9F04706460027B168002081422AD0B5682C6B296BDFF856000160B04609988146002C1FD00FE0304609992246FC
S3FD000046B8FFF74CFF8246BAF1010F05D10127404649460A9AA36898470C34204600F014F80128EAD0002F07D1A068002804D0404649460A9AA3689847BDE8F04704B07047C04658F2FF1F000010B504462079002801D001201EE0A079002801D0012019E06079002801D0012014E02078002801D001200FE06078002801D001200AE0A078002801D0012005E0E078002801D0012000E00020BDE81040704700002DE9F0418046D8F80460DFF83C4021680020814201D1002411E0701D04F1090100F0B6F80546A01D04F1090100F0B0F80746002D01D0BD4201D00C34E7E72046BDE8F0417047C04600E9FF1F70B506460D4672B60020864202D0002093
S3FD000047B0854202D162B6C42003E03446256362B60020BDE8704070470FB42DE9F84781B00546002081467BE04FEA89002818806C009000990020814200F06E800B98817800988078814240F067806C6825E06068032821D104F10C0082460B99DAF80400814219D16E68B44203D12068686005E036683068A042FBD1206830605046FFF7C3FB204600F07CFE00214FEA890028188164287D814603E0246800208442D6D10098FFF77BFC00283ED16C6831E0606805282DD104F10C070B99F868814227D1002078616E68B44203D12068686005E036683068A042FBD12068306078688046D8F80000B84206D13868C8F8000009E0D8F800008046D8F8F4
S3FD000048A80000B842F8D13868C8F80000204600F03BFE287D814603E0246800208442CAD109F10100C0B28146287D8145FFF480AF01B0BDE8F84704B07047000078B581B006460D4628466D1C3146761C0978007801EA0004240228466D1C3146761C097800780840044324023178287808400443204601B0BDE87840704700000FB470B58CB006460020009002A8019030461199052213AB1B78FFF71BFC0546002D01D0284694E0344603960298807904900298407900F0FF0001020298007900F0FF00084381B240F2FF70014002A881810F200690002008900898079012980990F17B02A880F820100298807800F00F0102A880F8211002988078A3
S3FD000049A000F08000002801D0002000E00120C1B202A880F822100298C07800F00300401E002806D0401E002808D0401E00280AD00EE0012102A880F823100DE0022102A880F8231008E0032102A880F8231003E0002102A880F82310217B02A880F82410012102A880F8251002A890F82300012804D002A890F82300032825D10298407900F0FF0001020298007900F0FF00084380B200F4C050A0F5006000280CD0A0F50060002800D00FE002A890F82500411CC9B202A880F8251002A890F82500411CC9B202A880F82510A06803A9149AFFF763F8054628460CB0BDE8704004B070470FB42DE9F84789B0002772B61298FFF721FB0446002C40F09F
S3FD00004A98C980129E139DB06806900698006B07906878042802D12878092801D0CA24B9E030462946FFF784FE002102A8017002A80178307D814201D3CA24ABE002A8007880003018816C0020814206D002A80078411CC9B202A80170E9E7706880460020804504D1CA2495E0D8F800008046D8F8001000208142F7D12879401E80001830039030460399032205ABFFF759F90446002C01D0C6247DE0E878009008A80190129800210422AB78FFF71AFB0446002C40F0708005980C308146012002A948701FE004A8009012981399002202AB5B78FFF7DCFE0446002C06D00020C8F80000059800F0D9FC55E0049902A84078401E80004844816002A87C
S3FD00004B904078411CC9B202A8417002A8407829798842DAD91298C9F800001398C9F8040002A800788000301885640798FFF7A0FD002821D0C324149F002087422ED04846FFF7C0FD82460020824527D02846FFF7B5FA002808D11298BAF804103A46FFF787FA0446002C19D148463946DAF8002090477868002811D00820B0613046E978AA7800F003FB0446072C04D00020B06162B620460EE062B600200BE0002C00D1C3240020874203D0002038600020786062B6204609B0BDE8F84704B0704700000FB418B4044672B6DFF840004068411CDFF838004160DFF8340040680028F3D0DFF82CC023460622BCE8030003C3521E002AF9D1DCF8000055
S3FD00004C881860039860610498A06162B618BC04B07047C04620F2FF1F24F2FF1F0FB4F8B507463E46079CB4F92200182801DD8F2011E072B638462146FEF722FE0546002D02D062B6284606E020460021382200F03FFC62B60020BDE8F84004B0704700000FB42DE9F04782B082460E9E57463C6800208146DFF896020460A0688046A0690A2800F230814FEA80008744F0BF00F038B900F012B800F029B800F046B800F059B800F0C7B800F0D5B800F004B900F013B900F01AB900F07EB894F83300388140463946FEF704FE0646002E02D00020A06116E10220A061204600F0B9F90646072E00F00E810020A0610AE1E07B387740463946FEF7AAFE43
S3FD00004D800646002E02D00020A061FEE00320A06104F12C00009020464FF480710022122300F06AF90646072E00F0EF800020A061EBE004F13E0001900420A0610198009020464FF400710022092300F055F90646072E00F0DA800020A061D6E00520A06104F13E0001900198C07800F0FF0001020198807800F0FF00084385B204F13E00019020462946012201ABFEF7E5FF002840F0BB8001980C3001900520A0610198009020464FF400710022ABB200F024F90646072E00F0A9800020A061A5E060680C3001900198C07800F0FF0001020198807800F0FF00084385B2019800782D1A019901980078081801900BE001984078092809D00198007828
S3FD00004E782D1A01990198007808180190002DF1D10520A061002D15D001984078092811D10198807800F0020000280BD0204600210022042300F070F90646072E69D00020A06166E060680C3001900620A06120460199497900F032F90646072E59D00020A06156E00720A0610020207560680C3001900198C07800F0FF0001020198807800F0FF00084385B2019800782D1A0199019800780818019013E001984078042803D1207D401CC0B2207501980078002809D0019800782D1A01990198007808180190002DE9D10820A061207C002806D00020207420460321FFF78CF819E020460121FFF787F814E00920A06120460421FFF780F80DE009202A
S3FD00004F70A061216A0020814207D0009650460B990C9A0D9BD4F820C0E04702B0BDE8F04704B07047C04660F2FF1F00002DE9F0438DB081460D4690464846FFF793F80646002E01D0C02057E04C46E76900A8216A626AFFF745FE68780C2836D84FEA80008744F0BF00F025B800F02FB800F02DB800F02BB800F029B800F027B800F019B800F00AB800F015B800F01FB800F011B800F01BB800F00DB8CDF80480E87900F0FF000102A87900F0FF00084380B203900BE0CDF80880E87900F0FF000102A87900F0FF00084380B204900C95A069092803D305990020814204D1DFF82400059000200690DFF81C000460A068394600AAFEF75AFE06463046E7
S3FD000050680DB0BDE8F0437047E94C00005CF2FF1F0FB4F8B582B00F4616461D46002472B6802100A80170062100A841703812C1B200A8C170F9B200A881703012C1B200A84171F1B200A801712812C1B200A8C171E9B200A88171089800A90C9AFFF76AFF044662B6204602B0BDE8F84004B0704770B582B006463446DFF84C3000AA082118785B1C1070521C491E0029F8D1002572B6002100A80170052100A84170E07B0012C1B200A8C170E07BC1B200A88170304600A90022FFF73DFF054662B6284602B0BDE870407047506300000FB438B582B00D46DFF84C3000AA082118785B1C1070521C491E0029F8D1002472B6002100A80170092100A842
S3FD0000516041702812C1B200A8C170E9B200A88170069800A90022FFF711FF044662B6204602B0BDE8384004B07047C046506300000FB4F8B582B00F4616461D46DFF8763000AA082118785B1C1070521C491E0029F8D1002472B6381E002811D0401E002803D0401E002800D007E03012C1B200A84171F1B200A8017102E062B6C52014E0F9B200A80170032100A841702812C1B200A8C170E9B200A88170089800A90022FFF7CCFE044662B6204602B0BDE8F84004B07047C0465063000000000FB470B582B00E461546DFF85C3000AA082118785B1C1070521C491E0029F8D1002472B6012100A801700B2100A841703012C1B200A8C170F1B200A8B5
S3FD0000525881702812C1B200A84171E9B200A80171069800A90022FFF795FE044662B6204602B0BDE8704004B07047C046506300000FB42DE9F0438DB081460C469046002672B64846FEF71AFF0646002E02D062B6C02033E04D46A869092802D262B6C0202CE0EF6900A81799189AFFF7C5FC207800F0800000280CD0CDF80880E07900F0FF000102A07900F0FF00084380B204900BE0CDF80480E07900F0FF000102A07900F0FF00084380B203900C94A868394600AAFEF705FD064662B630460DB0BDE8F04304B07047000010B500F07BFDDFF82440206810B1804700202060DFF81440A06810B180470020A06000F07FFDBDE81040704764F2FF1F0A
S3FD000053506846704710B50446FFF7FAFFDFF83020944208D2DFF82C10401A844284BFDFF82800904204D90020C043BDE810407047DFF8180044600020BDE810407047C046501B002000000000501F002058EFFF1F10B5DFF82C104C682018844204D90020C043BDE810407047FFF7CCFFB0F1FF3F08BF4FF0FF342046BDE810407047C04658EFFF1F38B5DFF84E11C01D0B680022DFF846519E466FF0004130F0070415D10020BDE838407047DEF800004FEAC07C4FEADC7CBCF1010F06D1B4EB500F9CBFC4EB5001724604D9DEF804E0BEF1000FEAD15AB340293EBF106820F0010010601FD31019536808304360506043680BB9031D2B600368083912
S3FD0000544823F0010343F0010303F0010321F0004143EA41010160106820F0010000F0010124F0004041EA4000106002F10800BDE8384070476FF00040844230D90020BDE8384070471968C807C00F012826D15868490804E00268406852080832891830B10268D207D20F012A01D1A142F2D3A14214D358601A6821F0004122F0010202F0010242EA4101196018B1406808B9181D286003F10800BDE8384070475B68002BD0D104F10800FFF757FFB0F1FF3F08BF002010D0016821F0010101F0010224F0004142EA410101602968086000214160011D29600830BDE838407047C046F0F2FF1F58EFFF1F000030B10838016821F0010141F001010160DD
S3FD00005540704700008446521C03E011F8013B0CF8013B521EF9D1704710B5044600F012F82046BDE810407047CBB2521C05E010F8011B994201D1401E7047521EF7D1002070470000CBB2202A2DD3414211F0030C07D0A2EB0C02D9B200F8011BBCF1010CFAD12BB1190441EA036141EA03210B435FEA521C0DD0036043608360C36003614361836100F11C0120300B60BCF1010CF1D102F01F01890803D040F8043B491EFBD102F0030222B1D9B200F8011B521EFBD170470FB410B5012004AA012400F02FFC00B100242046BDE8104004B070470FB408B50020009002AB23F00303DFF81400029A00211B1D00F04AFABDE8084004B07047F555000005
S3FD000056384FF0FF3210F8011B521C0029FAD11046704700008446521C0CE011F8013BDBB20CF8013B33B9002101E00CF8011B521EFBD17047521EF0D170470000C9B203E08A4201D1401E704710F8012B002AF7D1002918BF002000D1401E70472DE9F84384B001230DF10008154688F80030002288F8012088F8022088F8032088F80420471C3C780E4602920392252C0BD188F8054000AA03CA03C503CA03C504B0781CBDE8F84370474FF0020901202B2C08DC12DA232C26DC202C24DB10D0232C16D020E0302C1EDC2D2C1CDB02D0302C11D018E088F8002016E088F8013013E098F801C0BCF1010F18BF88F801900BE088F8033008E098F800C080
S3FD00005730BCF1000F18BF88F8009000E0002010B17F1C3C78CDE72A2C0FD10868001D0860001F01680291002904DA002088F80000484202907F1C3C7810E04FF00A0908E00298A4F1300100FB09F07F1C08183C780290204600F03AFB0028F1D1029940F2FD1081420CDDFF2000AA88F8050003CA03C503CA03C504B0781CBDE8F84370472E2C23D17F1C3C78012088F802002A2C0DD13068001D3060001F006803900028BCBF002088F802007F1C3C780EE00A2607E00398A4F1300170437F1C08183C780390204600F002FB0028F2D10121B4F1680002D0001F04D007E0022088F8040004E0032088F8040000E0002109B17F1C3C7888F80540692CBB
S3FD000058280ADC632C05DB30D0642C14D0692C12D03CE0582C0FD039E06E2C01DC39D035E0A4F16F00092831D8DFE800F00513303029300530300598F8020010B90120039027E098F80000022804BF012088F800001FE0782088F80500012088F80300032088F804000820039013E098F8020010B998F8040068B1FF2088F8050009E098F8040030B1FF2088F8050002E0FF2088F8050000AA03CA03C503CA03C5781C04B0BDE8F843704700000FB42DE9F00F9DF828A083469DF82B909DF82D800C9F0D9B00264D1E0A240022DC462E70F0B9EBB9B9F1000F02D0B8F16F0F17D0B8F1640F02D0B8F1690F0CD19DF82900022803D16D1E2020287004E05C
S3FD00005920012802D16D1E2B2028702846BDE8F00F04B07047B8F1690F09DC1CDAB8F1580F01DC28D02BE0B8F1640F14D027E0B8F16F0F05DC02BF082400208DF829001EE0B8F1780F1BDCB8F1750F18DB0ED0B8F1780F10D013E00A24002810DAB0F1004F1CBFC0F1000BDC46012608E000200A248DF8290003E000208DF829001024BCFBF4F004FB10C0BCFBF4FC0A2838BF303004D3B8F1780F0CBF573037306D1E521C2870BCF1000FEAD1082C09D1B9F1000F06D02878302803D06D1E30202870521CBAF1020F0BD13B4616B99DF8290000B17B1E102C03D1B9F1000F00D09B1E481B191840F2FD108142C8BF002054DC981A302700282FDDC1088D
S3FD00005A1800F013806D1E05F8017905F8017905F8017905F8017905F8017905F8017905F801792F70491E7FF4EDAF10F0040F00F008806D1E05F8017905F8017905F801792F7010F0020F00F004806D1E05F801792F7010F0010F00F002806D1E2F70102C0BD1B9F1000F08D0BBF1000F05D0681E80F80080AD1E302028701EB16D1E2D2028700CE09DF82900012803D16D1E2B20287004E0022802D16D1E202028702846BDE8F00F04B070470FB42DE9F04FADF5077D8246202002AC894693466070002581E158462521FFF7C9FD0646A8B95846FFF7A6FD0246AD18002A00F0798148465946D047002840F073810DF5077D4FF0FF30BDE8F04F04B00D
S3FD00005B107047A0EB0B02AD185AB148465946D04738B90DF5077D4FF0FF30BDE8F04F04B07047304693A903AAFFF7ACFD8346607A6E2815DC80F29480582804DC44DA252800F0A980ADE0692800F3AB806328C0F2A88000F09680642810D069280ED0A0E0782800F39E80732805DB52D075282BD0782829D095E06F2826D092E0207A032803BF9399091D939193991CBF091D9391091F0F68022801D13FB202E0012800D17FB2059906980091019003A80CC887A93846FFF785FE0746002800F0728086A90331A1EB000885E0217A032903BF9398001D939093981CBF001D9390001F0768022901D1BFB202E0012900D1FFB2059906980091019003A80E
S3FD00005C080CC887A93846FFF75FFE074600284CD086A90331A1EB000860E09398001D9390001F07680FB9DFF8C671E07948B1A07917F8018B002851D006988045C8BF80464CE0A07958B1DDF81880384600214246FFF786FC002841D0A0EB07083EE03846FFF7E6FC804639E09398001D9390001F0168207A28B1801E05D0401E08BF0D60A9E00D60A7E00D80A5E0939807AF001D9390001F00684FF0010820751EE0252007AF20754FF0010818E03046FFF7C0FC0246AD185AB148463146D04738B90DF5077D4FF0FF30BDE8F04F04B070470DF5077D2846BDE8F04F04B070472079464600284FD002280CBF30202020607038782B2803D02D2801D0D6
S3FD00005D00202812D1607830280FD1484639460122D04738B90DF5077D4FF0FF30BDE8F04F04B070477F1CA8F10108207902282AD1607A612801D0412825D1B8F1020FB8BF4FF0FF3051DB484639460222D04738B90DF5077D4FF0FF30BDE8F04F04B07047A8F10208BF1C0EE002A9484601310122D04738B90DF5077D4FF0FF30BDE8F04F04B07047761C05988642EDDBB8F1000F0CD0484639464246D04738B90DF5077D4FF0FF30BDE8F04F04B070472079A8B920270DF108080EE04846414601222770D04738B90DF5077D4FF0FF30BDE8F04F04B07047761C05988642EDDBAD199BF8000000287FF479AE28460DF5077DBDE8F04F04B0704760EFDF
S3FD00005DF8FF1F00000121B0F5807F98BF0021002911BF0020DFF80810085C00F0200070475863000010B5DFF81E4006E010680021206090685268C94390472268002AF5D1BDE810407047F4F2FF1F0000DFF804301847C046515E0000DFF808101820ABBEF746C046260002002DE9F04117688846012F06D84046FBF77DFA0020BDE8F04170470026DFF8425000240CE0284608EB06015022FFF7DEFB284685F85040FBF783FA503F5036502FF0D857B1284608EB06013A46FFF7CEFB0020E8552846FBF773FA0020BDE8F0417047F8F2FF1F000080EA010C0CF0004C0028BCBFC0F100000CF1010C0029B8BFC1F1000100F0ED8088423CBF4FEA00016B
S3FD00005EF04FF00000C0F0E5804FF01C024FEA1013B1EB133FDCBFA2F110024FEA1343B1EB131FDCBFA2F108024FEA13239942DCBFA2F104024FEA131300FA02F0C1F10001001802EB42024FEA82027A44974651EB430338BFA3EB0103404151EB430338BFA3EB0103404151EB430338BFA3EB0103404151EB430338BFA3EB0103404151EB430338BFA3EB0103404151EB430338BFA3EB0103404151EB430338BFA3EB0103404151EB430338BFA3EB0103404151EB430338BFA3EB0103404151EB430338BFA3EB0103404151EB430338BFA3EB0103404151EB430338BFA3EB0103404151EB430338BFA3EB0103404151EB430338BFA3EB0103404151EBE3
S3FD00005FE8430338BFA3EB0103404151EB430338BFA3EB0103404151EB430338BFA3EB0103404151EB430338BFA3EB0103404151EB430338BFA3EB0103404151EB430338BFA3EB0103404151EB430338BFA3EB0103404151EB430338BFA3EB0103404151EB430338BFA3EB0103404151EB430338BFA3EB0103404151EB430338BFA3EB0103404151EB430338BFA3EB0103404151EB430338BFA3EB0103404151EB430338BFA3EB0103404151EB430338BFA3EB0103404151EB430338BFA3EB0103404151EB430338BFA3EB0103404151EB430338BFA3EB010340414FEA03011CF0004318BFC0F100001CF0010318BFC1F1000170474FEA00014FF0000041
S3FD000060E070470000002908BF704788423EBF4FEA00014FF0000070474FF01C024FEA1013B1EB133FDCBFA2F110024FEA1343B1EB131FDCBFA2F108024FEA13239942DCBFA2F104024FEA131300FA02F0C1F10001001802EB42024FEA82027A44974651EB430338BFA3EB0103404151EB430338BFA3EB0103404151EB430338BFA3EB0103404151EB430338BFA3EB0103404151EB430338BFA3EB0103404151EB430338BFA3EB0103404151EB430338BFA3EB0103404151EB430338BFA3EB0103404151EB430338BFA3EB0103404151EB430338BFA3EB0103404151EB430338BFA3EB0103404151EB430338BFA3EB0103404151EB430338BFA3EB010339
S3FD000061D8404151EB430338BFA3EB0103404151EB430338BFA3EB0103404151EB430338BFA3EB0103404151EB430338BFA3EB0103404151EB430338BFA3EB0103404151EB430338BFA3EB0103404151EB430338BFA3EB0103404151EB430338BFA3EB0103404151EB430338BFA3EB0103404151EB430338BFA3EB0103404151EB430338BFA3EB0103404151EB430338BFA3EB0103404151EB430338BFA3EB0103404151EB430338BFA3EB0103404151EB430338BFA3EB0103404151EB430338BFA3EB0103404151EB430338BFA3EB0103404151EB430338BFA3EB0103404151EB430338BFA3EB010340414FEA030170474FEA00014FF0000070470000C0
S3FD000062D099290000992A00009D2A0000FD300000DD2A0000C52A0000052B000000000000F5310000092B000000000000A5310000000000000000000000000000030102003D3500000000000009000000491600000000000000000000000000000000000000000000400000000F00000000000000000000000000000000000000000100000000000000000000404040404040404040414141414140404040404040404040404040404040404005020202020202020202020202020202A0A0A0A0A0A0A0A0A0A002020202020202909090909090101010101010101010101010101010101010101002020202020288888888888808080808080808080837
S39D000063C8080808080808080808080802020202400000000000000000000000000000000000000000000000000000000000000000000000000000000000000000000000000000000000000000000000000000000000000000000000000000000000000000000000000000000000000000000000000000000000000000000000000000000000000000000000000000000000000000000000000000000097
S3FD000064600A2A2A2A2A64656661756C745F69737220656E7465726564206F6E20766563746F722025642A2A2A2A2A0D0A0A000A2046414D5F4944203D2030782578000A4B31302D000A4B32302D000A4B33302D000A4B34302D000A4B36302D000A556E7265636F676E697A6564204B696E657469732066616D696C79206465766963652E0A000A2050494E5F4944203D203078257800333270696E0A00343870696E0A00363470696E0A00383070696E0A00383170696E0A0031303070696E0A0031303470696E0A0031343470696E0A0031393670696E0A0032353670696E0A000A556E7265636F676E697A6564204B696E65746973207061636B612A
S3FD00006558676520636F6465202E0A000A205245565F4944203D2030782578200A0053696C69636F6E2072657620312E300A0053696C69636F6E2072657620312E310A0053696C69636F6E2072657620312E320A000A546869732076657273696F6E206F6620736F66747761726520646F65736E2774207265636F676E697A6520746865207265766973696F6E20636F64652E000A2052414D5F53495A455F4944203D2030782578200A0038206B4279746573206F662052414D0A0A003136206B4279746573206F662052414D0A0A003332206B4279746573206F662052414D0A0A003634206B4279746573206F662052414D0A0A003936206B42797435
S3FD000066506573206F662052414D0A0A00313238206B4279746573206F662052414D0A0A0020455252212120556E646566696E65642052414D2073697A650A0A00466C61736820706172616D657465722076657273696F6E2025642E25642E25642E25640A00466C6173682076657273696F6E2049442025642E25642E25642E25640A000A4552522120496E76616C6964204952512076616C75652070617373656420746F20656E61626C65206972712066756E6374696F6E210A0053746F70204D6F64652041636B6E6F776C65646765204572726F722052657365740A00457A506F72742052657365740A004D444D2D41502052657365740A00536F16
S3FD000067486674776172652052657365740A00436F7265204C6F636B7570204576656E742052657365740A004A5441472052657365740A00506F7765722D6F6E2052657365740A0045787465726E616C2050696E2052657365740A005761746368646F6728434F50292052657365740A004C6F7373206F6620436C6F636B2052657365740A004C6F772D766F6C74616765204465746563742052657365740A005B6F75745352535D57616B65757020626974207365742066726F6D206C6F7720706F776572206D6F646520657869740A005B6F75745352535D534D435F504D50524F542020203D202523303258200D0A005B6F75745352535D534D435FAA
S3FD00006840504D4354524C2020203D202523303258200D0A005B6F75745352535D534D435F564C4C534354524C2020203D202523303258200D0A005B6F75745352535D534D435F504D535441542020203D202523303258200D0A005B6F75745352535D204C4C532065786974200A005B6F75745352535D20564C4C53302065786974200A005B6F75745352535D20564C4C53312065786974200A005B6F75745352535D20564C4C53322065786974200A005B6F75745352535D20564C4C53332065786974200A005B6F75745352535D52434D5F53525330206973205A45524F2020203D202523303258200D0A005B6F75745352535D52434D5F53525331FD
S3FD00006938206973205A45524F2020203D202523303258200D0A000000051500002400030000FF0000811D00002C00090000FF00000000000000000000000000000000000000000000000000000000000000000000000000000000000000000000000000000000000000000000000000000000000000000000000000000000000000000000000000000000000000000000000000000000000000000000000000000000000000000000000000000000000000000000000000000000000000000000000000000000000000000000000000000000000000000000000000000000000000000000000000000000000000000000000000000000000000000000FD
S3FD00006A30000000000000000000000000000000000000000000000000000000000000000001000000000000000000000000000000000000000000000000000000000000000000000000000000000000000000000000000000000000000000000000000000000000000000000000000000000000000000000000000000000000000000000000000000000000000000000000000000000000000000000000000000000000000000000000000000000000000000000000000000000000000000000000000000000000000000000000000000000000000000000000000000000000000000000000000000000000000000000000000000000000000000000067
S3FD00006B2800000000000000000000000000000000000000000000000000000000000000000000000000000000000000000000000000000000000000000000000000000000000000000000000000000000000000000000000000000000000000000000000000000000000000000000000000000000000000000000000000000000000000000000000000000000000000000000000000000000000000000000000000000000000000000000000000000000000000000000000000000000000000000000000000000000000000000000000000000000000000000000000000000000000000000000000000000000000000000000000000000000000000006F
S3FD00006C200000000000000000000000000000000000000000000000000000000000000000000000000000000000000000000000000A0000004D61696E204F4B0A0D0055534220484F535420496E6974204F4B0A0D000A55534220484944204D6F7573650A57616974696E6720666F7220555342204D6F75736520746F2062652061747461636865642E2E2E0A00000000010000000A4D6F75736520646576696365206174746163686564000A4572726F7220696E205F7573625F686F73746465765F73656C6563745F696E746572666163653A202578004D6F75736520696E74657266616365642C2073657474696E672070726F746F636F6C2E2E2E28
S3FD00006D180A000A4572726F7220696E207573625F636C6173735F6869645F7365745F70726F746F636F6C3A202578004D6F757365206465766963652072656164792C2074727920746F206D6F766520746865206D6F7573650A000A4572726F7220696E205F7573625F686F73745F726563765F646174613A20257800476F696E6720746F2069646C652073746174650A00556E6B6E6F776E204D6F75736520446576696365205374617465203D2025640A002D2D2D2D2D20417474616368204576656E74202D2D2D2D2D0A005374617465203D202564002020436C617373203D202564002020537562436C617373203D20256400202050726F746F63EE
S3FD00006E106F6C203D2025640A004849442064657669636520616C7265616479206174746163686564202D204445565F5354415445203D2025640A002D2D2D2D2D20496E7465726661636564204576656E74202D2D2D2D2D0A002D2D2D2D2D20446574616368204576656E74202D2D2D2D2D0A0020205374617465203D2025640048494420446576696365207374617465203D2025643F3F0A000A484944205365745F50726F746F636F6C205265717565737420424F4F54206973206E6F7420737570706F72746564210A000A484944205365745F50726F746F636F6C205265717565737420424F4F54206661696C6564213A2030782578202E2E2E2084
S3CD00006F08454E44210A004C65667420436C69636B2000202020202020202020202000526967687420436C69636B2000202020202020202020202020004D6964646C6520436C69636B200020202020202020202020202020004C6566742020005269676874200020202020202000555020202000446F776E2000202020202000576865656C20446F776E00576865656C20555020200020202020202020202020000A000000F0F2FF1F50F3FF1F0000000080210020C4F2020001700020C4F20200007800F080000028F7D0704747
S70500000A6C84
