S0030000FC
S3FD00000000C0FFFF1F0D0B0000B1040000B1040000B1040000B1040000B1040000B1040000B1040000B1040000B1040000B1040000B1040000B1040000B1040000B1040000B1040000B1040000B1040000B1040000B1040000B1040000B1040000B1040000B1040000C5100000B1040000B1040000B1040000B1040000B1040000B1040000B1040000B1040000B1040000B1040000B1040000B1040000B1040000B1040000B1040000B1040000B1040000B1040000B1040000B1040000B1040000B1040000B1040000B1040000B1040000B1040000B1040000B1040000B1040000B1040000B1040000B1040000A92D0000B1040000B1040000B104000060
S3FD000000F8FFFFFFFFFFFFFFFFFFFFFFFFFFFFFFFFFFFFFFFFFFFFFFFFFFFFFFFFFFFFFFFFFFFFFFFFFFFFFFFFFFFFFFFFFFFFFFFFFFFFFFFFFFFFFFFFFFFFFFFFFFFFFFFFFFFFFFFFFFFFFFFFFFFFFFFFFFFFFFFFFFFFFFFFFFFFFFFFFFFFFFFFFFFFFFFFFFFFFFFFFFFFFFFFFFFFFFFFFFFFFFFFFFFFFFFFFFFFFFFFFFFFFFFFFFFFFFFFFFFFFFFFFFFFFFFFFFFFFFFFFFFFFFFFFFFFFFFFFFFFFFFFFFFFFFFFFFFFFFFFFFFFFFFFFFFFFFFFFFFFFFFFFFFFFFFFFFFFFFFFFFFFFFFFFFFFFFFFFFFFFFFFFFFFFFFFFFFFFFFFFFFFFFFFFFFFFFFFFFFFFFFFFFFFFFFFFFFFFFFFFFFFFFFFFFFFFFFFFFFFFFFFFFFFFFFFFFFFFFFFFFFFFFFFFFFFFFFF02
S3FD000001F0FFFFFFFFFFFFFFFFFFFFFFFFFFFFFFFFFFFFFFFFFFFFFFFFFFFFFFFFFFFFFFFFFFFFFFFFFFFFFFFFFFFFFFFFFFFFFFFFFFFFFFFFFFFFFFFFFFFFFFFFFFFFFFFFFFFFFFFFFFFFFFFFFFFFFFFFFFFFFFFFFFFFFFFFFFFFFFFFFFFFFFFFFFFFFFFFFFFFFFFFFFFFFFFFFFFFFFFFFFFFFFFFFFFFFFFFFFFFFFFFFFFFFFFFFFFFFFFFFFFFFFFFFFFFFFFFFFFFFFFFFFFFFFFFFFFFFFFFFFFFFFFFFFFFFFFFFFFFFFFFFFFFFFFFFFFFFFFFFFFFFFFFFFFFFFFFFFFFFFFFFFFFFFFFFFFFFFFFFFFFFFFFFFFFFFFFFFFFFFFFFFFFFFFFFFFFFFFFFFFFFFFFFFFFFFFFFFFFFFFFFFFFFFFFFFFFFFFFFFFFFFFFFFFFFFFFFFFFFFFFFFFFFFFFFFFFFFFF09
S3FD000002E8FFFFFFFFFFFFFFFFFFFFFFFFFFFFFFFFFFFFFFFFFFFFFFFFFFFFFFFFFFFFFFFFFFFFFFFFFFFFFFFFFFFFFFFFFFFFFFFFFFFFFFFFFFFFFFFFFFFFFFFFFFFFFFFFFFFFFFFFFFFFFFFFFFFFFFFFFFFFFFFFFFFFFFFFFFFFFFFFFFFFFFFFFFFFFFFFFFFFFFFFFFFFFFFFFFFFFFFFFFFFFFFFFFFFFFFFFFFFFFFFFFFFFFFFFFFFFFFFFFFFFFFFFFFFFFFFFFFFFFFFFFFFFFFFFFFFFFFFFFFFFFFFFFFFFFFFFFFFFFFFFFFFFFFFFFFFFFFFFFFFFFFFFFFFFFFFFFFFFFFFFFFFFFFFFFFFFFFFFFFFFFFFFFFFFFFFFFFFFFFFFFFFFFFFFFFFFFFFFFFFFFFFFFFFFFFFFFFFFFFFFFFFFFFFFFFFFFFFFFFFFFFFFFFFFFFFFFFFFFFFFFFFFFFFFFFFFFFF10
S3FD000003E0FFFFFFFFFFFFFFFFFFFFFFFFFFFFFFFFFFFFFFFFFFFFFFFFFFFFFFFFFFFFFFFFFFFFFFFFFFFFFFFFFFFFFFFFFEFFFFFF2DE9F843DFF87A10DFF87A0081420DD0002408E0A100DFF86E004258A100DFF862004250641CB4F5807FF3D3DFF8520000F09EFBDFF85250DFF85270DFF852008046A8EB050405E038467F1C29466D1C007808702046641E0028F5D1DFF83660DFF836008146A9EB060403E03146761C002008702046641E0028F7D1BDE8F843704700E0FF1F0000000010E4FF1F003E000050F7FF1F50F7FF1FB9F7FF1F000008B5DFF818004EF60451CEF20001097802F0B2FEBDE808407047C04610E4FF1F08B582B048F23801BD
S3FD000004D8C4F20401086840F4785008604DF20200C4F20700007800F00800002807D04DF20201C4F20701087840F0080008704FF4803148F24400C4F2040001604DF20200C4F20700007800F00800002807D04DF20201C4F20701087840F008000870192000900120019041F20020C0F27A0000210122042300F0C4FFDFF860110860DFF85C010068B0F5807F00DAFEE7DFF84C0100684FF47A7103F0B1FADFF844110860DFF83C01016848F24400C4F20400006800F07040000F401CB1FBF0F1DFF824010160DFF81C01016848F24400C4F20400006800F07060000E401CB1FBF0F1DFF80801016000F082F800F090F84BF20001C4F206014AF20000FD
S3FD000005D0C4F2060081420DD14FF440714CF21800C4F2040001604FF440714CF21C00C4F2040001604BF20001C4F206014BF20000C4F2060081420DD14FF440714DF20000C4F2040001604FF440714DF20400C4F2040001604BF20001C4F206014CF20000C4F2060081420DD14FF440714CF20C00C4F2040001604FF440714CF20800C4F2040001604BF20001C4F206014AF20000C4F20600814209D04BF20001C4F206014BF20000C4F2060081420BD14BF20000C4F20600DFF8341009684FF4E13201F0F9FE0AE04BF20000C4F20600DFF8201009684FF4E13201F0EDFE02B0BDE808407047C04664F7FF1F60F7FF1F5CF7FF1F58F7FF1F48F20401B0
S3FD000006C8C4F20401086840F4805008604FF4E06149F21800C4F204000160704748F20402C4F2040211686FF0E0000840106048F20401C4F20401086840F0400008604FF4A8614BF20C00C4F2040001607047000008B501F03FFFFFF777FEFFF7D5FE01F063FB00F003F801F057FFFEE708B5DFF8660248F22401C4F20401096801F07001090902F06DFD48F22400C4F20400006800F070000009042826D84FEA80008744F0BF00F008B800F00BB800F00EB800F011B800F014B8DFF8220202F051FD17E0DFF81A0202F04CFD12E0DFF8160202F047FD0DE0DFF80E0202F042FD08E0DFF80A0202F03DFD03E0DFF8020202F038FDDFF8FE0148F22401A1
S3FD000007C0C4F20401096801F00F0102F02DFD48F22400C4F20400006800F00F000E2853D84FEA80008744F0BF00F04EB800F04CB800F018B800F048B800F019B800F01CB800F01FB800F022B800F025B800F028B800F02BB800F038B800F02CB800F034B800F02DB8DFF8960102F0FEFC30E0DFF8920102F0F9FC2BE0DFF88A0102F0F4FC26E0DFF8860102F0EFFC21E0DFF87E0102F0EAFC1CE0DFF87A0102F0E5FC17E0DFF8720102F0E0FC12E0DFF86E0102F0DBFC0DE0DFF8660102F0D6FC08E0DFF8620102F0D1FC03E0DFF85A0102F0CCFCDFF8560148F22401C4F20401096801F47041090B02F0C0FC48F22400C4F20400006800F47040000BC0
S3FD000008B8001E002806D0401E002808D0401E00280AD00EE0DFF81E0102F0AAFC0DE0DFF81A0102F0A5FC08E0DFF8120102F0A0FC03E0DFF80E0102F09BFC00F095F8DFF8060147F20001C4F20401096801F47041090B02F08DFC47F20000C4F20400006800F47040000B092835D84FEA80008744F0BF00F030B800F010B800F02CB800F011B800F028B800F012B800F024B800F013B800F016B800F019B8DFF8AE0002F067FC1CE0DFF8A60002F062FC17E0DFF8A20002F05DFC12E0DFF89A0002F058FC0DE0DFF8960002F053FC08E0DFF88E0002F04EFC03E0DFF88A0002F049FCBDE808407047C0463EE4FF1F4EE4FF1F54E4FF1F5AE4FF1F60E4D4
S3FD000009B0FF1F66E4FF1F6CE4FF1F92E4FF1FA2E4FF1FA9E4FF1FB0E4FF1FB7E4FF1FBEE4FF1FC5E4FF1FCDE4FF1FD5E4FF1FDDE4FF1FE5E4FF1FEDE4FF1F13E5FF1F25E5FF1F36E5FF1F47E5FF1F58E5FF1F97E5FF1FAEE5FF1FC0E5FF1FD3E5FF1FE6E5FF1FF9E5FF1F0CE6FF1F20E6FF1F000008B570210020C4F20200017003210720C4F20200017000210620C4F20200017000210520C4F20200017000210420C4F20200017001210F20C4F202000170DFF8A00080470820C4F2020000780090DFF894000B21C4F2020109780A22C4F2020212780923C4F202031B7802F0CDFB03210720C4F20200017000210620C4F20200017000210520C4F2BF
S3FD00000AA80200017004210420C4F20200017001210F20C4F202000170DFF83C0080470820C4F2020000780090DFF834000B21C4F2020109780A22C4F2020212780923C4F202031B7802F09CFB70210020C4F202000170BDE80840704735F7FF1F3CE6FF1F61E6FF1FDFF8400085464FF000004FF000014FF000024FF000034FF000044FF000054FF000064FF000074FF000084FF000094FF0000A4FF0000B4FF0000C62B6FFF7E6FDFFF7FEBFC0FFFF1F4EF61051CEF20001086840F00400086030BF70474EF61052CEF2000211686FF004000840106030BF704700000FB400994EF60850CEF20000016004B07047000038B504463D2C03DDDFF8C6009F
S3FD00000BA002F042FB201104EBD0604511281E002806D0401E00281ED0401E002836D04FE00122E10FC1EBC46001EBF06002FA00F14EF28020CEF2000001600122E10FC1EBC46001EBF06002FA00F14EF20010CEF20000016034E00122E10FC1EBC46001EBF06002FA00F14EF28420CEF2000001600122E10FC1EBC46001EBF06002FA00F14EF20410CEF20000016019E00122E10FC1EBC46001EBF06002FA00F14EF28820CEF2000001600122E10FC1EBC46001EBF06002FA00F14EF20810CEF200000160BDE8384070477FE6FF1F00000FB470B506460D464CF20000C4F20700047806F00100002810D0E8B200F003002043C4B2DFF8C40302F0C8FA40
S3FD00000C984CF20501C4F20701087840F00100087006F00200002811D0A800C0B200F00C002043C4B2DFF89C0302F0B2FA4CF20501C4F20701087840F00200087006F00400002811D02801C0B200F030002043C4B2DFF8740302F09CFA4CF20501C4F20701087840F00400087006F00800002811D0A801C0B200F0C0002043C4B2DFF84C0302F086FA4CF20501C4F20701087840F0080008704CF20000C4F2070004704CF20100C4F20700047806F01000002810D0E8B200F003002043C4B2DFF8140302F067FA4CF20501C4F20701087840F01000087006F02000002811D0A800C0B200F00C002043C4B2DFF8EC0202F051FA4CF20501C4F2070108788B
S3FD00000D9040F02000087006F04000002811D02801C0B200F030002043C4B2DFF8C40202F03BFA4CF20501C4F20701087840F04000087006F08000002811D0A801C0B200F0C0002043C4B2DFF89C0202F025FA4CF20501C4F20701087840F0800008704CF20100C4F2070004704CF20200C4F20700047806F48070002810D0E8B200F003002043C4B2DFF8600202F006FA4CF20601C4F20701087840F00100087006F40070002811D0A800C0B200F00C002043C4B2DFF8380202F0F0F94CF20601C4F20701087840F00200087006F48060002811D02801C0B200F030002043C4B2DFF8100202F0DAF94CF20601C4F20701087840F00400087006F4006088
S3FD00000E88002811D0A801C0B200F0C0002043C4B2DFF8E80102F0C4F94CF20601C4F20701087840F0080008704CF20200C4F2070004704CF20300C4F20700047806F48050002810D0E8B200F003002043C4B2DFF8B00102F0A5F94CF20601C4F20701087840F01000087006F40050002811D0A800C0B200F00C002043C4B2DFF8880102F08FF94CF20601C4F20701087840F02000087006F48040002811D02801C0B200F030002043C4B2DFF8600102F079F94CF20601C4F20701087840F04000087006F40040002811D0A801C0B200F0C0002043C4B2DFF8380102F063F94CF20601C4F20701087840F0800008704CF20300C4F20700047006A8017859
S3FD00000F804CF20400C4F207000170DFF80C014CF20001C4F20701097802F046F9DFF8FC004CF20101C4F20701097802F03DF9DFF8F0004CF20201C4F20701097802F034F9DFF8E0004CF20301C4F20701097802F02BF9DFF8D4004CF20401C4F20701097802F022F9DFF8C4004CF20501C4F20701097802F019F9DFF8B8004CF20601C4F20701097802F010F9DFF8A8004CF20701C4F20701097802F007F9DFF89C004CF20801C4F20701097802F0FEF8DFF88C004CF20901C4F20701097802F0F5F8DFF880004CF20A01C4F20701097802F0ECF8BDE8704004B07047B7E6FF1F0CE7FF1F59E7FF1FA5E7FF1FF2E7FF1F42E8FF1F99E8FF1FE5E8FF1F26
S3FD0000107830E9FF1F7CE9FF1FC8E9FF1F0CEAFF1F50EAFF1F9DEAFF1FDFEAFF1F32EBFF1F87EBFF1FA0EBFF1FB5EBFF1FCEEBFF1FE3EBFF1FFCEBFF1F11ECFF1F2AECFF1F3FECFF1F58ECFF1F6DECFF1F10B54CF20500C4F20700007800F00100002807D04CF20501C4F20701087840F0010008704CF20500C4F20700007800F00200002807D04CF20501C4F20701087840F0040008704CF20500C4F20700007800F00400002807D04CF20501C4F20701087840F0040008704CF20500C4F20700007800F00800002807D04CF20501C4F20701087840F0080008704CF20500C4F20700007800F01000002807D04CF20501C4F20701087840F010000870B4
S3FD000011704CF20500C4F20700007800F02000002807D04CF20501C4F20701087840F0200008704CF20500C4F20700007800F04000002807D04CF20501C4F20701087840F0400008704CF20500C4F20700007800F08000002807D04CF20501C4F20701087840F0800008704CF20600C4F20700007800F00100002807D04CF20601C4F20701087840F0010008704CF20600C4F20700007800F00200002807D04CF20601C4F20701087840F0020008704CF20600C4F20700007800F00400002807D04CF20601C4F20701087840F0040008704CF20600C4F20700007800F00800002807D04CF20601C4F20701087840F0080008704CF20600C4F2070000782B
S3FD0000126800F01000002807D04CF20601C4F20701087840F0100008704CF20600C4F20700007800F02000002807D04CF20601C4F20701087840F0200008704CF20600C4F20700007800F04000002817D048F23801C4F20401086840F4805008604CF20601C4F20701087840F0400008704CF21001C4F20401086840F0807008604CF20600C4F20700007800F0800000283DD048F23801C4F20401086840F4805008604AF20000C4F2060001F029F90446DFF8B601826EDFF8B201806E411EDFF8AA018166002A0DD0DFF89E01426EDFF89A01406E411CDFF892014166E0B21070107804E02046DFF8861101F0F1FE4CF20601C4F20701087840F08000F1
S3FD0000136008704CF21801C4F20401086840F0807008604CF20700C4F20700007800F00100002807D04CF20701C4F20701087840F0010008704CF20700C4F20700007800F00200002807D04CF20701C4F20701087840F0020008704CF20700C4F20700007800F00400002807D04CF20701C4F20701087840F0040008704CF20700C4F20700007800F00800002807D04CF20701C4F20701087840F0080008704CF20700C4F20700007800F01000002807D04CF20701C4F20701087840F0100008704CF20700C4F20700007800F02000002807D04CF20701C4F20701087840F0200008704CF20700C4F20700007800F04000002807D04CF20701C4F2070164
S3FD00001458087840F0400008704CF20700C4F20700007800F08000002807D04CF20701C4F20701087840F0800008704CF20800C4F20700007800F08000002807D04CF20801C4F20701087840F0800008704CF20900C4F20700007800F08000002807D04CF20901C4F20701087840F080000870BDE810407047C04664F6FF1FA8F6FF1F00000FB42DE9F84F06469846DDF838B044F20600C4F20600007800F00C008008002811D144F20600C4F20600007800F01000002808D044F20600C4F20600007800F02000002801D00120A0E14FF28000C0F2FA20864201DD212098E10CA8007800280DD04CF2C060C0F22D00864205DB44F60000C0F2E810864244
S3FD0000155001DD222086E10BA80078002802D001210BA80170B8F1010F02DBB8F1190F01DD412077E1BBF1180F02DBBBF1370F01DD42206FE196FBF8F0814648F28040C0F21E00814505DB40F60010C0F23D00814501DD43205EE196FBF8F00BFB00F0824646F60040C0F2DC20824505DB4EF20010C0F2F550824501DD45204BE144F20100C4F20600047804F0C3044CF2C060C0F22D0086420BDC0BA80078C00040F010000CA9097889000843C0B204430AE00BA80078C00040F020000CA9097889000843C0B2044344F20100C4F20600047041F2D020C0F21300864201DC002720E042F2A050C0F22600864201DC012718E044F64030C0F24C00864293
S3FD0000164801DC022710E049F28060C0F29800864201DC032708E042F60050C0F23110864201DC042700E0052744F20000C4F20600047804F00304F800C0B200F0380040F08000C4B244F20000C4F2060004700CA8007800281BD000250AE044F20600C4F20600007800F00200002805D16D1C2DB242F210708542F0DB44F20600C4F20600007800F00200002801D12320C6E000250BE044F20600C4F20600007800F00C008008022804D06D1C2DB2B5F5FA6FF0DB44F20600C4F20600007800F00C008008022801D01A20A9E044F20501C4F20601087840F02000087044F20400C4F20600047804F0E004A8F10100C0B2C0B200F01F002043C4B244F2F2
S3FD000017400400C4F20600047044F20500C4F20600047804F0E004ABF11800C0B2C0B200F01F0040F04000C0B2044344F20500C4F20600047000250AE044F20600C4F20600007800F02000002804D16D1C2DB2B5F5FA6FF1DB44F20600C4F20600007800F02000002801D116205CE000250AE044F20600C4F20600007800F04000002804D16D1C2DB2B5F5FA6FF1DB44F20600C4F20600007800F04000002801D1442041E044F20400C4F20600007800F01F00401CC1B200A8417044F20500C4F20600007800F01F001830C1B200A8017044F20001C4F20601087800F03F00087000250BE044F20600C4F20600007800F00C008008032804D06D1C2DB2A3
S3FD00001838B5F5FA6FF0DB44F20600C4F20600007800F00C008008032801D01B2006E000A8017800A8407896FBF0F04843BDE8F84F04B070470FB418B444F20600C4F20600007800F00C008008032811D144F20600C4F20600007800F01000002808D144F20600C4F20600007800F02000002801D1082025E044F20001C4F20601087840F08000087000240BE044F20600C4F20600007800F00C008008022804D0641C24B2B4F5FA6FF0DB44F20600C4F20600007800F00C008008022801D01A2000E0029818BC04B0704700000FB478B444F20600C4F20600007800F00C00800802281AD144F20600C4F20600007800F01000002811D144F20600C4F231
S3FD000019300600007800F02000002808D044F20100C4F20600007800F00200002801D0072055E000240AE044F20600C4F20600007800F04000002804D1641C24B2B4F5FA6FF1DB44F20600C4F20600007800F04000002801D144203AE044F20400C4F20600007800F01F00401CC5B244F20500C4F20600007800F01F001830C6B244F20001C4F20601087800F03F00087000240BE044F20600C4F20600007800F00C008008032804D0641C24B2B4F5FA6FF0DB44F20600C4F20600007800F00C008008032801D01B2003E0049890FBF5F0704378BC04B070470FB444F20600C4F20600007800F00C00800802281AD144F20600C4F20600007800F01000FC
S3FD00001A28002811D144F20600C4F20600007800F02000002808D044F20100C4F20600007800F00200002801D0072008E044F20101C4F20601087840F002000870009804B0704700002DE9F04180460E46174644F20600C4F20600007800F00C008008022811D144F20600C4F20600007800F01000002808D144F20100C4F20600007800F00200002801D1062085E0012E01DB192E01DD41207FE0182F01DB372F01DD422079E098FBF6F148F28040C0F21E00814207DB98FBF6F140F60010C0F23D00814201DD432067E044F20400C4F20600047804F0E004701EC0B2C0B200F01F002043C4B244F20400C4F20600047044F20500C4F20600047804F034
S3FD00001B20E004A7F11800C0B2C0B200F01F0040F04000C0B2044344F20500C4F20600047044F20101C4F20601087800F0FD00087000250AE044F20600C4F20600007800F02000002804D16D1C2DB2B5F5FA6FF1DB44F20600C4F20600007800F02000002801D116201BE000250AE044F20600C4F20600007800F04000002804D16D1C2DB2B5F5FA6FF1DB44F20600C4F20600007800F04000002801D1442000E04046BDE8F041704744F20600C4F20600007800F00C008008002813D144F20600C4F20600007800F0100000280AD044F20600C4F20600007800F02000002801D10320F6E044F20600C4F20600007800F00C008008032813D144F206004C
S3FD00001C18C4F20600007800F0100000280AD144F20600C4F20600007800F02000002801D00820D8E044F20600C4F20600007800F00C00800802281CD144F20600C4F20600007800F01000002813D144F20600C4F20600007800F0200000280AD044F20100C4F20600007800F00200002801D10720B1E044F20600C4F20600007800F00C00800802281CD144F20600C4F20600007800F01000002813D144F20600C4F20600007800F0200000280AD144F20100C4F20600007800F00200002801D105208AE044F20600C4F20600007800F00C008008022813D144F20600C4F20600007800F0100000280AD144F20100C4F20600007800F00200002801D06B
S3FD00001D1006206CE044F20600C4F20600007800F00C00800801281CD144F20600C4F20600007800F01000002813D044F20600C4F20600007800F0200000280AD144F20100C4F20600007800F00200002801D0012045E044F20600C4F20600007800F00C00800801281CD144F20600C4F20600007800F01000002813D044F20600C4F20600007800F0200000280AD144F20100C4F20600007800F00200002801D102201EE044F20600C4F20600007800F00C008008002813D144F20600C4F20600007800F0100000280AD144F20600C4F20600007800F02000002801D1042000E00020704708B54FF20100C4F20700007800F02000002803D0DFF87E02E2
S3FD00001E0801F00EFA4FF20100C4F20700007800F01000002803D0DFF86A0201F001FA4FF20100C4F20700007800F00800002803D0DFF8520201F0F4F94FF20100C4F20700007800F00400002803D0DFF83E0201F0E7F94FF20100C4F20700007800F00200002803D0DFF8260201F0DAF94FF20100C4F20700007800F00100002803D0DFF8120201F0CDF94FF20000C4F20700007800F08000002803D0DFF8FA0101F0C0F94FF20000C4F20700007800F04000002803D0DFF8E60101F0B3F94FF20000C4F20700007800F02000002803D0DFF8CE0101F0A6F94FF20000C4F20700007800F00400002803D0DFF8BA0101F099F94FF20000C4F20700007855
S3FD00001F0000F00200002803D0DFF8A20101F08CF94FF20000C4F20700007800F00100002800F08D80DFF88A0101F07EF9DFF886014EF20001C4F20701097801F075F9DFF87A014EF20101C4F20701097801F06CF9DFF86A014EF20201C4F20701097801F063F9DFF85E014EF20301C4F20701097801F05AF94EF20100C4F20700007800F00700032803D1DFF83E0101F04DF94EF20100C4F20700007800F0070004280CD14EF20200C4F20700007800F00700002803D1DFF8160101F037F94EF20100C4F20700007800F0070004280CD14EF20200C4F20700007800F00700012803D1DFF8EE0001F021F94EF20100C4F20700007800F0070004280CD16D
S3FD00001FF84EF20200C4F20700007800F00700022803D1DFF8C60001F00BF94EF20100C4F20700007800F0070004280CD14EF20200C4F20700007800F00700032803D1DFF89E0001F0F5F84FF20000C4F207000078002818D14FF20100C4F207000078002811D1DFF87E004FF20001C4F20701097801F0DEF8DFF86E004FF20101C4F20701097801F0D5F8BDE808407047C04682ECFF1FA5ECFF1FB3ECFF1FC1ECFF1FD1ECFF1FEAECFF1FF6ECFF1F06EDFF1F1AEDFF1F2FEDFF1F44EDFF1F5EEDFF1F8FEDFF1FAFEDFF1FCFEDFF1FF1EDFF1F11EEFF1F25EEFF1F3BEEFF1F51EEFF1F67EEFF1F7DEEFF1FA3EEFF1F000008B5FEF73FFDBDE808407047D0
S3FD000020F008B500214EF20100C4F207000170FEF729FDBDE8084070470FB408B54EF20300C4F20700007800F07F00042804D1DFF8800001F081F837E020214EF20000C4F20700017002A890F90000002806D0C0214EF20100C4F2070001700AE040214EF20100C4F20700017003E0DFF8480001F063F84DF20200C4F20700007800F004000428F2D0DFF8300001F056F803E0DFF82C0001F051F84EF20300C4F20700007800F07F000428F2D1BDE8084004B07047C9EEFF1FF0EEFF1F1DEFFF1F48EFFF1F08B54EF20300C4F20700007800F07F00042815D14EF20101C4F20701087800F09F00087003E0DFF81E0001F025F84DF20200C4F20700007899
S3FD000021E800F004000028F2D0BDE80840704785EFFF1F00000FB408B520214EF20000C4F20700017002A890F90000002811D04EF20100C4F20700007800F0E00040F0020040F08000C1B24EF20100C4F2070001700FE04EF20100C4F2070001786FF08000084040F00200C1B24EF20100C4F207000170FEF77BFCBDE8084004B07047000008B508214EF20000C4F20700017003214EF20100C4F207000170FEF767FCBDE80840704708B502214EF20000C4F2070001704EF20100C4F20700007800F0E00040F00400C1B24EF20100C4F20700017003214EF20200C4F207000170FEF746FCBDE808407047000008B502214EF20000C4F2070001704EF281
S3FD000022E00100C4F20700007800F0E00040F00400C1B24EF20100C4F20700017002214EF20200C4F207000170FEF724FCBDE808407047000008B54EF20100C4F20700007800F0E00040F00400C1B24EF20100C4F20700017001214EF20200C4F207000170FEF708FCBDE808407047000008B54EF20100C4F20700007800F0E00040F00400C1B24EF20100C4F20700017000214EF20200C4F207000170DFF858004EF20001C4F20701097800F04FFFDFF84C004EF20101C4F20701097800F046FFDFF83C004EF20201C4F20701097800F03DFFDFF830004EF20301C4F20701097800F034FFDFF8200000F030FFFEF7C4FBBDE808407047C046D3EFFF1F1E
S3FD000023D8F8EFFF1F1DF0FF1F44F0FF1F69F0FF1F08B54EF20100C4F20700007800F0E00040F00400C1B24EF20100C4F20700017020214EF20200C4F207000170DFF858004EF20001C4F20701097800F001FFDFF84C004EF20101C4F20701097800F0F8FEDFF83C004EF20201C4F20701097800F0EFFEDFF830004EF20301C4F20701097800F0E6FEDFF8200000F0E2FEFEF776FBBDE808407047C04693F0FF1FBEF0FF1FE9F0FF1F16F1FF1F69F0FF1F2DE9F8430446894690464AF20000C4F20600844208D148F23401C4F20401086840F4806008601CE04BF20000C4F20600844208D148F23401C4F20401086840F4006008600DE04CF20000C4F27C
S3FD000024D00600844207D148F23401C4F20401086840F480500860E07800F0F300E0700020A0704FF47A7009FB00F14FEA081091FBF0F085B221786FF01F000840C6B205F4F8500012C0B2C0B200F01F003043C0B22070E8B260704FF4FA4009FB00F14FEA081091FBF0F16801081A87B2A17A6FF01F000840C6B2F8B2C0B200F01F003043C0B2A072E07840F00C00E070BDE8F8437047000010B50446207900F020000028FAD0E07940B2BDE8104070470FB418B40446207900F080000028FAD003A890F90000C0B2E07118BC04B0704708B500F00DF842F20002C4F2050211884FF6FE7008401080BDE808407047000072B64CF2205142F20E00C4F2C6
S3FD000025C8050001804DF6281142F20E00C4F20500018062B67047000008B500214BF20C00C4F2040001602A214EF20000C4F20700017000F0A7FB00F0B1FB00F003F8BDE80840704770B5FF25DFF8820600F008FEDFF87E0600F004FEDFF87A0600F000FE84E0DFF8760600F0FBFDDFF8720600F0F7FDDFF86E0600F0F3FDDFF86A0600F0EFFDDFF8660600F0EBFDDFF8620600F0E7FDDFF85E0600F0E3FDDFF85A0600F0DFFDDFF8560600F0DBFDDFF8520600F0D7FDDFF84E0600F0D3FDDFF84A0600F0CFFDDFF8460600F0CBFDDFF84206426ADFF83A06406A411EDFF832064162002A0BD0DFF82A06026ADFF82206006A411CDFF81A06016210782E
S3FD000026C003E0DFF8120600F0E5FC44B2DFF80606826EDFF80206806E411EDFF8FA058166002A0DD0DFF8EE05426EDFF8EA05406E411CDFF8E2054166E0B21070107804E02046DFF8D61500F015FD302C04DB392C02DCA4F13000C5B2412C04DB472C02DCA4F13700C5B2612C04DB672C02DCA4F15700C5B20B2D3FF678AF0B2D00F2A8824FEA85008744F0BF00F016B800F03DB800F064B800F08BB800F0B2B800F0D9B800F019B900F063B900F09AB900F0CCB900F016BA00F047BADFF8620500F054FDDFF85205426ADFF84E05406A411EDFF846054162002A0BD0DFF83A05026ADFF83605006A411CDFF82E050162107803E0DFF8220500F06EFC99
S3FD000027B8DFF8260500F034FD00F092FBFFF710FE62E2DFF81A0500F02BFDDFF80205426ADFF8FA04406A411EDFF8F2044162002A0BD0DFF8EA04026ADFF8E204006A411CDFF8DA040162107803E0DFF8D20400F045FCDFF8D60400F00BFD00F069FBFFF799FD39E2DFF8CA0400F002FDDFF8AE04426ADFF8AA04406A411EDFF8A2044162002A0BD0DFF89604026ADFF89204006A411CDFF88A040162107803E0DFF87E0400F01CFCDFF88E0400F0E2FC00F040FBFFF754FD10E2DFF8820400F0D9FCDFF85E04426ADFF85604406A411EDFF84E044162002A0BD0DFF84604026ADFF83E04006A411CDFF836040162107803E0DFF82E0400F0F3FBDFF8BE
S3FD000028B0460400F0B9FC00F017FBFFF709FDE7E1DFF8360400F0B0FCDFF80A04426ADFF80604406A411EDFF8FE034162002A0BD0DFF8F203026ADFF8EE03006A411CDFF8E6030162107803E0DFF8DA0300F0CAFBDFF8FA0300F090FC00F0EEFAFFF7BEFCBEE1DFF8EE0300F087FCDFF8BA03426ADFF8B203406A411EDFF8AA034162002A0BD0DFF8A203026ADFF89A03006A411CDFF892030162107803E0DFF88A0300F0A1FBDFF8B20300F067FC00F0C5FAFFF783FCFFF72FF90646072E08D141F20020C0F27A00FEF7C4FFDFF88E130860012000F0E2FA012000F035FADFF87E03006800F052FA7CE1DFF8760300F045FCDFF83603426ADFF82E03B2
S3FD000029A8406A411EDFF826034162002A0BD0DFF81E03026ADFF81603006A411CDFF80E030162107803E0DFF8060300F05FFBDFF83A0300F025FCDFF8360300F021FC00F047FADFF81E130860DFF81603006800F01FFA00F075FA0120FFF7FCFB012000F09FFA00F051FADFF8FA120860012000F0EDF9DFF8EE02006800F00AFADFF8F20200F0FEFB30E1DFF8EE0200F0F9FBDFF89E02426ADFF89602406A411EDFF88E024162002A0BD0DFF88602026ADFF87E02006A411CDFF876020162107803E0DFF86E0200F013FBDFF8B20200F0D9FB00F0FFF9DFF88E120860DFF88602006800F0D7F9002000F05CFA0020FFF739FBDFF88E0200F0C5FBF7E0EA
S3FD00002AA0DFF8860200F0C0FBDFF82A02426ADFF82602406A411EDFF81E024162002A0BD0DFF81202026ADFF80E02006A411CDFF806020162107803E0DFF8FA0100F0DAFAFFF766FB012000F02FFA00F0E1F9DFF81A120860DFF81202006800F09DF9DFF81A0200F091FBC3E0DFF8220200F08CFBDFF8C201426ADFF8BE01406A411EDFF8B6014162002A0BD0DFF8AA01026ADFF8A601006A411CDFF89E010162107803E0DFF8920100F0A6FADFF8C60100F06CFBDFF8DE0100F068FB00F08EF9DFF8AA110860DFF8A601006800F066F9002000F0EBF90120FFF7C8FAFFF7B4FA012000F0E3F900F095F9DFF882110860DFF87A01006800F051F9DFF8C4
S3FD00002B98820100F045FB77E0DFF8920100F040FBDFF82A01426ADFF82601406A411EDFF81E014162002A0BD0DFF81201026ADFF80E01006A411CDFF806010162107803E0DFF8FA0000F05AFADFF8560100F020FB00F07EF9FFF77AFA012000F0A9F9012000F0FCF8DFF83E0100F012FB44E0DFF83A0100F00DFBDFF8C600426ADFF8BE00406A411EDFF8B6004162002A0BD0DFF8AE00026ADFF8A600006A411CDFF89E000162107803E0DFF8960000F027FADFF8FE0000F0EDFA00F04BF9FFF74DFAFEF7B5FF0646072E08D141F20020C0F27A00FEF74AFEDFF89A100860012000F068F9012000F0BBF8DFF88A00006800F0D8F8DFF8B20000F0CCFAB1
S3FD00002C90FF254FE5C04641F1FF1F6DF1FF1F99F1FF1FC6F1FF1FE2F1FF1FFBF1FF1F0DF2FF1F1FF2FF1F31F2FF1F43F2FF1F53F2FF1F64F2FF1F75F2FF1F82F2FF1F93F2FF1FA4F2FF1F64F6FF1FA8F6FF1FB5F2FF1FE5F2FF1F07F3FF1F26F3FF1F45F3FF1F67F3FF1F86F3FF1FA8F3FF1FC7F3FF1FE9F3FF1F06F4FF1F64F7FF1F26F4FF1F44F4FF1F66F4FF1F8EF4FF1FC7F4FF1FE5F4FF1F29F5FF1F61F5FF1F7EF5FF1F9CF5FF1FC4F5FF1FE2F5FF1F0AF6FF1F1CF6FF1F3AF6FF1F000008B50920FDF720FF402002210022FDF787FFBDE80840704708B548F23801C4F20401086840F4E05008602A20FDF70CFF40F21311C0F20A014BF2040073
S3FD00002D88C4F20400016040F21311C0F20A014BF20800C4F204000160BDE80840704700004BF2A000C4F204000068022807D14BF20401C4F20401086840F0807008604BF2A000C4F204000068042807D14BF20801C4F20401086840F0807008604FF0FF314BF2A000C4F20400016070470FB400A8007800280ED04FF440714DF20000C4F2040001604FF440714DF20400C4F2040001600BE000214DF20000C4F20400016000214DF20400C4F20400016004B070470FB438B504984FF47A7100F047FE044648F24400C4F20400006800F07040000F401CB4FBF0F54BF20000C4F2060029464FF4E132FFF70AFBBDE8384004B0704710B541F20020C0F2EF
S3FD00002E807A00FEF7F3FC044641F20020C0F27A00FEF7B8FD04460021C1F20F1148F24400C4F2040001602046BDE810407047000010B54FF4803148F24400C4F20400016041F20020C0F27A0004211922FEF7CEFD044641F20020C0F27A00FEF711FD04462046BDE81040704710B50024002C0ED04FF440714DF20000C4F2040001604FF440714DF20400C4F2040001600BE000214DF20000C4F20400016000214DF20400C4F204000160002000F00EF800F004F8BDE8104070470000032149F20800C4F204000160704700000FB400A80078002808D044F20501C4F20601087840F02000087007E044F20501C4F20601087800F0DF00087004B07047EC
S3FD00002F780FB410B5029C20780A2806D14BF20000C4F206000D21FFF7F5FA4BF20000C4F20600217849B2FFF7EDFABDE8104004B0704700000FB410B5029C13E020780A2806D14BF20000C4F206000D21FFF7DAFA2146641C4BF20000C4F20600097849B2FFF7D0FA20780028E8D1BDE8104004B07047000008B54BF20000C4F20600FFF7B5FAC0B2BDE8084070470000816942690162816AC3691140591A41620263704770B504460E461546FFF7F0FF012D04BFE06960622068A169A36B04F124029847C0B2022804BF002161620EB1616A316020B96169606A081860610020BDE870407047000038B50D46026A81690446521A0DD042620068E36B27
S3FD0000307004F1240298470DB1616A296038B96169606A081860612046FFF7BCFF0020BDE83840704710B500214162017B044609B9C17921B90020C043BDE810407047427A012A03D0417911F0010108D101210173002141620020C043BDE810407047032A0BD3511E4172032A04BFC16A4162D11E4018C07BBDE8104070470221417200210A46FFF791FFC1B209B9606A80B9012904D1012020730020606204E0002101206172E07261620020C043BDE810407047216A401E6062481C20620878BDE810407047000070B5054600204862087B0C46CA7900B922B90020C043BDE870407047487A40B9487910F0020004D0012048722046FFF74FFF607A65
S3FD00003168012808D001202073002060620020C043BDE870407047A079022805D0216AA069E269081A82420DD1204600210026FFF761FF38B10120207300206662C043BDE870407047606A216A401E6062481C20620D70A079022812D008B10A2D0DD1204600210026FFF746FF38B10120207300206662C043BDE870407047002060622846BDE8704070470000CBB2521C05E010F8011B994201D1401E7047521EF7D10020704700000FB410B5012004AA012400F027FC00B100242046BDE8104004B070470FB408B50020009002AB23F00303DFF81400029A00211B1D00F04AFABDE8084004B070470D3200004FF0FF3210F8011B521C0029FAD11046D2
S3FD00003260704700008446521C0CE011F8013BDBB20CF8013B33B9002101E00CF8011B521EFBD17047521EF0D170470000C9B203E08A4201D1401E704710F8012B002AF7D1002918BF002000D1401E70472DE9F84384B001230DF10008154688F80030002288F8012088F8022088F8032088F80420471C3C780E4602920392252C0BD188F8054000AA03CA03C503CA03C504B0781CBDE8F84370474FF0020901202B2C08DC12DA232C26DC202C24DB10D0232C16D020E0302C1EDC2D2C1CDB02D0302C11D018E088F8002016E088F8013013E098F801C0BCF1010F18BF88F801900BE088F8033008E098F800C0BCF1000F18BF88F8009000E0002010B164
S3FD000033587F1C3C78CDE72A2C0FD10868001D0860001F01680291002904DA002088F80000484202907F1C3C7810E04FF00A0908E00298A4F1300100FB09F07F1C08183C780290204600F03AFB0028F1D1029940F2FD1081420CDDFF2000AA88F8050003CA03C503CA03C504B0781CBDE8F84370472E2C23D17F1C3C78012088F802002A2C0DD13068001D3060001F006803900028BCBF002088F802007F1C3C780EE00A2607E00398A4F1300170437F1C08183C780390204600F002FB0028F2D10121B4F1680002D0001F04D007E0022088F8040004E0032088F8040000E0002109B17F1C3C7888F80540692C0ADC632C05DB30D0642C14D0692C12D0DB
S3FD000034503CE0582C0FD039E06E2C01DC39D035E0A4F16F00092831D8DFE800F00513303029300530300598F8020010B90120039027E098F80000022804BF012088F800001FE0782088F80500012088F80300032088F804000820039013E098F8020010B998F8040068B1FF2088F8050009E098F8040030B1FF2088F8050002E0FF2088F8050000AA03CA03C503CA03C5781C04B0BDE8F843704700000FB42DE9F00F9DF828A083469DF82B909DF82D800C9F0D9B00264D1E0A240022DC462E70F0B9EBB9B9F1000F02D0B8F16F0F17D0B8F1640F02D0B8F1690F0CD19DF82900022803D16D1E2020287004E0012802D16D1E2B2028702846BDE8F00F1C
S3FD0000354804B07047B8F1690F09DC1CDAB8F1580F01DC28D02BE0B8F1640F14D027E0B8F16F0F05DC02BF082400208DF829001EE0B8F1780F1BDCB8F1750F18DB0ED0B8F1780F10D013E00A24002810DAB0F1004F1CBFC0F1000BDC46012608E000200A248DF8290003E000208DF829001024BCFBF4F004FB10C0BCFBF4FC0A2838BF303004D3B8F1780F0CBF573037306D1E521C2870BCF1000FEAD1082C09D1B9F1000F06D02878302803D06D1E30202870521CBAF1020F0BD13B4616B99DF8290000B17B1E102C03D1B9F1000F00D09B1E481B191840F2FD108142C8BF002054DC981A302700282FDDC10800F013806D1E05F8017905F8017905F80C
S3FD00003640017905F8017905F8017905F8017905F801792F70491E7FF4EDAF10F0040F00F008806D1E05F8017905F8017905F801792F7010F0020F00F004806D1E05F801792F7010F0010F00F002806D1E2F70102C0BD1B9F1000F08D0BBF1000F05D0681E80F80080AD1E302028701EB16D1E2D2028700CE09DF82900012803D16D1E2B20287004E0022802D16D1E202028702846BDE8F00F04B070470FB42DE9F04FADF5077D8246202002AC894693466070002581E158462521FFF7C9FD0646A8B95846FFF7A6FD0246AD18002A00F0798148465946D047002840F073810DF5077D4FF0FF30BDE8F04F04B07047A0EB0B02AD185AB148465946D0479F
S3FD0000373838B90DF5077D4FF0FF30BDE8F04F04B07047304693A903AAFFF7ACFD8346607A6E2815DC80F29480582804DC44DA252800F0A980ADE0692800F3AB806328C0F2A88000F09680642810D069280ED0A0E0782800F39E80732805DB52D075282BD0782829D095E06F2826D092E0207A032803BF9399091D939193991CBF091D9391091F0F68022801D13FB202E0012800D17FB2059906980091019003A80CC887A93846FFF785FE0746002800F0728086A90331A1EB000885E0217A032903BF9398001D939093981CBF001D9390001F0768022901D1BFB202E0012900D1FFB2059906980091019003A80CC887A93846FFF75FFE074600284CD007
S3FD0000383086A90331A1EB000860E09398001D9390001F07680FB9DFF8C671E07948B1A07917F8018B002851D006988045C8BF80464CE0A07958B1DDF81880384600214246FFF7BEFC002841D0A0EB07083EE03846FFF7E6FC804639E09398001D9390001F0168207A28B1801E05D0401E08BF0D60A9E00D60A7E00D80A5E0939807AF001D9390001F00684FF0010820751EE0252007AF20754FF0010818E03046FFF7C0FC0246AD185AB148463146D04738B90DF5077D4FF0FF30BDE8F04F04B070470DF5077D2846BDE8F04F04B070472079464600284FD002280CBF30202020607038782B2803D02D2801D0202812D1607830280FD148463946012295
S3FD00003928D04738B90DF5077D4FF0FF30BDE8F04F04B070477F1CA8F10108207902282AD1607A612801D0412825D1B8F1020FB8BF4FF0FF3051DB484639460222D04738B90DF5077D4FF0FF30BDE8F04F04B07047A8F10208BF1C0EE002A9484601310122D04738B90DF5077D4FF0FF30BDE8F04F04B07047761C05988642EDDBB8F1000F0CD0484639464246D04738B90DF5077D4FF0FF30BDE8F04F04B070472079A8B920270DF108080EE04846414601222770D04738B90DF5077D4FF0FF30BDE8F04F04B07047761C05988642EDDBAD199BF8000000287FF479AE28460DF5077DBDE8F04F04B0704730F7FF1F00000121B0F5807F98BF00210029E9
S3FD00003A2011BF0020DFF80810085C00F020007047F03C0000F8B51746002516680C460CE0FFF7D4FAC0B220700D2801D00A2802D1681C386003E06D1C641CB542F0D30020BDE8F840704700002DE9F04117688846012F06D84046FFF77FFA0020BDE8F04170470026DFF8425000240CE0284608EB06015022FFF7E6FB284685F85040FFF785FA503F5036502FF0D857B1284608EB06013A46FFF7D6FB0020E8552846FFF775FA0020BDE8F041704768F7FF1F00000020704780EA010C0CF0004C0028BCBFC0F100000CF1010C0029B8BFC1F1000100F0ED8088423CBF4FEA00014FF00000C0F0E5804FF01C024FEA1013B1EB133FDCBFA2F110024FEA38
S3FD00003B181343B1EB131FDCBFA2F108024FEA13239942DCBFA2F104024FEA131300FA02F0C1F10001001802EB42024FEA82027A44974651EB430338BFA3EB0103404151EB430338BFA3EB0103404151EB430338BFA3EB0103404151EB430338BFA3EB0103404151EB430338BFA3EB0103404151EB430338BFA3EB0103404151EB430338BFA3EB0103404151EB430338BFA3EB0103404151EB430338BFA3EB0103404151EB430338BFA3EB0103404151EB430338BFA3EB0103404151EB430338BFA3EB0103404151EB430338BFA3EB0103404151EB430338BFA3EB0103404151EB430338BFA3EB0103404151EB430338BFA3EB0103404151EB430338BFFD
S3FD00003C10A3EB0103404151EB430338BFA3EB0103404151EB430338BFA3EB0103404151EB430338BFA3EB0103404151EB430338BFA3EB0103404151EB430338BFA3EB0103404151EB430338BFA3EB0103404151EB430338BFA3EB0103404151EB430338BFA3EB0103404151EB430338BFA3EB0103404151EB430338BFA3EB0103404151EB430338BFA3EB0103404151EB430338BFA3EB0103404151EB430338BFA3EB0103404151EB430338BFA3EB0103404151EB430338BFA3EB010340414FEA03011CF0004318BFC0F100001CF0010318BFC1F1000170474FEA00014FF0000070470000404040404040404040414141414140404040404040404040D5
S3FD00003D08404040404040404005020202020202020202020202020202A0A0A0A0A0A0A0A0A0A00202020202020290909090909010101010101010101010101010101010101010100202020202028888888888880808080808080808080808080808080808080808020202024000000000000000000000000000000000000000000000000000000000000000000000000000000000000000000000000000000000000000000000000000000000000000000000000000000000000000000000000000000000000000000000000000000000000000000000000000000000000000000000000000000000000000000000000000000000000000000000000088
S3FD00003E000A2A2A2A2A64656661756C745F69737220656E7465726564206F6E20766563746F722025642A2A2A2A2A0D0A0A000A2046414D5F4944203D2030782578000A4B31302D000A4B32302D000A4B33302D000A4B34302D000A4B36302D000A556E7265636F676E697A6564204B696E657469732066616D696C79206465766963652E0A000A2050494E5F4944203D203078257800333270696E0A00343870696E0A00363470696E0A00383070696E0A00383170696E0A0031303070696E0A0031303470696E0A0031343470696E0A0031393670696E0A0032353670696E0A000A556E7265636F676E697A6564204B696E65746973207061636B61B0
S3FD00003EF8676520636F6465202E0A000A205245565F4944203D2030782578200A0053696C69636F6E2072657620312E300A0053696C69636F6E2072657620312E310A0053696C69636F6E2072657620312E320A000A546869732076657273696F6E206F6620736F66747761726520646F65736E2774207265636F676E697A6520746865207265766973696F6E20636F64652E000A2052414D5F53495A455F4944203D2030782578200A0038206B4279746573206F662052414D0A0A003136206B4279746573206F662052414D0A0A003332206B4279746573206F662052414D0A0A003634206B4279746573206F662052414D0A0A003936206B427974BC
S3FD00003FF06573206F662052414D0A0A00313238206B4279746573206F662052414D0A0A0020455252212120556E646566696E65642052414D2073697A650A0A00466C61736820706172616D657465722076657273696F6E2025642E25642E25642E25640A00466C6173682076657273696F6E2049442025642E25642E25642E25640A000A4552522120496E76616C6964204952512076616C75652070617373656420746F20656E61626C65206972712066756E6374696F6E210A00204C4C575520636F6E666967757265642070696E7320505445312F55415254315F52582F493243315F53434C202F535049315F53494E20746F20626520616E204C23
S3FD000040E84C57552077616B65757020736F75726365200A00204C4C575520636F6E666967757265642070696E7320505445322F535049315F53434B2F53444843305F44434C4B20746F20626520616E204C4C57552077616B65757020736F75726365200A00204C4C575520636F6E666967757265642070696E7320505445342F535049315F504353302F53444843305F443320746F20626520616E204C4C57552077616B65757020736F75726365200A00204C4C575520636F6E666967757265642070696E7320505441342F46544D305F4348312F4E4D492F455A505F435320746F20626520616E204C4C57552077616B65757020736F7572636520AF
S3FD000041E00A00204C4C575520636F6E666967757265642070696E732050544131332F46544D315F434831202F46544D315F51445F50484220746F20626520616E204C4C57552077616B65757020736F75726365200A00204C4C575520636F6E666967757265642070696E7320505442302F493243305F53434C2F46544D315F4348302F46544D315F51445F50484120746F20626520616E204C4C57552077616B65757020736F75726365200A00204C4C575520636F6E666967757265642070696E7320505443312F55415254315F5254532F46544D305F43483020746F20626520616E204C4C57552077616B65757020736F75726365200A00204C4CF1
S3FD000042D8575520636F6E666967757265642070696E7320505443332F55415254315F52582F46544D305F43483220746F20626520616E204C4C57552077616B65757020736F75726365200A00204C4C575520636F6E666967757265642070696E7320505443342F535049305F504353302F46544D305F43483320746F20626520616E204C4C57552077616B65757020736F75726365200A00204C4C575520636F6E666967757265642070696E7320505443352F535049305F53434B2F493253305F5258443020746F20626520616E204C4C57552077616B65757020736F75726365200A00204C4C575520636F6E666967757265642070696E732050546D
S3FD000043D043362F504442305F455854524720746F20626520616E204C4C57552077616B65757020736F75726365200A00204C4C575520636F6E666967757265642070696E732050544331312F493253305F5258443120746F20626520616E204C4C57552077616B65757020736F75726365200A00204C4C575520636F6E666967757265642070696E7320505444302F535049305F504353302F55415254325F52545320746F20626520616E204C4C57552077616B65757020736F75726365200A00204C4C575520636F6E666967757265642070696E7320505444322F55415254325F525820746F20626520616E204C4C57552077616B65757020736FB0
S3FD000044C875726365200A00204C4C575520636F6E666967757265642070696E7320505444342F55415254305F5254532F46544D305F4348342F45574D5F494E20746F20626520616E204C4C57552077616B65757020736F75726365200A00204C4C575520636F6E666967757265642070696E7320505444362F55415254305F52582F46544D305F4348362F46544D305F464C543020746F20626520616E204C4C57552077616B65757020736F75726365200A004C4C5755205045312020203D203078253032582C20202020004C4C5755205045322020203D203078253032580A004C4C5755205045332020203D203078253032582C20202020004C4CA0
S3FD000045C05755205045342020203D203078253032580A004C4C5755204D45202020203D203078253032582C20202020004C4C5755204631202020203D203078253032580A004C4C5755204632202020203D203078253032582C20202020004C4C5755204633202020203D203078253032580A004C4C57552046494C5431203D203078253032582C20202020004C4C57552046494C5432203D203078253032580A004C4C5755205253542020203D203078253032580A0053746F70204D6F64652041636B6E6F776C65646765204572726F722052657365740A00457A506F72742052657365740A004D444D2D41502052657365740A00536F66747761723C
S3FD000046B8652052657365740A00436F7265204C6F636B7570204576656E742052657365740A004A5441472052657365740A00506F7765722D6F6E2052657365740A0045787465726E616C2050696E2052657365740A005761746368646F6728434F50292052657365740A004C6F7373206F6620436C6F636B2052657365740A004C6F772D766F6C74616765204465746563742052657365740A005B6F75745352535D57616B65757020626974207365742066726F6D206C6F7720706F776572206D6F646520657869740A005B6F75745352535D534D435F504D50524F542020203D202523303258200D0A005B6F75745352535D534D435F504D435452F9
S3FD000047B04C2020203D202523303258200D0A005B6F75745352535D534D435F564C4C534354524C2020203D202523303258200D0A005B6F75745352535D534D435F504D535441542020203D202523303258200D0A005B6F75745352535D204C4C532065786974200A005B6F75745352535D20564C4C53302065786974200A005B6F75745352535D20564C4C53312065786974200A005B6F75745352535D20564C4C53322065786974200A005B6F75745352535D20564C4C53332065786974200A005B6F75745352535D52434D5F53525330206973205A45524F2020203D202523303258200D0A005B6F75745352535D52434D5F53525331206973205ABE
S3FD000048A845524F2020203D202523303258200D0A00200A5B656E7465725F766C70725D20416C726561647920696E20564C5052204D6F646520212000200A5B656E7465725F766C70725D2057616974696E67206F6E205245474F4E5320746F20636C656172202120005B656E7465725F766C70725D204E6F7720696E20564C5052206174203139323030206261756420200D0A00200A5B656E7465725F766C70725D2048414C5420504D5354415420646F6573206E6F7420696E64696361746520696E20564C5052204D6F646520212000200A5B657869745F766C70725D2057616974696E67206F6E205245474F4E532062697420746F20736574208A
S3FD000049A0746F20696E6469636174652052756E20726567756C6174696F6E206D6F6465202120005B656E7465725F766C6C73305D534D435F504D50524F542020203D202523303258200D0A005B656E7465725F766C6C73305D534D435F504D4354524C2020203D202523303258200D0A005B656E7465725F766C6C73305D534D435F564C4C534354524C2020203D202523303258200D0A005B656E7465725F766C6C73305D534D435F504D535441542020203D202523303258200D0A000A20202020202020202020202020202020202020202020202020202020202020202020202020202020005B656E7465725F766C6C73305F6E6F706F725D534D28
S3FD00004A98435F504D50524F542020203D202523303258200D0A005B656E7465725F766C6C73305F6E6F706F725D534D435F504D4354524C2020203D202523303258200D0A005B656E7465725F766C6C73305F6E6F706F725D534D435F564C4C534354524C2020203D202523303258200D0A005B656E7465725F766C6C73305F6E6F706F725D534D435F504D535441542020203D202523303258200D0A002A2D2D2D2D2D2D2D2D2D2D2D2D2D2D2D2D2D2D2D2D2D2D2D2D2D2D2D2D2D2D2D2D2D2D2D2D2D2D2D2D2A0A002A20202020202020204C6F7720506F776572204D6F64652054657374202020202020202020202020202A0A002A2D2D2D2D2D2D64
S3FD00004B902D2D2D2D2D2D2D2D2D2D2D2D2D2D2D2D2D2D2D2D2D2D2D2D2D2D2D2D2D2D2D2D2D2D2A0A0A000A53656C65637420746865206D6F646520746F20656E746572200A003020746F20656E74657220564C4C5330206E6F20504F520A003120746F20656E74657220564C4C53300A003220746F20656E74657220564C4C53310A003320746F20656E74657220564C4C53320A003420746F20656E74657220564C4C53330A003520746F20656E746572204C4C530A003620746F20656E74657220564C50530A003720746F20656E74657220564C50520A0038206578697420564C50520A003920746F20656E74657220564C50570A004120746F2072
S3FD00004C88656E74657220574149540A004220746F20656E7465722053544F500A00507265737320616E79206B657920746F20656E74657220564C4C5330207769746820504F522064697361626C650A200050726573732053573220746F2077616B652075702066726F6D20564C4C53300A2000507265737320616E79206B657920746F20656E74657220564C4C53300A2000507265737320616E79206B657920746F20656E74657220564C4C53310A200050726573732053573220746F2077616B652075702066726F6D20564C4C53310A2000507265737320616E79206B657920746F20656E74657220564C4C53320A20005072657373205357322078
S3FD00004D80746F2077616B652075702066726F6D20564C4C53320A2000507265737320616E79206B657920746F20656E74657220564C4C53330A200050726573732053573220746F2077616B652075702066726F6D20564C4C53330A2000507265737320616E79206B657920746F20656E746572204C4C530A200050726573732053573220746F2077616B652075702066726F6D204C4C530A2000507265737320616E79206B657920746F20656E74657220564C50530A2000466F72636520746F20424C5045206D6F6465206265666F726520656E7465720A2000507265737320535732206F722053573320746F2077616B652075702066726F6D2056B2
S3FD00004E784C50530A20000A4E6F7720696E2052756E206D6F64652061742035304D487A20636F726520636C6F636B2C2032354D687A20666C61736820636C6F636B0A00507265737320616E79206B657920746F20656E74657220564C50520A2000436F6E66696775726520636C6F636B206672657175656E637920746F20344D487A20636F726520636C6F636B20616E6420314D487A20666C61736820636C6F636B0A20000A4E6F7720696E20564C5052206D6F646520617420344D487A20636F726520636C6F636B2C20314D687A20666C61736820636C6F636B0A00507265737320616E79206B657920746F206578697420564C50520A200050724B
S3FD00004F7065737320616E79206B657920746F20656E74657220564C50570A2000507265737320535732206F722053573320746F2077616B652075702066726F6D20564C50570A2000507265737320616E79206B657920746F20656E74657220576169740A2000507265737320535732206F722053573320746F2077616B652075702066726F6D20576169740A20004261636B20746F2052756E206D6F64650A00507265737320616E79206B657920746F20656E7465722053746F700A2000507265737320535732206F722053573320746F2077616B652075702066726F6D2053746F700A20000000000000000001000200000000000000000000000048
S3DD000050680000000071F6FF1F0100000071F6FF1F0000000000000000000000000000000000000000353A0000693A0000D13A0000010000000002000200000000000000000000000000000000B5F6FF1F01000000B5F6FF1F0000000000000000000000000000000000000000353A0000693A0000D13A0000020000000002000200000000000000000000000000000000F9F6FF1F01000000F9F6FF1F0000000000000000000000000000000000000000353A0000693A0000D13A00000000000080210020C4F2020001700020C4F20200007800F080000028F7D07047FF
S70500000B0CE3
