S0030000FC
S3FD00000000A0F3FF1F0D0B0000B1040000B1040000B1040000B1040000B1040000B1040000B1040000B1040000B1040000B1040000B1040000B1040000B1040000B1040000B1040000B1040000B1040000B1040000B1040000B1040000B1040000B1040000B1040000B1040000B1040000B1040000B1040000B1040000B1040000B1040000B1040000B1040000B1040000B1040000B1040000B1040000B104000085150000B1040000B1040000B1040000B1040000B1040000B1040000B1040000B1040000B1040000B1040000B1040000B1040000B1040000B1040000B1040000B1040000B1040000B1040000B1040000B1040000B1040000B1040000E8
S3FD000000F8FFFFFFFFFFFFFFFFFFFFFFFFFFFFFFFFFFFFFFFFFFFFFFFFFFFFFFFFFFFFFFFFFFFFFFFFFFFFFFFFFFFFFFFFFFFFFFFFFFFFFFFFFFFFFFFFFFFFFFFFFFFFFFFFFFFFFFFFFFFFFFFFFFFFFFFFFFFFFFFFFFFFFFFFFFFFFFFFFFFFFFFFFFFFFFFFFFFFFFFFFFFFFFFFFFFFFFFFFFFFFFFFFFFFFFFFFFFFFFFFFFFFFFFFFFFFFFFFFFFFFFFFFFFFFFFFFFFFFFFFFFFFFFFFFFFFFFFFFFFFFFFFFFFFFFFFFFFFFFFFFFFFFFFFFFFFFFFFFFFFFFFFFFFFFFFFFFFFFFFFFFFFFFFFFFFFFFFFFFFFFFFFFFFFFFFFFFFFFFFFFFFFFFFFFFFFFFFFFFFFFFFFFFFFFFFFFFFFFFFFFFFFFFFFFFFFFFFFFFFFFFFFFFFFFFFFFFFFFFFFFFFFFFFFFFFFFFFF02
S3FD000001F0FFFFFFFFFFFFFFFFFFFFFFFFFFFFFFFFFFFFFFFFFFFFFFFFFFFFFFFFFFFFFFFFFFFFFFFFFFFFFFFFFFFFFFFFFFFFFFFFFFFFFFFFFFFFFFFFFFFFFFFFFFFFFFFFFFFFFFFFFFFFFFFFFFFFFFFFFFFFFFFFFFFFFFFFFFFFFFFFFFFFFFFFFFFFFFFFFFFFFFFFFFFFFFFFFFFFFFFFFFFFFFFFFFFFFFFFFFFFFFFFFFFFFFFFFFFFFFFFFFFFFFFFFFFFFFFFFFFFFFFFFFFFFFFFFFFFFFFFFFFFFFFFFFFFFFFFFFFFFFFFFFFFFFFFFFFFFFFFFFFFFFFFFFFFFFFFFFFFFFFFFFFFFFFFFFFFFFFFFFFFFFFFFFFFFFFFFFFFFFFFFFFFFFFFFFFFFFFFFFFFFFFFFFFFFFFFFFFFFFFFFFFFFFFFFFFFFFFFFFFFFFFFFFFFFFFFFFFFFFFFFFFFFFFFFFFFFFFF09
S3FD000002E8FFFFFFFFFFFFFFFFFFFFFFFFFFFFFFFFFFFFFFFFFFFFFFFFFFFFFFFFFFFFFFFFFFFFFFFFFFFFFFFFFFFFFFFFFFFFFFFFFFFFFFFFFFFFFFFFFFFFFFFFFFFFFFFFFFFFFFFFFFFFFFFFFFFFFFFFFFFFFFFFFFFFFFFFFFFFFFFFFFFFFFFFFFFFFFFFFFFFFFFFFFFFFFFFFFFFFFFFFFFFFFFFFFFFFFFFFFFFFFFFFFFFFFFFFFFFFFFFFFFFFFFFFFFFFFFFFFFFFFFFFFFFFFFFFFFFFFFFFFFFFFFFFFFFFFFFFFFFFFFFFFFFFFFFFFFFFFFFFFFFFFFFFFFFFFFFFFFFFFFFFFFFFFFFFFFFFFFFFFFFFFFFFFFFFFFFFFFFFFFFFFFFFFFFFFFFFFFFFFFFFFFFFFFFFFFFFFFFFFFFFFFFFFFFFFFFFFFFFFFFFFFFFFFFFFFFFFFFFFFFFFFFFFFFFFFFFFFF10
S3FD000003E0FFFFFFFFFFFFFFFFFFFFFFFFFFFFFFFFFFFFFFFFFFFFFFFFFFFFFFFFFFFFFFFFFFFFFFFFFFFFFFFFFFFFFFFFFEFFFFFF2DE9F843DFF87A10DFF87A0081420DD0002408E0A100DFF86E004258A100DFF862004250641CB4F5807FF3D3DFF8520000F088FBDFF85250DFF85270DFF852008046A8EB050405E038467F1C29466D1C007808702046641E0028F5D1DFF83660DFF836008146A9EB060403E03146761C002008702046641E0028F7D1BDE8F843704700E0FF1F0000000010E4FF1FA023000030EBFF1F30EBFF1F99EBFF1F000008B5DFF818004EF60451CEF20001097801F084F9BDE808407047C04610E4FF1F08B582B048F2380106
S3FD000004D8C4F20401086840F4785008604DF20200C4F20700007800F00800002807D04DF20201C4F20701087840F0080008704FF4803148F24400C4F2040001604DF20200C4F20700007800F00800002807D04DF20201C4F20701087840F008000870192000900120019041F20020C0F27A0000210122042300F0A4FBDFF860110860DFF85C010068B0F5807F00DAFEE7DFF84C0100684FF47A7101F083FDDFF844110860DFF83C01016848F24400C4F20400006800F07040000F401CB1FBF0F1DFF824010160DFF81C01016848F24400C4F20400006800F07060000E401CB1FBF0F1DFF80801016000F082F800F090F84BF20001C4F206014AF200004E
S3FD000005D0C4F2060081420DD14FF440714CF21800C4F2040001604FF440714CF21C00C4F2040001604BF20001C4F206014BF20000C4F2060081420DD14FF440714DF20000C4F2040001604FF440714DF20400C4F2040001604BF20001C4F206014CF20000C4F2060081420DD14FF440714CF20C00C4F2040001604FF440714CF20800C4F2040001604BF20001C4F206014AF20000C4F20600814209D04BF20001C4F206014BF20000C4F2060081420BD14BF20000C4F20600DFF8341009684FF4E13200F047FE0AE04BF20000C4F20600DFF8201009684FF4E13200F03BFE02B0BDE808407047C04644EBFF1F40EBFF1F3CEBFF1F38EBFF1F48F20401C6
S3FD000006C8C4F20401086840F4805008604FF4E06149F21800C4F204000160704748F20402C4F2040211686FF0E0000840106048F20401C4F20401086840F0400008604FF4A8614BF20C00C4F2040001607047000008B500F08DFEFFF777FEFFF7D5FE00F081FC00F003F800F0A5FEFEE708B5DFF8660248F22401C4F20401096801F07001090901F03FF848F22400C4F20400006800F070000009042826D84FEA80008744F0BF00F008B800F00BB800F00EB800F011B800F014B8DFF8220201F023F817E0DFF81A0201F01EF812E0DFF8160201F019F80DE0DFF80E0201F014F808E0DFF80A0201F00FF803E0DFF8020201F00AF8DFF8FE0148F2240157
S3FD000007C0C4F20401096801F00F0100F0FFFF48F22400C4F20400006800F00F000E2853D84FEA80008744F0BF00F04EB800F04CB800F018B800F048B800F019B800F01CB800F01FB800F022B800F025B800F028B800F02BB800F038B800F02CB800F034B800F02DB8DFF8960100F0D0FF30E0DFF8920100F0CBFF2BE0DFF88A0100F0C6FF26E0DFF8860100F0C1FF21E0DFF87E0100F0BCFF1CE0DFF87A0100F0B7FF17E0DFF8720100F0B2FF12E0DFF86E0100F0ADFF0DE0DFF8660100F0A8FF08E0DFF8620100F0A3FF03E0DFF85A0100F09EFFDFF8560148F22401C4F20401096801F47041090B00F092FF48F22400C4F20400006800F47040000B0A
S3FD000008B8001E002806D0401E002808D0401E00280AD00EE0DFF81E0100F07CFF0DE0DFF81A0100F077FF08E0DFF8120100F072FF03E0DFF80E0100F06DFF00F095F8DFF8060147F20001C4F20401096801F47041090B00F05FFF47F20000C4F20400006800F47040000B092835D84FEA80008744F0BF00F030B800F010B800F02CB800F011B800F028B800F012B800F024B800F013B800F016B800F019B8DFF8AE0000F039FF1CE0DFF8A60000F034FF17E0DFF8A20000F02FFF12E0DFF89A0000F02AFF0DE0DFF8960000F025FF08E0DFF88E0000F020FF03E0DFF88A0000F01BFFBDE808407047C0463EE4FF1F4EE4FF1F54E4FF1F5AE4FF1F60E4F0
S3FD000009B0FF1F66E4FF1F6CE4FF1F92E4FF1FA2E4FF1FA9E4FF1FB0E4FF1FB7E4FF1FBEE4FF1FC5E4FF1FCDE4FF1FD5E4FF1FDDE4FF1FE5E4FF1FEDE4FF1F13E5FF1F25E5FF1F36E5FF1F47E5FF1F58E5FF1F97E5FF1FAEE5FF1FC0E5FF1FD3E5FF1FE6E5FF1FF9E5FF1F0CE6FF1F20E6FF1F000008B570210020C4F20200017003210720C4F20200017000210620C4F20200017000210520C4F20200017000210420C4F20200017001210F20C4F202000170DFF8A00080470820C4F2020000780090DFF894000B21C4F2020109780A22C4F2020212780923C4F202031B7800F09FFE03210720C4F20200017000210620C4F20200017000210520C4F2EC
S3FD00000AA80200017004210420C4F20200017001210F20C4F202000170DFF83C0080470820C4F2020000780090DFF834000B21C4F2020109780A22C4F2020212780923C4F202031B7800F06EFE70210020C4F202000170BDE80840704715EBFF1F3CE6FF1F61E6FF1FDFF8400085464FF000004FF000014FF000024FF000034FF000044FF000054FF000064FF000074FF000084FF000094FF0000A4FF0000B4FF0000C62B6FFF7E6FDFFF7FEBFA0F3FF1F0FB400994EF60850CEF20000016004B07047000038B504463D2C03DDDFF8C60000F02AFE201104EBD0604511281E002806D0401E00281ED0401E002836D04FE00122E10FC1EBC46001EBF0608E
S3FD00000BA002FA00F14EF28020CEF2000001600122E10FC1EBC46001EBF06002FA00F14EF20010CEF20000016034E00122E10FC1EBC46001EBF06002FA00F14EF28420CEF2000001600122E10FC1EBC46001EBF06002FA00F14EF20410CEF20000016019E00122E10FC1EBC46001EBF06002FA00F14EF28820CEF2000001600122E10FC1EBC46001EBF06002FA00F14EF20810CEF200000160BDE8384070477FE6FF1F00000FB448F23801C4F20401086840F00100086000990820C4F20400016005210420C4F2040001600021C4F20401086840F0010008600020C4F20400006800F080000028F7D00022C4F2040211686FF001000840106004B07047C1
S3FD00000C980FB42DE9F84F06469846DDF838B044F20600C4F20600007800F00C008008002811D144F20600C4F20600007800F01000002808D044F20600C4F20600007800F02000002801D00120A0E14FF28000C0F2FA20864201DD212098E10CA8007800280DD04CF2C060C0F22D00864205DB44F60000C0F2E810864201DD222086E10BA80078002802D001210BA80170B8F1010F02DBB8F1190F01DD412077E1BBF1180F02DBBBF1370F01DD42206FE196FBF8F0814648F28040C0F21E00814505DB40F60010C0F23D00814501DD43205EE196FBF8F00BFB00F0824646F60040C0F2DC20824505DB4EF20010C0F2F550824501DD45204BE144F2010016
S3FD00000D90C4F20600047804F0C3044CF2C060C0F22D0086420BDC0BA80078C00040F010000CA9097889000843C0B204430AE00BA80078C00040F020000CA9097889000843C0B2044344F20100C4F20600047041F2D020C0F21300864201DC002720E042F2A050C0F22600864201DC012718E044F64030C0F24C00864201DC022710E049F28060C0F29800864201DC032708E042F60050C0F23110864201DC042700E0052744F20000C4F20600047804F00304F800C0B200F0380040F08000C4B244F20000C4F2060004700CA8007800281BD000250AE044F20600C4F20600007800F00200002805D16D1C2DB242F210708542F0DB44F20600C4F2060020
S3FD00000E88007800F00200002801D12320C6E000250BE044F20600C4F20600007800F00C008008022804D06D1C2DB2B5F5FA6FF0DB44F20600C4F20600007800F00C008008022801D01A20A9E044F20501C4F20601087840F02000087044F20400C4F20600047804F0E004A8F10100C0B2C0B200F01F002043C4B244F20400C4F20600047044F20500C4F20600047804F0E004ABF11800C0B2C0B200F01F0040F04000C0B2044344F20500C4F20600047000250AE044F20600C4F20600007800F02000002804D16D1C2DB2B5F5FA6FF1DB44F20600C4F20600007800F02000002801D116205CE000250AE044F20600C4F20600007800F04000002804D1D9
S3FD00000F806D1C2DB2B5F5FA6FF1DB44F20600C4F20600007800F04000002801D1442041E044F20400C4F20600007800F01F00401CC1B200A8417044F20500C4F20600007800F01F001830C1B200A8017044F20001C4F20601087800F03F00087000250BE044F20600C4F20600007800F00C008008032804D06D1C2DB2B5F5FA6FF0DB44F20600C4F20600007800F00C008008032801D01B2006E000A8017800A8407896FBF0F04843BDE8F84F04B0704708B54FF20100C4F20700007800F02000002803D0DFF87E0200F0C2FB4FF20100C4F20700007800F01000002803D0DFF86A0200F0B5FB4FF20100C4F20700007800F00800002803D0DFF85202A0
S3FD0000107800F0A8FB4FF20100C4F20700007800F00400002803D0DFF83E0200F09BFB4FF20100C4F20700007800F00200002803D0DFF8260200F08EFB4FF20100C4F20700007800F00100002803D0DFF8120200F081FB4FF20000C4F20700007800F08000002803D0DFF8FA0100F074FB4FF20000C4F20700007800F04000002803D0DFF8E60100F067FB4FF20000C4F20700007800F02000002803D0DFF8CE0100F05AFB4FF20000C4F20700007800F00400002803D0DFF8BA0100F04DFB4FF20000C4F20700007800F00200002803D0DFF8A20100F040FB4FF20000C4F20700007800F00100002800F08D80DFF88A0100F032FBDFF886014EF200013E
S3FD00001170C4F20701097800F029FBDFF87A014EF20101C4F20701097800F020FBDFF86A014EF20201C4F20701097800F017FBDFF85E014EF20301C4F20701097800F00EFB4EF20100C4F20700007800F00700032803D1DFF83E0100F001FB4EF20100C4F20700007800F0070004280CD14EF20200C4F20700007800F00700002803D1DFF8160100F0EBFA4EF20100C4F20700007800F0070004280CD14EF20200C4F20700007800F00700012803D1DFF8EE0000F0D5FA4EF20100C4F20700007800F0070004280CD14EF20200C4F20700007800F00700022803D1DFF8C60000F0BFFA4EF20100C4F20700007800F0070004280CD14EF20200C4F20700C5
S3FD00001268007800F00700032803D1DFF89E0000F0A9FA4FF20000C4F207000078002818D14FF20100C4F207000078002811D1DFF87E004FF20001C4F20701097800F092FADFF86E004FF20101C4F20701097800F089FABDE808407047C046B7E6FF1FDAE6FF1FE8E6FF1FF6E6FF1F06E7FF1F1FE7FF1F2BE7FF1F3BE7FF1F4FE7FF1F64E7FF1F79E7FF1F93E7FF1FC4E7FF1FE4E7FF1F04E8FF1F26E8FF1F46E8FF1F5AE8FF1F70E8FF1F86E8FF1F9CE8FF1FB2E8FF1FD8E8FF1F00002DE9F8430446894690464AF20000C4F20600844208D148F23401C4F20401086840F4806008601CE04BF20000C4F20600844208D148F23401C4F20401086840F4C6
S3FD00001360006008600DE04CF20000C4F20600844207D148F23401C4F20401086840F480500860E07800F0F300E0700020A0704FF47A7009FB00F14FEA081091FBF0F085B221786FF01F000840C6B205F4F8500012C0B2C0B200F01F003043C0B22070E8B260704FF4FA4009FB00F14FEA081091FBF0F16801081A87B2A17A6FF01F000840C6B2F8B2C0B200F01F003043C0B2A072E07840F00C00E070BDE8F8437047000010B50446207900F020000028FAD0E07940B2BDE8104070470FB418B40446207900F080000028FAD003A890F90000C0B2E07118BC04B0704708B500F00DF842F20002C4F2050211884FF6FE7008401080BDE80840704700006D
S3FD0000145872B64CF2205142F20E00C4F2050001804DF6281142F20E00C4F20500018062B67047000010B543F20004C4F20704DFF8E00000F09FF9DFF8DC0000F09BF9DFF8D80000F097F9DFF8D400426ADFF8CC00406A411EDFF8C4004162002A0BD0DFF8BC00026ADFF8B400006A411CDFF8AC000162107803E0DFF8A40000F00FF9DFF8A00000F077F948F23401C4F20401086840F4002008604FF480714CF21C00C4F20400016080214FF2D400C4F20F0001604FF4C0614BF21400C4F204000160DFF8640000F057F9DFF8600000F053F91720FFF71EFB00F05CF800202070152060700020A0701E20E070F02020710F206071607840F002006070D1
S3FD0000155080214FF2CC00C4F20F0001604FF4FA70FFF76EFBF4E7C046FEE8FF1F0EE9FF1F5AE9FF1F44EAFF1F75E9FF1F78E9FF1FCDE9FF1F08B543F20300C4F20700007800F0040004280BD143F20301C4F20701087840F004000870DFF8340000F00EF943F20300C4F20700007800F0020002280BD143F20301C4F20701087840F002000870DFF8100000F0F9F8BDE80840704712EAFF1F29EAFF1F10B543F20004C4F2070400202070002060700020A0700620E0700020207100206071BDE8104070470FB410B5029C20780A2806D14BF20000C4F206000D21FFF7F7FE4BF20000C4F20600217849B2FFF7EFFEBDE8104004B0704700000FB410B53B
S3FD00001648029C13E020780A2806D14BF20000C4F206000D21FFF7DCFE2146641C4BF20000C4F20600097849B2FFF7D2FE20780028E8D1BDE8104004B07047000008B54BF20000C4F20600FFF7B7FEC0B2BDE8084070470000816942690162816AC3691140591A41620263704770B504460E461546FFF7F0FF012D04BFE06960622068A169A36B04F124029847C0B2022804BF002161620EB1616A316020B96169606A081860610020BDE870407047000010B500214162017B044609B9C17921B90020C043BDE810407047427A012A03D0417911F0010108D101210173002141620020C043BDE810407047032A0BD3511E4172032A04BFC16A4162D11EBF
S3FD000017404018C07BBDE8104070470221417200210A46FFF7ADFFC1B209B9606A80B9012904D1012020730020606204E0002101206172E07261620020C043BDE810407047216A401E6062481C20620878BDE8104070470000CBB2521C05E010F8011B994201D1401E7047521EF7D10020704700000FB410B5012004AA012400F027FC00B100242046BDE8104004B070470FB408B50020009002AB23F00303DFF81400029A00211B1D00F04AFABDE8084004B07047B11700004FF0FF3210F8011B521C0029FAD11046704700008446521C0CE011F8013BDBB20CF8013B33B9002101E00CF8011B521EFBD17047521EF0D170470000C9B203E08A4201D1E5
S3FD00001838401E704710F8012B002AF7D1002918BF002000D1401E70472DE9F84384B001230DF10008154688F80030002288F8012088F8022088F8032088F80420471C3C780E4602920392252C0BD188F8054000AA03CA03C503CA03C504B0781CBDE8F84370474FF0020901202B2C08DC12DA232C26DC202C24DB10D0232C16D020E0302C1EDC2D2C1CDB02D0302C11D018E088F8002016E088F8013013E098F801C0BCF1010F18BF88F801900BE088F8033008E098F800C0BCF1000F18BF88F8009000E0002010B17F1C3C78CDE72A2C0FD10868001D0860001F01680291002904DA002088F80000484202907F1C3C7810E04FF00A0908E00298A4F1C4
S3FD00001930300100FB09F07F1C08183C780290204600F03AFB0028F1D1029940F2FD1081420CDDFF2000AA88F8050003CA03C503CA03C504B0781CBDE8F84370472E2C23D17F1C3C78012088F802002A2C0DD13068001D3060001F006803900028BCBF002088F802007F1C3C780EE00A2607E00398A4F1300170437F1C08183C780390204600F002FB0028F2D10121B4F1680002D0001F04D007E0022088F8040004E0032088F8040000E0002109B17F1C3C7888F80540692C0ADC632C05DB30D0642C14D0692C12D03CE0582C0FD039E06E2C01DC39D035E0A4F16F00092831D8DFE800F00513303029300530300598F8020010B90120039027E098F8CE
S3FD00001A280000022804BF012088F800001FE0782088F80500012088F80300032088F804000820039013E098F8020010B998F8040068B1FF2088F8050009E098F8040030B1FF2088F8050002E0FF2088F8050000AA03CA03C503CA03C5781C04B0BDE8F843704700000FB42DE9F00F9DF828A083469DF82B909DF82D800C9F0D9B00264D1E0A240022DC462E70F0B9EBB9B9F1000F02D0B8F16F0F17D0B8F1640F02D0B8F1690F0CD19DF82900022803D16D1E2020287004E0012802D16D1E2B2028702846BDE8F00F04B07047B8F1690F09DC1CDAB8F1580F01DC28D02BE0B8F1640F14D027E0B8F16F0F05DC02BF082400208DF829001EE0B8F1780F12
S3FD00001B201BDCB8F1750F18DB0ED0B8F1780F10D013E00A24002810DAB0F1004F1CBFC0F1000BDC46012608E000200A248DF8290003E000208DF829001024BCFBF4F004FB10C0BCFBF4FC0A2838BF303004D3B8F1780F0CBF573037306D1E521C2870BCF1000FEAD1082C09D1B9F1000F06D02878302803D06D1E30202870521CBAF1020F0BD13B4616B99DF8290000B17B1E102C03D1B9F1000F00D09B1E481B191840F2FD108142C8BF002054DC981A302700282FDDC10800F013806D1E05F8017905F8017905F8017905F8017905F8017905F8017905F801792F70491E7FF4EDAF10F0040F00F008806D1E05F8017905F8017905F801792F7010F018
S3FD00001C18020F00F004806D1E05F801792F7010F0010F00F002806D1E2F70102C0BD1B9F1000F08D0BBF1000F05D0681E80F80080AD1E302028701EB16D1E2D2028700CE09DF82900012803D16D1E2B20287004E0022802D16D1E202028702846BDE8F00F04B070470FB42DE9F04FADF5077D8246202002AC894693466070002581E158462521FFF7C9FD0646A8B95846FFF7A6FD0246AD18002A00F0798148465946D047002840F073810DF5077D4FF0FF30BDE8F04F04B07047A0EB0B02AD185AB148465946D04738B90DF5077D4FF0FF30BDE8F04F04B07047304693A903AAFFF7ACFD8346607A6E2815DC80F29480582804DC44DA252800F0A980A0
S3FD00001D10ADE0692800F3AB806328C0F2A88000F09680642810D069280ED0A0E0782800F39E80732805DB52D075282BD0782829D095E06F2826D092E0207A032803BF9399091D939193991CBF091D9391091F0F68022801D13FB202E0012800D17FB2059906980091019003A80CC887A93846FFF785FE0746002800F0728086A90331A1EB000885E0217A032903BF9398001D939093981CBF001D9390001F0768022901D1BFB202E0012900D1FFB2059906980091019003A80CC887A93846FFF75FFE074600284CD086A90331A1EB000860E09398001D9390001F07680FB9DFF8C671E07948B1A07917F8018B002851D006988045C8BF80464CE0A079C5
S3FD00001E0858B1DDF81880384600214246FFF7BEFC002841D0A0EB07083EE03846FFF7E6FC804639E09398001D9390001F0168207A28B1801E05D0401E08BF0D60A9E00D60A7E00D80A5E0939807AF001D9390001F00684FF0010820751EE0252007AF20754FF0010818E03046FFF7C0FC0246AD185AB148463146D04738B90DF5077D4FF0FF30BDE8F04F04B070470DF5077D2846BDE8F04F04B070472079464600284FD002280CBF30202020607038782B2803D02D2801D0202812D1607830280FD1484639460122D04738B90DF5077D4FF0FF30BDE8F04F04B070477F1CA8F10108207902282AD1607A612801D0412825D1B8F1020FB8BF4FF0FF30A9
S3FD00001F0051DB484639460222D04738B90DF5077D4FF0FF30BDE8F04F04B07047A8F10208BF1C0EE002A9484601310122D04738B90DF5077D4FF0FF30BDE8F04F04B07047761C05988642EDDBB8F1000F0CD0484639464246D04738B90DF5077D4FF0FF30BDE8F04F04B070472079A8B920270DF108080EE04846414601222770D04738B90DF5077D4FF0FF30BDE8F04F04B07047761C05988642EDDBAD199BF8000000287FF479AE28460DF5077DBDE8F04F04B0704710EBFF1F00000121B0F5807F98BF0021002911BF0020DFF80810085C00F02000704794220000F8B51746002516680C460CE0FFF74EFBC0B220700D2801D00A2802D1681C3860BC
S3FD00001FF803E06D1C641CB542F0D30020BDE8F840704700002DE9F04117688846012F06D84046FFF7F9FA0020BDE8F04170470026DFF8425000240CE0284608EB06015022FFF7E6FB284685F85040FFF7FFFA503F5036502FF0D857B1284608EB06013A46FFF7D6FB0020E8552846FFF7EFFA0020BDE8F041704748EBFF1F00000020704780EA010C0CF0004C0028BCBFC0F100000CF1010C0029B8BFC1F1000100F0ED8088423CBF4FEA00014FF00000C0F0E5804FF01C024FEA1013B1EB133FDCBFA2F110024FEA1343B1EB131FDCBFA2F108024FEA13239942DCBFA2F104024FEA131300FA02F0C1F10001001802EB42024FEA82027A44974651EB92
S3FD000020F0430338BFA3EB0103404151EB430338BFA3EB0103404151EB430338BFA3EB0103404151EB430338BFA3EB0103404151EB430338BFA3EB0103404151EB430338BFA3EB0103404151EB430338BFA3EB0103404151EB430338BFA3EB0103404151EB430338BFA3EB0103404151EB430338BFA3EB0103404151EB430338BFA3EB0103404151EB430338BFA3EB0103404151EB430338BFA3EB0103404151EB430338BFA3EB0103404151EB430338BFA3EB0103404151EB430338BFA3EB0103404151EB430338BFA3EB0103404151EB430338BFA3EB0103404151EB430338BFA3EB0103404151EB430338BFA3EB0103404151EB430338BFA3EB010333
S3FD000021E8404151EB430338BFA3EB0103404151EB430338BFA3EB0103404151EB430338BFA3EB0103404151EB430338BFA3EB0103404151EB430338BFA3EB0103404151EB430338BFA3EB0103404151EB430338BFA3EB0103404151EB430338BFA3EB0103404151EB430338BFA3EB0103404151EB430338BFA3EB0103404151EB430338BFA3EB010340414FEA03011CF0004318BFC0F100001CF0010318BFC1F1000170474FEA00014FF0000070470000404040404040404040414141414140404040404040404040404040404040404005020202020202020202020202020202A0A0A0A0A0A0A0A0A0A0020202020202029090909090901010101010B9
S3C5000022E010101010101010101010101010101002020202020288888888888808080808080808080808080808080808080808080202020240000000000000000000000000000000000000000000000000000000000000000000000000000000000000000000000000000000000000000000000000000000000000000000000000000000000000000000000000000000000000000000000000000000000000000000000000000000000000000000000000000000000000000000000000000000000000000024
S3FD000023A00A2A2A2A2A64656661756C745F69737220656E7465726564206F6E20766563746F722025642A2A2A2A2A0D0A0A000A2046414D5F4944203D2030782578000A4B31302D000A4B32302D000A4B33302D000A4B34302D000A4B36302D000A556E7265636F676E697A6564204B696E657469732066616D696C79206465766963652E0A000A2050494E5F4944203D203078257800333270696E0A00343870696E0A00363470696E0A00383070696E0A00383170696E0A0031303070696E0A0031303470696E0A0031343470696E0A0031393670696E0A0032353670696E0A000A556E7265636F676E697A6564204B696E65746973207061636B612B
S3FD00002498676520636F6465202E0A000A205245565F4944203D2030782578200A0053696C69636F6E2072657620312E300A0053696C69636F6E2072657620312E310A0053696C69636F6E2072657620312E320A000A546869732076657273696F6E206F6620736F66747761726520646F65736E2774207265636F676E697A6520746865207265766973696F6E20636F64652E000A2052414D5F53495A455F4944203D2030782578200A0038206B4279746573206F662052414D0A0A003136206B4279746573206F662052414D0A0A003332206B4279746573206F662052414D0A0A003634206B4279746573206F662052414D0A0A003936206B42797436
S3FD000025906573206F662052414D0A0A00313238206B4279746573206F662052414D0A0A0020455252212120556E646566696E65642052414D2073697A650A0A00466C61736820706172616D657465722076657273696F6E2025642E25642E25642E25640A00466C6173682076657273696F6E2049442025642E25642E25642E25640A000A4552522120496E76616C6964204952512076616C75652070617373656420746F20656E61626C65206972712066756E6374696F6E210A0053746F70204D6F64652041636B6E6F776C65646765204572726F722052657365740A00457A506F72742052657365740A004D444D2D41502052657365740A00536F17
S3FD000026886674776172652052657365740A00436F7265204C6F636B7570204576656E742052657365740A004A5441472052657365740A00506F7765722D6F6E2052657365740A0045787465726E616C2050696E2052657365740A005761746368646F6728434F50292052657365740A004C6F7373206F6620436C6F636B2052657365740A004C6F772D766F6C74616765204465746563742052657365740A005B6F75745352535D57616B65757020626974207365742066726F6D206C6F7720706F776572206D6F646520657869740A005B6F75745352535D534D435F504D50524F542020203D202523303258200D0A005B6F75745352535D534D435FAB
S3FD00002780504D4354524C2020203D202523303258200D0A005B6F75745352535D534D435F564C4C534354524C2020203D202523303258200D0A005B6F75745352535D534D435F504D535441542020203D202523303258200D0A005B6F75745352535D204C4C532065786974200A005B6F75745352535D20564C4C53302065786974200A005B6F75745352535D20564C4C53312065786974200A005B6F75745352535D20564C4C53322065786974200A005B6F75745352535D20564C4C53332065786974200A005B6F75745352535D52434D5F53525330206973205A45524F2020203D202523303258200D0A005B6F75745352535D52434D5F53525331FE
S3FD00002878206973205A45524F2020203D202523303258200D0A004853434D5030204578616D706C650A00506C656173652072656D6F7665204A3420616E64207368756E74204A3720616E64204A3920696E206F7264657220746F20647269766520746865204952205472616E736D69747465722E0A00507265737320616E79206B657920746F20636F6E74696E75650A000A0A00434D50305F494E3120696E707574206973206F6E20505443372C20776869636820697320636F6E6E656374656420746F20746865204952207265636569766572206F6E2074686520746F77657220626F6172640A00434D50305F4F5554206F757470757420697320D3
S3FD000029706F6E20505443352C207768696368206973206F6E207468652070696E33206F6E204A32284750494F20484541444552290A00526973696E672065646765206F6E204853434D50300A0046616C6C696E672065646765206F6E204853434D50300A0000000000000000000100020000000000000000000000000000000051EAFF1F0100000051EAFF1F0000000000000000000000000000000000000000D91F00000D2000007520000001000000000200020000000000000000000000000000000095EAFF1F0100000095EAFF1F0000000000000000000000000000000000000000D91F00000D200000752000000200000000020002000000006A
S35D00002A68000000000000000000000000D9EAFF1F01000000D9EAFF1F0000000000000000000000000000000000000000D91F00000D200000752000000000000080210020C4F2020001700020C4F20200007800F080000028F7D0704743
S70500000B0CE3
