S0030000FC
S3FD0000000070F5FF1F0D0B0000B1040000B1040000B1040000B1040000B1040000B1040000B1040000B1040000B1040000B1040000B1040000B1040000B1040000B1040000B1040000B1040000B1040000B1040000B1040000B1040000B1040000B1040000B1040000B1040000B1040000B1040000B1040000B1040000B1040000B1040000B1040000B1040000B1040000B1040000B1040000B10400005D190000B1040000B1040000B1040000B1040000B1040000B1040000B1040000B1040000B1040000B1040000B1040000211A0000B1040000B1040000B1040000B1040000B1040000B1040000B1040000B1040000B1040000B1040000B1040000B4
S3FD000000F8FFFFFFFFFFFFFFFFFFFFFFFFFFFFFFFFFFFFFFFFFFFFFFFFFFFFFFFFFFFFFFFFFFFFFFFFFFFFFFFFFFFFFFFFFFFFFFFFFFFFFFFFFFFFFFFFFFFFFFFFFFFFFFFFFFFFFFFFFFFFFFFFFFFFFFFFFFFFFFFFFFFFFFFFFFFFFFFFFFFFFFFFFFFFFFFFFFFFFFFFFFFFFFFFFFFFFFFFFFFFFFFFFFFFFFFFFFFFFFFFFFFFFFFFFFFFFFFFFFFFFFFFFFFFFFFFFFFFFFFFFFFFFFFFFFFFFFFFFFFFFFFFFFFFFFFFFFFFFFFFFFFFFFFFFFFFFFFFFFFFFFFFFFFFFFFFFFFFFFFFFFFFFFFFFFFFFFFFFFFFFFFFFFFFFFFFFFFFFFFFFFFFFFFFFFFFFFFFFFFFFFFFFFFFFFFFFFFFFFFFFFFFFFFFFFFFFFFFFFFFFFFFFFFFFFFFFFFFFFFFFFFFFFFFFFFFFFFF02
S3FD000001F0FFFFFFFFFFFFFFFFFFFFFFFFFFFFFFFFFFFFFFFFFFFFFFFFFFFFFFFFFFFFFFFFFFFFFFFFFFFFFFFFFFFFFFFFFFFFFFFFFFFFFFFFFFFFFFFFFFFFFFFFFFFFFFFFFFFFFFFFFFFFFFFFFFFFFFFFFFFFFFFFFFFFFFFFFFFFFFFFFFFFFFFFFFFFFFFFFFFFFFFFFFFFFFFFFFFFFFFFFFFFFFFFFFFFFFFFFFFFFFFFFFFFFFFFFFFFFFFFFFFFFFFFFFFFFFFFFFFFFFFFFFFFFFFFFFFFFFFFFFFFFFFFFFFFFFFFFFFFFFFFFFFFFFFFFFFFFFFFFFFFFFFFFFFFFFFFFFFFFFFFFFFFFFFFFFFFFFFFFFFFFFFFFFFFFFFFFFFFFFFFFFFFFFFFFFFFFFFFFFFFFFFFFFFFFFFFFFFFFFFFFFFFFFFFFFFFFFFFFFFFFFFFFFFFFFFFFFFFFFFFFFFFFFFFFFFFFFFF09
S3FD000002E8FFFFFFFFFFFFFFFFFFFFFFFFFFFFFFFFFFFFFFFFFFFFFFFFFFFFFFFFFFFFFFFFFFFFFFFFFFFFFFFFFFFFFFFFFFFFFFFFFFFFFFFFFFFFFFFFFFFFFFFFFFFFFFFFFFFFFFFFFFFFFFFFFFFFFFFFFFFFFFFFFFFFFFFFFFFFFFFFFFFFFFFFFFFFFFFFFFFFFFFFFFFFFFFFFFFFFFFFFFFFFFFFFFFFFFFFFFFFFFFFFFFFFFFFFFFFFFFFFFFFFFFFFFFFFFFFFFFFFFFFFFFFFFFFFFFFFFFFFFFFFFFFFFFFFFFFFFFFFFFFFFFFFFFFFFFFFFFFFFFFFFFFFFFFFFFFFFFFFFFFFFFFFFFFFFFFFFFFFFFFFFFFFFFFFFFFFFFFFFFFFFFFFFFFFFFFFFFFFFFFFFFFFFFFFFFFFFFFFFFFFFFFFFFFFFFFFFFFFFFFFFFFFFFFFFFFFFFFFFFFFFFFFFFFFFFFFFFF10
S3FD000003E0FFFFFFFFFFFFFFFFFFFFFFFFFFFFFFFFFFFFFFFFFFFFFFFFFFFFFFFFFFFFFFFFFFFFFFFFFFFFFFFFFFFFFFFFFEFFFFFF2DE9F843DFF87A10DFF87A0081420DD0002408E0A100DFF86E004258A100DFF862004250641CB4F5807FF3D3DFF8520000F088FBDFF85250DFF85270DFF852008046A8EB050405E038467F1C29466D1C007808702046641E0028F5D1DFF83660DFF836008146A9EB060403E03146761C002008702046641E0028F7D1BDE8F843704700E0FF1F0000000010E4FF1F50280000C8EAFF1FD0EAFF1F6DEDFF1F000008B5DFF818004EF60451CEF20001097801F0DCFBBDE808407047C04610E4FF1F08B582B048F23801EB
S3FD000004D8C4F20401086840F4785008604DF20200C4F20700007800F00800002807D04DF20201C4F20701087840F0080008704FF4803148F24400C4F2040001604DF20200C4F20700007800F00800002807D04DF20201C4F20701087840F008000870192000900120019041F20020C0F27A0000210122042300F07AFCDFF860110860DFF85C010068B0F5807F00DAFEE7DFF84C0100684FF47A7101F0DBFFDFF844110860DFF83C01016848F24400C4F20400006800F07040000F401CB1FBF0F1DFF824010160DFF81C01016848F24400C4F20400006800F07060000E401CB1FBF0F1DFF80801016000F082F800F090F84BF20001C4F206014AF200001D
S3FD000005D0C4F2060081420DD14FF440714CF21800C4F2040001604FF440714CF21C00C4F2040001604BF20001C4F206014BF20000C4F2060081420DD14FF440714DF20000C4F2040001604FF440714DF20400C4F2040001604BF20001C4F206014CF20000C4F2060081420DD14FF440714CF20C00C4F2040001604FF440714CF20800C4F2040001604BF20001C4F206014AF20000C4F20600814209D04BF20001C4F206014BF20000C4F2060081420BD14BF20000C4F20600DFF8341009684FF4E13200F01DFF0AE04BF20000C4F20600DFF8201009684FF4E13200F011FF02B0BDE808407047C046E4EAFF1FE0EAFF1FDCEAFF1FD8EAFF1F48F204019C
S3FD000006C8C4F20401086840F4805008604FF4E06149F21800C4F204000160704748F20402C4F2040211686FF0E0000840106048F20401C4F20401086840F0400008604FF4A8614BF20C00C4F2040001607047000008B500F063FFFFF777FEFFF7D5FE00F057FD00F003F800F07BFFFEE708B5DFF8660248F22401C4F20401096801F07001090901F097FA48F22400C4F20400006800F070000009042826D84FEA80008744F0BF00F008B800F00BB800F00EB800F011B800F014B8DFF8220201F07BFA17E0DFF81A0201F076FA12E0DFF8160201F071FA0DE0DFF80E0201F06CFA08E0DFF80A0201F067FA03E0DFF8020201F062FADFF8FE0148F224015C
S3FD000007C0C4F20401096801F00F0101F057FA48F22400C4F20400006800F00F000E2853D84FEA80008744F0BF00F04EB800F04CB800F018B800F048B800F019B800F01CB800F01FB800F022B800F025B800F028B800F02BB800F038B800F02CB800F034B800F02DB8DFF8960101F028FA30E0DFF8920101F023FA2BE0DFF88A0101F01EFA26E0DFF8860101F019FA21E0DFF87E0101F014FA1CE0DFF87A0101F00FFA17E0DFF8720101F00AFA12E0DFF86E0101F005FA0DE0DFF8660101F000FA08E0DFF8620101F0FBF903E0DFF85A0101F0F6F9DFF8560148F22401C4F20401096801F47041090B01F0EAF948F22400C4F20400006800F47040000BC9
S3FD000008B8001E002806D0401E002808D0401E00280AD00EE0DFF81E0101F0D4F90DE0DFF81A0101F0CFF908E0DFF8120101F0CAF903E0DFF80E0101F0C5F900F095F8DFF8060147F20001C4F20401096801F47041090B01F0B7F947F20000C4F20400006800F47040000B092835D84FEA80008744F0BF00F030B800F010B800F02CB800F011B800F028B800F012B800F024B800F013B800F016B800F019B8DFF8AE0001F091F91CE0DFF8A60001F08CF917E0DFF8A20001F087F912E0DFF89A0001F082F90DE0DFF8960001F07DF908E0DFF88E0001F078F903E0DFF88A0001F073F9BDE808407047C0463EE4FF1F4EE4FF1F54E4FF1F5AE4FF1F60E40C
S3FD000009B0FF1F66E4FF1F6CE4FF1F92E4FF1FA2E4FF1FA9E4FF1FB0E4FF1FB7E4FF1FBEE4FF1FC5E4FF1FCDE4FF1FD5E4FF1FDDE4FF1FE5E4FF1FEDE4FF1F13E5FF1F25E5FF1F36E5FF1F47E5FF1F58E5FF1F97E5FF1FAEE5FF1FC0E5FF1FD3E5FF1FE6E5FF1FF9E5FF1F0CE6FF1F20E6FF1F000008B570210020C4F20200017003210720C4F20200017000210620C4F20200017000210520C4F20200017000210420C4F20200017001210F20C4F202000170DFF8A00080470820C4F2020000780090DFF894000B21C4F2020109780A22C4F2020212780923C4F202031B7801F0F7F803210720C4F20200017000210620C4F20200017000210520C4F299
S3FD00000AA80200017004210420C4F20200017001210F20C4F202000170DFF83C0080470820C4F2020000780090DFF834000B21C4F2020109780A22C4F2020212780923C4F202031B7801F0C6F870210020C4F202000170BDE808407047ADEAFF1F3CE6FF1F61E6FF1FDFF8400085464FF000004FF000014FF000024FF000034FF000044FF000054FF000064FF000074FF000084FF000094FF0000A4FF0000B4FF0000C62B6FFF7E6FDFFF7FEBF70F5FF1F0FB400994EF60850CEF20000016004B07047000038B504463D2C03DDDFF8C60001F082F8201104EBD0604511281E002806D0401E00281ED0401E002836D04FE00122E10FC1EBC46001EBF0607F
S3FD00000BA002FA00F14EF28020CEF2000001600122E10FC1EBC46001EBF06002FA00F14EF20010CEF20000016034E00122E10FC1EBC46001EBF06002FA00F14EF28420CEF2000001600122E10FC1EBC46001EBF06002FA00F14EF20410CEF20000016019E00122E10FC1EBC46001EBF06002FA00F14EF28820CEF2000001600122E10FC1EBC46001EBF06002FA00F14EF20810CEF200000160BDE8384070477FE6FF1F000038B504465B2C03DDDFF87A0001F016F8201104EBD0604511281E002806D0401E002811D0401E00281CD028E00122E10FC1EBC46001EBF06002FA00F14EF28010CEF2000001601AE00122E10FC1EBC46001EBF06002FA00F1A0
S3FD00000C984EF28410CEF2000001600CE00122E10FC1EBC46001EBF06002FA00F14EF28810CEF200000160BDE838407047C046B7E6FF1F000038B50446216A6FF0400008402062616A6FF00B0008406062606A40F007006062606A40F080006062206800F080000028FAD0606A00F04000402801D1012047E00025E06C85B2A06C80B22D18ADB2606C80B22D18ADB2206C80B22D18ADB2E06B80B22D18ADB2A06B80B22D18ADB205EBD570401085B245F400454FF6FF702840E0620025E06E85B2A06E80B22D18ADB2606E80B22D18ADB2206E80B22D18ADB2E06D80B22D18ADB2A06D80B22D18ADB205EBD570401085B245F400454FF6FF702840206377
S3FD00000D90616A6FF08000084060620020BDE838407047000038B505460C462078A8606078E8606088A861A088E861A0792862E0796862207A2860607A6860BDE83840704738B505460C46A86A80B22080E86A80B26080286B80B2A080686BC0B2A071A86BC0B2E071E86B80B22081286C80B26081686CC0B22073A86CC0B26073E86CC0B2A073686DC0B22074A86DC0B26074E86D80B26082286E80B2A082686EC0B2A075A86EC0B2E075E86EC0B22076BDE83840704700000FB42DE9F84F06469846DDF838B044F20600C4F20600007800F00C008008002811D144F20600C4F20600007800F01000002808D044F20600C4F20600007800F020000028E6
S3FD00000E8801D00120A0E14FF28000C0F2FA20864201DD212098E10CA8007800280DD04CF2C060C0F22D00864205DB44F60000C0F2E810864201DD222086E10BA80078002802D001210BA80170B8F1010F02DBB8F1190F01DD412077E1BBF1180F02DBBBF1370F01DD42206FE196FBF8F0814648F28040C0F21E00814505DB40F60010C0F23D00814501DD43205EE196FBF8F00BFB00F0824646F60040C0F2DC20824505DB4EF20010C0F2F550824501DD45204BE144F20100C4F20600047804F0C3044CF2C060C0F22D0086420BDC0BA80078C00040F010000CA9097889000843C0B204430AE00BA80078C00040F020000CA9097889000843C0B204438C
S3FD00000F8044F20100C4F20600047041F2D020C0F21300864201DC002720E042F2A050C0F22600864201DC012718E044F64030C0F24C00864201DC022710E049F28060C0F29800864201DC032708E042F60050C0F23110864201DC042700E0052744F20000C4F20600047804F00304F800C0B200F0380040F08000C4B244F20000C4F2060004700CA8007800281BD000250AE044F20600C4F20600007800F00200002805D16D1C2DB242F210708542F0DB44F20600C4F20600007800F00200002801D12320C6E000250BE044F20600C4F20600007800F00C008008022804D06D1C2DB2B5F5FA6FF0DB44F20600C4F20600007800F00C008008022801D05F
S3FD000010781A20A9E044F20501C4F20601087840F02000087044F20400C4F20600047804F0E004A8F10100C0B2C0B200F01F002043C4B244F20400C4F20600047044F20500C4F20600047804F0E004ABF11800C0B2C0B200F01F0040F04000C0B2044344F20500C4F20600047000250AE044F20600C4F20600007800F02000002804D16D1C2DB2B5F5FA6FF1DB44F20600C4F20600007800F02000002801D116205CE000250AE044F20600C4F20600007800F04000002804D16D1C2DB2B5F5FA6FF1DB44F20600C4F20600007800F04000002801D1442041E044F20400C4F20600007800F01F00401CC1B200A8417044F20500C4F20600007800F01F00E2
S3FD000011701830C1B200A8017044F20001C4F20601087800F03F00087000250BE044F20600C4F20600007800F00C008008032804D06D1C2DB2B5F5FA6FF0DB44F20600C4F20600007800F00C008008032801D01B2006E000A8017800A8407896FBF0F04843BDE8F84F04B0704708B54FF20100C4F20700007800F02000002803D0DFF87E0200F044FD4FF20100C4F20700007800F01000002803D0DFF86A0200F037FD4FF20100C4F20700007800F00800002803D0DFF8520200F02AFD4FF20100C4F20700007800F00400002803D0DFF83E0200F01DFD4FF20100C4F20700007800F00200002803D0DFF8260200F010FD4FF20100C4F20700007800F0CA
S3FD000012680100002803D0DFF8120200F003FD4FF20000C4F20700007800F08000002803D0DFF8FA0100F0F6FC4FF20000C4F20700007800F04000002803D0DFF8E60100F0E9FC4FF20000C4F20700007800F02000002803D0DFF8CE0100F0DCFC4FF20000C4F20700007800F00400002803D0DFF8BA0100F0CFFC4FF20000C4F20700007800F00200002803D0DFF8A20100F0C2FC4FF20000C4F20700007800F00100002800F08D80DFF88A0100F0B4FCDFF886014EF20001C4F20701097800F0ABFCDFF87A014EF20101C4F20701097800F0A2FCDFF86A014EF20201C4F20701097800F099FCDFF85E014EF20301C4F20701097800F090FC4EF2010099
S3FD00001360C4F20700007800F00700032803D1DFF83E0100F083FC4EF20100C4F20700007800F0070004280CD14EF20200C4F20700007800F00700002803D1DFF8160100F06DFC4EF20100C4F20700007800F0070004280CD14EF20200C4F20700007800F00700012803D1DFF8EE0000F057FC4EF20100C4F20700007800F0070004280CD14EF20200C4F20700007800F00700022803D1DFF8C60000F041FC4EF20100C4F20700007800F0070004280CD14EF20200C4F20700007800F00700032803D1DFF89E0000F02BFC4FF20000C4F207000078002818D14FF20100C4F207000078002811D1DFF87E004FF20001C4F20701097800F014FCDFF86E0091
S3FD000014584FF20101C4F20701097800F00BFCBDE808407047C046F0E6FF1F13E7FF1F21E7FF1F2FE7FF1F3FE7FF1F58E7FF1F64E7FF1F74E7FF1F88E7FF1F9DE7FF1FB2E7FF1FCCE7FF1FFDE7FF1F1DE8FF1F3DE8FF1F5FE8FF1F7FE8FF1F93E8FF1FA9E8FF1FBFE8FF1FD5E8FF1FEBE8FF1F11E9FF1F00002DE9F8430446894690464AF20000C4F20600844208D148F23401C4F20401086840F4806008601CE04BF20000C4F20600844208D148F23401C4F20401086840F4006008600DE04CF20000C4F20600844207D148F23401C4F20401086840F480500860E07800F0F300E0700020A0704FF47A7009FB00F14FEA081091FBF0F085B221786FF025
S3FD000015501F000840C6B205F4F8500012C0B2C0B200F01F003043C0B22070E8B260704FF4FA4009FB00F14FEA081091FBF0F16801081A87B2A17A6FF01F000840C6B2F8B2C0B200F01F003043C0B2A072E07840F00C00E070BDE8F8437047000010B50446207900F020000028FAD0E07940B2BDE8104070470FB418B40446207900F080000028FAD003A890F90000C0B2E07118BC04B0704708B500F00DF842F20002C4F2050211884FF6FE7008401080BDE808407047000072B64CF2205142F20E00C4F2050001804DF6281142F20E00C4F20500018062B67047000008B5DFF8D40000F025FBDFF8D00000F021FBDFF8CC0000F01DFBDFF8C800426A58
S3FD00001648511EDFF8C0004162002A08D0DFF8B400026A511CDFF8AC000162107803E0DFF8A40000F09BFADFF8A00000F003FB0021DFF8980001800021DFF8940001700021DFF8900001601620FFF7D6FA2220FFF7D3FADFF88410DFF88400C0F89810DFF88010DFF87800C0F8C81048F23C01C4F20401086840F0046008601620FFF750FA2220FFF74DFA62B600F04CF800F0B6F8DFF83C000078002805D00021DFF83000017000F01FF8DFF82C0000680028EFD000F02EF8ECE7C04637E9FF1F48E9FF1F6BE9FF1FDCE9FF1FB2E9FF1FEEEAFF1FECEAFF1FE8EAFF1F5D19000000E0FF1F211A000010B5002408E0DFF81A006200DFF81610895A00F07D
S3FD000017409DFA641C802CF4D3BDE810407047B5E9FF1FF0EAFF1F000008B5DFF80C0000F08DFABDE808407047BFE9FF1F10B57D21DFF8C80001700421DFF8C000417041F23421DFF8B800418045F27861DFF8AC0081801821DFF8A40081710721DFF89C00C1711F21DFF8940001721F21DFF88C0041724BF20000C4F20300DFF88010FFF7F1FA4BF20000C4F20300FFF77FFA04464BF20000C4F20300DFF86410FFF7F8FA7D21DFF8580001700C21DFF85000417041F23421DFF84400418045F27861DFF83C0081805021DFF8340081710421DFF82C00C1715521DFF8240001725521DFF81C0041724BF20000C4F20300DFF80C10FFF7B8FABDE81040DE
S3FD000018387047C0460CEDFF1FF0ECFF1F4FF480714BF21C00C4F20400016080214FF28800C4F20F0001604FF29401C4F20F01086840F0800008604FF480714BF22000C4F2040001604FF480714FF28800C4F20F0001604FF29401C4F20F01086840F480700860002146F20000C4F20300016046F20001C4F20301086840F08000086046F20001C4F20301086840F47060086046F20001C4F20301086840F00200086040F2033146F21000C4F203000160002146F21800C4F20300016040F6426146F21C00C4F20300016041F6786146F20400C4F20300016041F6786146F20C00C4F20300016046F20001C4F20301086840F00100086046F20001C4F20E
S3FD000019300301086840F02000086046F20001C4F20301086840F40030086046F20001C4F20301086840F480300860704770B54BF20000C4F20300006800F0800000280BD080214FF28C00C4F20F0001604BF21000C4F20300006886B24BF20400C4F20300006800F08000002836D04FF480714FF28C00C4F20F0001604BF21400C4F20300006885B2DFF856000288DFF852000088411C89B2DFF8460001805100DFF842004552DFF83A000088802815D1002409E06100DFF82E00425A6100DFF82A004252641C24B2802CF3D30121DFF81E0001700021DFF80A000180BDE870407047EEEAFF1FF0EBFF1FF0EAFF1FECEAFF1F000008B546F21400C4F2B4
S3FD00001A280300006800F00100002803D00020002100F022F846F21400C4F20300006800F00200002803D00020012100F015F846F20000C4F20300006800F04000002808D046F20002C4F2030211686FF0400008401060BDE8084070470FB4DFF838000068411CDFF83000016000A8008800280ED146F21403C4F203031A68012101A8008801FA00F000F0FF00C0431040186004B07047C046E8EAFF1F0FB410B5029C20780A2806D14BF20000C4F206000D21FFF775FD4BF20000C4F20600217849B2FFF76DFDBDE8104004B0704700000FB410B5029C13E020780A2806D14BF20000C4F206000D21FFF75AFD2146641C4BF20000C4F20600097849B24A
S3FD00001B20FFF750FD20780028E8D1BDE8104004B07047000008B54BF20000C4F20600FFF735FDC0B2BDE8084070470000816942690162816AC3691140591A41620263704770B504460E461546FFF7F0FF012D04BFE06960622068A169A36B04F124029847C0B2022804BF002161620EB1616A316020B96169606A081860610020BDE870407047000010B500214162017B044609B9C17921B90020C043BDE810407047427A012A03D0417911F0010108D101210173002141620020C043BDE810407047032A0BD3511E4172032A04BFC16A4162D11E4018C07BBDE8104070470221417200210A46FFF7ADFFC1B209B9606A80B9012904D10120207300203A
S3FD00001C18606204E0002101206172E07261620020C043BDE810407047216A401E6062481C20620878BDE8104070470000CBB2521C05E010F8011B994201D1401E7047521EF7D10020704700000FB410B5012004AA012400F027FC00B100242046BDE8104004B070470FB408B50020009002AB23F00303DFF81400029A00211B1D00F04AFABDE8084004B07047611C00004FF0FF3210F8011B521C0029FAD11046704700008446521C0CE011F8013BDBB20CF8013B33B9002101E00CF8011B521EFBD17047521EF0D170470000C9B203E08A4201D1401E704710F8012B002AF7D1002918BF002000D1401E70472DE9F84384B001230DF10008154688F8BB
S3FD00001D100030002288F8012088F8022088F8032088F80420471C3C780E4602920392252C0BD188F8054000AA03CA03C503CA03C504B0781CBDE8F84370474FF0020901202B2C08DC12DA232C26DC202C24DB10D0232C16D020E0302C1EDC2D2C1CDB02D0302C11D018E088F8002016E088F8013013E098F801C0BCF1010F18BF88F801900BE088F8033008E098F800C0BCF1000F18BF88F8009000E0002010B17F1C3C78CDE72A2C0FD10868001D0860001F01680291002904DA002088F80000484202907F1C3C7810E04FF00A0908E00298A4F1300100FB09F07F1C08183C780290204600F03AFB0028F1D1029940F2FD1081420CDDFF2000AA88F848
S3FD00001E08050003CA03C503CA03C504B0781CBDE8F84370472E2C23D17F1C3C78012088F802002A2C0DD13068001D3060001F006803900028BCBF002088F802007F1C3C780EE00A2607E00398A4F1300170437F1C08183C780390204600F002FB0028F2D10121B4F1680002D0001F04D007E0022088F8040004E0032088F8040000E0002109B17F1C3C7888F80540692C0ADC632C05DB30D0642C14D0692C12D03CE0582C0FD039E06E2C01DC39D035E0A4F16F00092831D8DFE800F00513303029300530300598F8020010B90120039027E098F80000022804BF012088F800001FE0782088F80500012088F80300032088F804000820039013E098F828
S3FD00001F00020010B998F8040068B1FF2088F8050009E098F8040030B1FF2088F8050002E0FF2088F8050000AA03CA03C503CA03C5781C04B0BDE8F843704700000FB42DE9F00F9DF828A083469DF82B909DF82D800C9F0D9B00264D1E0A240022DC462E70F0B9EBB9B9F1000F02D0B8F16F0F17D0B8F1640F02D0B8F1690F0CD19DF82900022803D16D1E2020287004E0012802D16D1E2B2028702846BDE8F00F04B07047B8F1690F09DC1CDAB8F1580F01DC28D02BE0B8F1640F14D027E0B8F16F0F05DC02BF082400208DF829001EE0B8F1780F1BDCB8F1750F18DB0ED0B8F1780F10D013E00A24002810DAB0F1004F1CBFC0F1000BDC46012608E078
S3FD00001FF800200A248DF8290003E000208DF829001024BCFBF4F004FB10C0BCFBF4FC0A2838BF303004D3B8F1780F0CBF573037306D1E521C2870BCF1000FEAD1082C09D1B9F1000F06D02878302803D06D1E30202870521CBAF1020F0BD13B4616B99DF8290000B17B1E102C03D1B9F1000F00D09B1E481B191840F2FD108142C8BF002054DC981A302700282FDDC10800F013806D1E05F8017905F8017905F8017905F8017905F8017905F8017905F801792F70491E7FF4EDAF10F0040F00F008806D1E05F8017905F8017905F801792F7010F0020F00F004806D1E05F801792F7010F0010F00F002806D1E2F70102C0BD1B9F1000F08D0BBF1000FF6
S3FD000020F005D0681E80F80080AD1E302028701EB16D1E2D2028700CE09DF82900012803D16D1E2B20287004E0022802D16D1E202028702846BDE8F00F04B070470FB42DE9F04FADF5077D8246202002AC894693466070002581E158462521FFF7C9FD0646A8B95846FFF7A6FD0246AD18002A00F0798148465946D047002840F073810DF5077D4FF0FF30BDE8F04F04B07047A0EB0B02AD185AB148465946D04738B90DF5077D4FF0FF30BDE8F04F04B07047304693A903AAFFF7ACFD8346607A6E2815DC80F29480582804DC44DA252800F0A980ADE0692800F3AB806328C0F2A88000F09680642810D069280ED0A0E0782800F39E80732805DB52D0AA
S3FD000021E875282BD0782829D095E06F2826D092E0207A032803BF9399091D939193991CBF091D9391091F0F68022801D13FB202E0012800D17FB2059906980091019003A80CC887A93846FFF785FE0746002800F0728086A90331A1EB000885E0217A032903BF9398001D939093981CBF001D9390001F0768022901D1BFB202E0012900D1FFB2059906980091019003A80CC887A93846FFF75FFE074600284CD086A90331A1EB000860E09398001D9390001F07680FB9DFF8C671E07948B1A07917F8018B002851D006988045C8BF80464CE0A07958B1DDF81880384600214246FFF7BEFC002841D0A0EB07083EE03846FFF7E6FC804639E09398001D7E
S3FD000022E09390001F0168207A28B1801E05D0401E08BF0D60A9E00D60A7E00D80A5E0939807AF001D9390001F00684FF0010820751EE0252007AF20754FF0010818E03046FFF7C0FC0246AD185AB148463146D04738B90DF5077D4FF0FF30BDE8F04F04B070470DF5077D2846BDE8F04F04B070472079464600284FD002280CBF30202020607038782B2803D02D2801D0202812D1607830280FD1484639460122D04738B90DF5077D4FF0FF30BDE8F04F04B070477F1CA8F10108207902282AD1607A612801D0412825D1B8F1020FB8BF4FF0FF3051DB484639460222D04738B90DF5077D4FF0FF30BDE8F04F04B07047A8F10208BF1C0EE002A948463B
S3FD000023D801310122D04738B90DF5077D4FF0FF30BDE8F04F04B07047761C05988642EDDBB8F1000F0CD0484639464246D04738B90DF5077D4FF0FF30BDE8F04F04B070472079A8B920270DF108080EE04846414601222770D04738B90DF5077D4FF0FF30BDE8F04F04B07047761C05988642EDDBAD199BF8000000287FF479AE28460DF5077DBDE8F04F04B07047A8EAFF1F00000121B0F5807F98BF0021002911BF0020DFF80810085C00F02000704744270000F8B51746002516680C460CE0FFF74EFBC0B220700D2801D00A2802D1681C386003E06D1C641CB542F0D30020BDE8F840704700002DE9F04117688846012F06D84046FFF7F9FA002056
S3FD000024D0BDE8F04170470026DFF8425000240CE0284608EB06015022FFF7E6FB284685F85040FFF7FFFA503F5036502FF0D857B1284608EB06013A46FFF7D6FB0020E8552846FFF7EFFA0020BDE8F04170471CEDFF1F00000020704780EA010C0CF0004C0028BCBFC0F100000CF1010C0029B8BFC1F1000100F0ED8088423CBF4FEA00014FF00000C0F0E5804FF01C024FEA1013B1EB133FDCBFA2F110024FEA1343B1EB131FDCBFA2F108024FEA13239942DCBFA2F104024FEA131300FA02F0C1F10001001802EB42024FEA82027A44974651EB430338BFA3EB0103404151EB430338BFA3EB0103404151EB430338BFA3EB0103404151EB430338BF89
S3FD000025C8A3EB0103404151EB430338BFA3EB0103404151EB430338BFA3EB0103404151EB430338BFA3EB0103404151EB430338BFA3EB0103404151EB430338BFA3EB0103404151EB430338BFA3EB0103404151EB430338BFA3EB0103404151EB430338BFA3EB0103404151EB430338BFA3EB0103404151EB430338BFA3EB0103404151EB430338BFA3EB0103404151EB430338BFA3EB0103404151EB430338BFA3EB0103404151EB430338BFA3EB0103404151EB430338BFA3EB0103404151EB430338BFA3EB0103404151EB430338BFA3EB0103404151EB430338BFA3EB0103404151EB430338BFA3EB0103404151EB430338BFA3EB0103404151EBD6
S3FD000026C0430338BFA3EB0103404151EB430338BFA3EB0103404151EB430338BFA3EB0103404151EB430338BFA3EB0103404151EB430338BFA3EB0103404151EB430338BFA3EB0103404151EB430338BFA3EB0103404151EB430338BFA3EB010340414FEA03011CF0004318BFC0F100001CF0010318BFC1F1000170474FEA00014FF0000070470000404040404040404040414141414140404040404040404040404040404040404005020202020202020202020202020202A0A0A0A0A0A0A0A0A0A002020202020202909090909090101010101010101010101010101010101010101002020202020288888888888808080808080808080808080808A9
S39D000027B8080808080808080202020240000000000000000000000000000000000000000000000000000000000000000000000000000000000000000000000000000000000000000000000000000000000000000000000000000000000000000000000000000000000000000000000000000000000000000000000000000000000000000000000000000000000000000000000000000000000000000003
S3FD000028500A2A2A2A2A64656661756C745F69737220656E7465726564206F6E20766563746F722025642A2A2A2A2A0D0A0A000A2046414D5F4944203D2030782578000A4B31302D000A4B32302D000A4B33302D000A4B34302D000A4B36302D000A556E7265636F676E697A6564204B696E657469732066616D696C79206465766963652E0A000A2050494E5F4944203D203078257800333270696E0A00343870696E0A00363470696E0A00383070696E0A00383170696E0A0031303070696E0A0031303470696E0A0031343470696E0A0031393670696E0A0032353670696E0A000A556E7265636F676E697A6564204B696E65746973207061636B6176
S3FD00002948676520636F6465202E0A000A205245565F4944203D2030782578200A0053696C69636F6E2072657620312E300A0053696C69636F6E2072657620312E310A0053696C69636F6E2072657620312E320A000A546869732076657273696F6E206F6620736F66747761726520646F65736E2774207265636F676E697A6520746865207265766973696F6E20636F64652E000A2052414D5F53495A455F4944203D2030782578200A0038206B4279746573206F662052414D0A0A003136206B4279746573206F662052414D0A0A003332206B4279746573206F662052414D0A0A003634206B4279746573206F662052414D0A0A003936206B42797481
S3FD00002A406573206F662052414D0A0A00313238206B4279746573206F662052414D0A0A0020455252212120556E646566696E65642052414D2073697A650A0A00466C61736820706172616D657465722076657273696F6E2025642E25642E25642E25640A00466C6173682076657273696F6E2049442025642E25642E25642E25640A000A4552522120496E76616C6964204952512076616C75652070617373656420746F20656E61626C65206972712066756E6374696F6E210A000A4552522120496E76616C6964204952512076616C75652070617373656420746F2064697361626C65206972712066756E6374696F6E210A0053746F70204D6F64C6
S3FD00002B38652041636B6E6F776C65646765204572726F722052657365740A00457A506F72742052657365740A004D444D2D41502052657365740A00536F6674776172652052657365740A00436F7265204C6F636B7570204576656E742052657365740A004A5441472052657365740A00506F7765722D6F6E2052657365740A0045787465726E616C2050696E2052657365740A005761746368646F6728434F50292052657365740A004C6F7373206F6620436C6F636B2052657365740A004C6F772D766F6C74616765204465746563742052657365740A005B6F75745352535D57616B65757020626974207365742066726F6D206C6F7720706F776521
S3FD00002C3072206D6F646520657869740A005B6F75745352535D534D435F504D50524F542020203D202523303258200D0A005B6F75745352535D534D435F504D4354524C2020203D202523303258200D0A005B6F75745352535D534D435F564C4C534354524C2020203D202523303258200D0A005B6F75745352535D534D435F504D535441542020203D202523303258200D0A005B6F75745352535D204C4C532065786974200A005B6F75745352535D20564C4C53302065786974200A005B6F75745352535D20564C4C53312065786974200A005B6F75745352535D20564C4C53322065786974200A005B6F75745352535D20564C4C5333206578697421
S3FD00002D28200A005B6F75745352535D52434D5F53525330206973205A45524F2020203D202523303258200D0A005B6F75745352535D52434D5F53525331206973205A45524F2020203D202523303258200D0A0048656C6C6F204B696E65746973210D0A0057656C636F6D6520746F205044422074726967676572204144432064656D6F210D0A00506C65617365206D616B652073757265204A313520666F722074686520504F54206973207365742C20707265737320616E79206B657920746F20636F6E74696E75652E2E2E21000D0A000D504F543D20253664004572726F723A205044422053657175656E6365206572726F72210D0A00000000004C
S3F500002E200001000200000000000000000000000000000000E9E9FF1F01000000E9E9FF1F000000000000000000000000000000000000000089240000BD240000252500000100000000020002000000000000000000000000000000002DEAFF1F010000002DEAFF1F000000000000000000000000000000000000000089240000BD2400002525000002000000000200020000000000000000000000000000000071EAFF1F0100000071EAFF1F000000000000000000000000000000000000000089240000BD240000252500000000000080210020C4F2020001700020C4F20200007800F080000028F7D07047000000000000000097
S70500000B0CE3
