S019000068656C6C6F5F776F726C645F746F7765722E73726563E0
S1130000F81F002011040000C12E0000C12E0000C2
S1130010C12E0000C12E0000C12E0000C12E000020
S1130020C12E0000C12E0000C12E0000C12E000010
S1130030C12E0000C12E0000C12E0000C12E000000
S1130040C12E0000C12E0000C12E0000C12E0000F0
S1130050C12E0000C12E0000C12E0000C12E0000E0
S1130060C12E0000C12E0000C12E0000C12E0000D0
S1130070C12E0000C12E0000C12E0000C12E0000C0
S1130080F51F0000C12E000027200000C12E000033
S1130090C12E0000C12E0000C12E0000C12E0000A0
S11300A0C12E0000C12E0000C12E0000C12E000090
S11300B0C12E0000C12E00003B200000692000007A
S11300C0C12E0000C12E0000C12E0000C12E000070
S11300D0C12E0000C12E0000C12E0000C12E000060
S11300E0C12E000089200000C12E0000C12E000096
S11300F0C12E0000C12E0000FFFFFFFFFFFFFFFF26
S1130100FFFFFFFFFFFFFFFFFFFFFFFFFFFFFFFFFB
S1130110FFFFFFFFFFFFFFFFFFFFFFFFFFFFFFFFEB
S1130120FFFFFFFFFFFFFFFFFFFFFFFFFFFFFFFFDB
S1130130FFFFFFFFFFFFFFFFFFFFFFFFFFFFFFFFCB
S1130400FFFFFFFFFFFFFFFFFFFFFFFFFEFFFFFFF9
S11304104FF000004FF000014FF000024FF00003D6
S11304204FF000044FF000054FF000064FF00007B6
S113043062B602F07DFDFEE72DE9F04FA1B08046E3
S113044017461D46029102AE0020706211AC6FF097
S113045000490AE017F8011B0298C04702900028DF
S113046000F07C82706A401C7062387808B9706A47
S113047076E22528EED10020F06030617061B06131
S1130480F061306201E040F0010017F8011F2029FB
S1130490F9D023290ED02B2904D02D2906D03029B8
S11304A00CD00FE040F0020080B2EEE740F0040010
S11304B080B2EAE740F0080080B2E6E740F01000BE
S11304C080B2E2E72A290DD129680A1D2A60096849
S11304D0F162002904D54942F16240F0040080B27F
S11304E07F1C11E00021F16209E0F16A494505D061
S11304F001EB810302EB43013039F1627F1C3A784E
S1130500A2F130010A29F0D339782E291CBF4FF00B
S1130510FF31B1621CD117F8011F2A2906D12968BD
S11305200A1D2A600968B1627F1C11E00021B162D2
S113053009E0B16A494505D001EB810302EB4301AF
S11305403039B1627F1C3A78A2F130010A29F0D324
S1130550308639780FF6E43000F00EFE08B117F853
S1130560010B8DF83A009DF83A00682804D13878D8
S113057068280AD1622005E06C2804BF38786C280A
S113058003D171208DF83A007F1C11A8B0603A782D
S11305901046253825D01C3875D0001F022872D982
S11305A0133800F09C8009386DD0801E00F037812C
S11305B0401E00F0DD80401E022864D9001F00F0B8
S11305C0D780401F34D0401E00F08980401E24D0C4
S11305D0C01E0CD0801E00F08280C01E00F07F8000
S11305E026E1F068411CF160252101552AE12868C3
S11305F0011D296000687060B26A002A03D500F00A
S1130600C7FD30611EE1002100F0DEFD00281ABFA5
S11306107168401AB06A306114E12868011D2960CC
S113062000680021CDE9000111A870607821F2E092
S11306309DF83A00622818D0682806D06A280BD0A2
S11306406C2819D0712807D016E02868011D29608C
S1130650716A00680180F5E02A68101D2860706ADC
S1130660C1171268C2E90001ECE02868011D296085
S1130670716A00680170E5E02868011D2960716AEB
S113068000680160DEE02868C01D20F007002860D3
S1130690034603F108002860D3E90001CDE9000115
S11306A0002904D5F068411CF1602D210DE0308E45
S11306B0810704D5F068411CF1602B2105E0C007D7
S11306C004D5F068411CF16020210155F06811A99E
S11306D040187060114600A800F0D8F9B2E09DF807
S11306E03A306C2B08BF286811D0712B08BF2868DA
S11306F002D06A2B28680AD1C01D20F007002860A8
S113070084460CF108002860DCE9000103E0011DC7
S1130710296000680021CDE90001682B04BFDDE9F0
S1130720000180B20BD0622B04BFDDE90001C0B22E
S113073005D0742B18BF7A2B04D1DDE90001002108
S1130740CDE9000196F8300000075FD5DDE900012E
S1130750002908BF002859D042F02000782855D13C
S1130760F06830210155401C411CF16002554DE0F8
S11307709DF83A0062280CD0682810D06A281AD054
S11307806C2824D0712816D0742820D07A280CD054
S11307901DE02868011D296090F900001BE028680D
S11307A0011D2960B0F9000015E02868011D2960C9
S11307B00068002110E02868C01D20F007002860B0
S11307C0034603F108002860D3E9000104E0286827
S11307D0011D29600068C117CDE90001DDE90001B0
S11307E0002904DAF068411CF1602D210DE0308EFF
S11307F0810704D5F068411CF1602B2105E0C00796
S113080004D5F068411CF16020210155F06811A95C
S113081040187060114600A800F0A5F812E0F068D6
S1130820411CF16029680A1D2A600968015509E024
S1130830F068411CF160252101551AB1F068411C92
S1130840F16002557F1CF06AF168401AB169401AE0
S11308503169401AF169401A7169401A316AA0EB92
S1130860010A96F83000400711D420208DF840008A
S1130870BAF1010F0BDBD346012310AA00A94046AD
S113088000F044FC002869D1BBF1010BF4D1F368FA
S113089011AA00A9404600F039FC00285ED130209E
S11308A08DF84000D6F818B0BBF1010F0ADB012324
S11308B010AA00A9404600F029FC00284ED1BBF143
S11308C0010BF4D13369726800A9404600F01EFCA4
S11308D0002843D130208DF84000D6F81CB0BBF17D
S11308E0010F09DB012310AA00A9404600F00EFC09
S11308F0A0BBBBF1010BF5D1736930697168421873
S113090000A9404600F002FC40BB30208DF84000B6
S1130910D6F820B0BBF1010F09DB012310AA00A90E
S1130920404600F0F3FBC8B9BBF1010BF5D196F8D2
S1130930300040077FF599AD20208DF84000BAF1D2
S1130940010FFFF692AD012310AA00A9404600F062
S1130950DDFB18B9BAF1010AF5D186E54FF0FF3095
S113096021B0BDE8F08F2DE9FA4B86B005462F691A
S11309706F2908BF082605D041F02000782814BF4D
S11309800A2610263C24D5E9000181468B469DF8B1
S11309901820642A18BF692A05D1002903DAD9F17D
S11309A000096BEB4B0BBBF1000F08BFB9F1000F53
S11309B00CD1286B50B9082E44D195F838000007A3
S11309C040D53B24302087F83B003BE0A4F10108EC
S11309D04446F017CDE9046048465946DDE904234E
S11309E000F01EFCCDE90201CDE9009BDDE9022304
S11309F0DDE90401A0FB029BDDE90001A0EB090095
S1130A003030C0B23A2803D39DF818105139081871
S1130A1008F80700DDE9029BBBF1000F08BFB9F13C
S1130A20000F03D0E868E1198842CFD3082E09D11A
S1130A3095F83800000705D5E05D302802D0641E23
S1130A403020E055C4F13C00A861E119E960296B4C
S1130A50884207DA081A2862288F4FF6EF71084097
S1130A60288710E000290ED595F8381001F01401FC
S1130A70102908D1696B6A69891A2A6A891A0C1AB9
S1130A80012CA8BF2C6208B0BDE8F08B2DE9F24F11
S1130A908EB0054604AFD5E90001CDE902019DF809
S1130AA0380040F020008DF8000061280BD0286B3E
S1130AB0002848BF062005D404BF9DF8000067281D
S1130AC001D1012028636968C1F30A5040F2FF7321
S1130AD098421CD1080304BF2868002809D10320C8
S1130AE0A8619DF8380061381A2837D30FF2606185
S1130AF008E00320A8619DF8380061381A282AD339
S1130B000FF244610322E86800F002FCBBE101003B
S1130B1017D1284600F037FC012812DB00240020FE
S1130B209DF80010612920D1E968302201F8012BD9
S1130B304A1CEA609DF83820612A0CBF78225822AA
S1130B400FE040F2FE316A6861F31E526A60441A93
S1130B504FF0FF30E4E70FF2EC51D3E70FF2EC5122
S1130B60D0E70A706969891C696110B90026B0462A
S1130B707FE19DF80000612840F09780286B0028F1
S1130B804CBF2126461C36B2771CD5E900ABDDE903
S1130B9002010022002300F019FC3ABF8BF0004050
S1130BA0CDE902A0CDE902ABA4F104088DF8102030
S1130BB00DF11109012F33DBDDE9020100220023CD
S1130BC000F01CFC2CD21C2102A800F02FFCDDE953
S1130BD0020100F0B9FC0446FF1F012F09DB00F0FD
S1130BE0DFFC02460B46DDE9020100F0F1FCCDE931
S1130BF0020109F20700072104E004F00F0200F8E3
S1130C00012D2411012C01DB491EF6D5491E5CBFC0
S1130C10002200F8012DF9D500F20709012FCBDAE3
S1130C200DF11100A9EB00010DF11107B142B8BF9C
S1130C300E4636B2002E31D43046884206DA04A974
S1130C4041184978082928BF0F2100D2002104AA9D
S1130C50821800E0761E401E12F801398B42F9D04A
S1130C600F2904D104A941184A78521C4A7000285B
S1130C7003D504AF761C08F1040836B2701E0DD4F7
S1130C80C1190A783032D2B23A2A03D39DF83830E7
S1130C903A3B9A1801F80129401EF2D5286B002826
S1130CA040F1E780701E2863E3E0DDE902010022E1
S1130CB0002300F08BFB05D2DDE9020181F0004145
S1130CC0CDE9020124B247F2975060436F4990FB8B
S1130CD0F1F80FFA88F8C8F107040027DFF8B0919B
S1130CE0012C19DBDDE902ABE00707D55046594674
S1130CF03A464B4600F02CFD82468B46641038463B
S1130D0049463A464B4600F023FD07468946002CE7
S1130D10EAD1CDE902AB21E064429246DFF874B136
S1130D2014D0E00707D5504659463A464B4600F0E2
S1130D300FFD82468B466410384649463A464B4678
S1130D4000F006FD07468946002CEAD1DDE90201E0
S1130D5052465B4600F0CEFDCDE902019DF800004D
S1130D6066280CBF08F10A000620296B4618142EC9
S1130D70A8BF132630208DF810000DF11104464F42
S1130D80012E33DBDDE9020100F0F4FB04F108017C
S1130D9004220A24B0FBF4F303EB830EA0EB4E0011
S1130DA0303001F8010DB3FBF4F000EB8004A3EB49
S1130DB04403303301F8013D521EEAD101F1080425
S1130DC0083E012EDCDBDDE9020100F0D3FB00F07C
S1130DD0F1FB02460B46DDE9020100F0F9FB0022BB
S1130DE03B4600F0B5FCCDE90201CBE70DF1110063
S1130DF0201A0DF111079DF81110302906D1401E5B
S1130E00A8F1010817F8011F3029F8D09DF8001047
S1130E10662904BF0FFA88F808F1010103D0652997
S1130E200CBF012100212A6B8E1836B2B042B8BF24
S1130E30064636B2002E1CD43146814204DAC85D1F
S1130E40352828BF392000D23020CA19521E00E0AC
S1130E50761E491E12F801398342F9D0392802D18D
S1130E60C85D401CC855002903D57F1E761C08F1B7
S1130E7001080FFA88F0009033B23A469DF8381012
S1130E80284600F00BF80FB0BDE8F08FA0860100F3
S1130E90000024400000F03F84D797412DE9F0433F
S1130EA085B00546894617461E46BDF93040D5F83B
S1130EB03080012E02DA01260FF2982749F0200033
S1130EC066280AD0672840F086806FF003018C42C0
S1130ED0C0F28780444580F28480641C66280CD06C
S1130EE095F83800000702D44645B8BFB04624B28E
S1130EF0B8EB040848BF4FF00008E868A96924B2B9
S1130F00012C25DA4A1C30230B54B8F1010F03DA03
S1130F1095F83810090702D52E211154521CAA61E4
S1130F2018EB040FB8BFC8F1000424B2614269622F
S1130F30A044B045B8BF464636B2EE6132463946A3
S1130F40AB69181800F0E4F9A8EB0600A862C6E043
S1130F500818A64218DA3246394600F0D9F9A969C8
S1130F607118A961A01B6862B8F1010F03DA95F842
S1130F703800000705D5E8682E220A54E869401CA9
S1130F80E861C5F82880AAE02246394600F0C0F995
S1130F90A8692018A861361BB8F1010F03DA95F887
S1130FA03810090704D5411CA961E9682E2242546E
S1130FB036B2B045B8BF464636B23246E119A869E2
S1130FC0EB68C01800F0A4F9A8693018A861A8EB70
S1130FD00600686283E0B9F1610F16D14FF0700921
S1130FE018E0464504DA95F83810090758BFB046AA
S1130FF0B8F1010848BF4FF00008B9F1670F14BFFA
S11310004FF045094FF0650904E0B9F1410F08BFFD
S11310104FF05009A9694A1CE86817F8013B0B54C2
S1131020B8F1010F03DA95F83810090702D52E211B
S11310301154521CAA61B8F1010F11DB761E36B2AD
S1131040B045B8BF464636B232463946AB69181881
S113105000F05EF9A8693018A861A8EB0600686280
S1131060A869E968471807F8019B002C5CBF2B208E
S113107007F8010B03D52D2007F8010B6442002665
S11310800DF1080824B2012C0EDB0A22214600A827
S113109000F053FD019808F8010B009C761C24B263
S11310A0012CF2DA022E06DA49F02000652804BF8A
S11310B0302007F8010B1EB9302007F8010B09E0B6
S11310C0012E07DB761E02A8305C303007F8010BD6
S11310D0012EF7DAA869E9684018381AE86195F82A
S11310E0380000F0140010280DD16869A9690818A7
S11310F0696A0818E9690818A96A0818696B8842B6
S1131100BCBF081A286205B0BDE8F083F8B50446F0
S11311100D4616461F46002077B116F8011BA86835
S1131120A047A86030B1E86A401CE86200207F1E36
S1131130F3D1F2BD4FF0FF30F2BD0000686A6C7469
S11311407A4C00006E616E004E414E00696E66007E
S1131150494E4600300050F8041B61B150F8042B8E
S1131160D30744BFA9F101039A18002342F8043BB2
S1131170091FFAD1EFE770470278C9B28A421AB15F
S11311801CBF10F8012FF9E718BF002070470000BA
S113119000F10103810704D010F8011B89B1810714
S11311A0FAD10268B2F10131914311F0803F04BFDA
S11311B050F8042FF6E710F8011B11B110F8011BC9
S11311C0FBE7C01A70470000C9B2830706D0521E5D
S11311D022D310F8013B9942F7D11FE0083A13D308
S11311E002F1040241EA012141EA014150F8043BC1
S11311F0121F21BF4B40A3F1013C2CEA030C1CF04D
S1131200803FF3D0C9B2001F083210F8013B521ED0
S113121028BF91EA030FF8D818BF0120401E704779
S11312201B4213D1094236D12AB18446B0FBF2F0F5
S113123002FB10C2704700F087BCFCD300220023DD
S113124070470B000200002100207047904271EBB0
S1131250030CF6D370B5B1FA81F4B3FA83F52C1B01
S1131260A340C4F1200532FA05F63343A2405FF0EF
S11312700046E64002E05B085FEA3202841A71EB42
S1131280030524BF204629467641F4D302000B000F
S11312903000002170BD012ACFD970B5140C20D0C4
S11312A0B1FA81F4B2FA82F5C4F120046419B4F1FC
S11312B02006D6D3B2405FF00044F440002502E09B
S11312C052085FEA3303C61A71EB020E24BF30469C
S11312D0714664416D41F3D302000B0020002900E4
S11312E070BD0C46B1FBF2F102FB11452D0445EA39
S11312F01045B5FBF2F402FB145580B240EA0545F3
S1131300B5FBF2F002FB105240EA044070BD00004D
S113131062B38B0708D0521E11F8013B00F8013B61
S113132000F024808B07F6D1830740F0208000BFB3
S1131330103A07D330B4B1E83810103AA0E83810A6
S1131340F9D230BC530724BFB1E80810A0E8081054
S113135044BF51F8043B40F8043BD20724BF31F8A2
S1131360022B20F8022B44BF0B7803707047083A15
S113137007D3B1E80810083A40F8043B40F804CB1E
S1131380F7D25307E4E730B4416801F00042012189
S113139043681B031B0B436004BF0368002B0ED080
S11313A003684468DD0F45EA440444605B0003605D
S11313B0491EE302F4D543681B031B0B43604368D7
S11313C01A434260084630BC704700004FF4001CCA
S11313D01CEB410F94BF1CEB430F09E041EA030CE3
S11313E050EA4C0C52EA0C0C03D2994208BF9042CA
S11313F0704714BF8B428242704700004FF4001CB8
S11314001CEB410F94BF1CEB430F09E041EA030CB2
S113141050EA4C0C52EA0C0C03D28B4208BF8242B5
S1131420704714BF994290427047000070B504465B
S11314300D466068C0F30A5040F2FF72904207D133
S11314406068000304BF2068002818D0022070BD23
S1131450010004D12046FFF796FF012867DA012D29
S11314600FDB40F2FF71091A8D420AD3606800282D
S113147047BF00202F4900202F49C4E90001012063
S113148070BD4142A942616806DA2C4A11404019F4
S113149041EA0050606053E001F0004162681203C9
S11314A0120B42F480126260401E451905F13500AA
S11314B0352803D361600020206070BD002215F13F
S11314C01F0F05DA20352268606820600020606004
S11314D0684213D0521E9241D243C0F120032568C2
S11314E09D4055EAD2722568C540666806FA03F342
S11314F02B432360636823FA00F06060606808434C
S11315006060B2F1004F03D80BD12078C00708D532
S11315102068401C2060206818B96068401C606026
S11315200EE06068884204BF20680028F8D10020DB
S113153070BD00000000F0FF0000F07FFFFF0F808F
S11315404FF0FF3070BD0000F446400D40EAC1206A
S1131550490006D200F014F8004248BF6FF0004082
S1131560604700F00DF84FF0004188428CBF0846F8
S113157040426047400D40EAC120490080F00D80A0
S113158040F00040490DA1F58061491C05D4D1F11A
S11315901F0154BFC840C01770474FF00000704788
S11315A0010040F10980F446404200F005F851F092
S11315B000416047010000BF09D0B0FA80F18840C3
S11315C0C91CC1F58461090501EBD02140057047B0
S11315D070B44FF0004591EA030F44BF6B4000F034
S11315E0B5BA00BF841A71EB030604D26E40001B27
S11315F0B141121973414FF4001C1CEB410F34BF6D
S11316007CEB430684E00C0DA4EB1356362E7DDCF4
S1131610012E43DC45EAC32343EA525312BFD202EC
S113162092025B08240545EAC12141EA5051D2EBFC
S1131630C020994125D407D1B0FA80F610FA06F1FA
S113164064D00020203608E0B1FA81F6B140C6F13A
S1131650200220FA02F21143B0404FEAF474B4EBD2
S1131660465434F001064FEA74040AD8D6F500163D
S1131670760D04F00044F04061FA06F25040F14067
S11316804840C00A40EA415021F0004128BF5FEAC7
S1131690500550F1000044EBD12137E045EAC32363
S11316A0DB0A45EAC121C90AB6F120050EDD42EA8A
S11316B00242120CC5F1200603FA06F6EB4042EA98
S11316C006056D42984161F100010DE062FA06F5EC
S11316D0F240554063FA06FC82EA0C02F3405A4099
S11316E06D42904161EB030111F4801F05D1641E2A
S11316F0620502D06D004041494121F48011430844
S113170075F1004350F1000041EB045170BC704787
S11317101CEB410F15D223F0004352EA43060BD0D1
S11317204FEA4C0CBCEB410F04D80C0D661E342E52
S1131730B7DDEBE7801A994150EA410608BF002162
S1131740E4E708BF1CEB430F28BF6FF00001DDE79F
S1131750B0B581EA030C0CF0004C40F2FF7515EAB9
S113176011541DBF15EA1357AC42AF4239E0E419D6
S113177023EA455343F48013C90241F0004141EA8E
S1131780505EC7021100A7FB020200284FF00000C0
S1131790EEFB01204FF00001E3FB072118BF42F0EC
S11317A00102401800214941E3FB0E01A4F58064C5
S11317B00F0302D252004041494154F101046CDD4F
S11317C0470872F1004250F1000051EB0451A1F5B9
S11317D080115CBF41EA0C01B0BD4CEA0551002008
S11317E0B0BD05EA1357AC4214BFAF4241E050EA22
S11317F0410E1CBF52EA430E02E061460020B0BD18
S113180024423C441BD15FEA070EF6D0090302BF11
S113181001460020AEF1140EB1FA81F7AEEB0704D5
S113182001FA07FE0C37C7F1200100FA07F7C84098
S11318304EEA000E23EA455343F48013A2E733F043
S11318400043B3FA83F704BFB2FA82FE77440B3F36
S1131850E41BB7F1200E2FBF02FA0EF3BB40C7F111
S1131860200E22FA0EFE38BF43EA0E03BA40641C6F
S113187082E750EA410E14BF52EA430E6FF00001B2
S11318804FF4001717EB430F8ABF194617EB410FAC
S1131890B5E74CEA05510020B0BDD4F10104B4F120
S11318A020070FDAC4F12007520828BF42F00102D2
S11318B010FA07F501FA07F7E1BF2A43E04038437D
S11318C0E1400FE0352C98DCC7F1200452EA4002D5
S11318D020FA07F218BF42F0010231FA07F0A140E2
S11318E00A43002172F1004250F1000051EB0C0157
S11318F0B0BD0000F0B540F2FF7581EA030C0CF0B6
S1131900004C15EA11541DBF15EA1357AC42AF42FF
S1131910E5E0BC41C1F31301C3F31303801A9941F9
S113192043F4801304D2641E400049418018594195
S1131930C90241EA5051B1FBF3F603FB1611A2FBB5
S11319400675D7EBC020A94102D2761E80185941F2
S1131950C90241EA5051B1FBF3FE03FB1E11A2FB85
S11319600E75D7EBC020A94103D2AEF1010E801849
S11319705941890241EA9051760546EA8E2EB1FB1F
S1131980F3F603FB1611A2FB0675D7EB8020A941E1
S113199002D2761E80185941C90241EA50514EEADA
S11319A0060EB1FBF3F603FB1611A2FB0675D7EB8B
S11319B0C020A94102D2761E80185941C90241EAC9
S11319C05051B1FBF3F703FB1711A2FB0735D3EB1F
S11319D0C020A94167F100070CBF004247F001078E
S11319E066F3D5274FEA1E31B80814F5806412DD7A
S11319F0BD0775F1004250EB0E5051EB045111F547
S1131A00801F5CBF41EA0C01F0BD4CF07F6141F0E6
S1131A10E0410020F0BDBD076D0840EA0E5041F4DE
S1131A208011D4F10104B4F120060ADAC4F12006CD
S1131A300200E04001FA06F3E1401843B2401543C6
S1131A400EE0342C13DCC6F1200445EA40056D0891
S1131A5020FA06F2154321FA06F0A1400D430021B5
S1131A6075F1004250F1000051EB0C01F0BD002073
S1131A705FEA0C01F0BDCFB992185B41B3FA83F76A
S1131A8004BFB2FA82F6BF190B3FB7F120062FBF8D
S1131A9002FA06F3BB40C7F1200622FA06F638BF65
S1131AA03343BA401CB1E419641E33E77F4231F07A
S1131AB00041B1FA81F404BFB0FA80F6A4190B3CDA
S1131AC0B4F120062FBF00FA06F1A140C4F12006AC
S1131AD020FA06F638BF3143A0403C1B1AE7AC425B
S1131AE01ABF05EA1357AF4212E050EA41061CBF81
S1131AF052EA4306BFE750EA4107304661461CBF3D
S1131B0041EA0551F0BD52EA430C08BFC143F0BDA0
S1131B1000204FF4001616EB410F98BF16EB430F4D
S1131B2008BF16EB410F24BFC14305E016EB430F7A
S1131B300CBF61464CEA0551F0BD91FBF2F303FB87
S1131B401211C0E90031704770470000841A71EB2C
S1131B50030603D2001BB141121973414FF4001C58
S1131B601CEB410F34BF7CEB430443E00C0DA4EBAE
S1131B701356352E50DC45EAC323DB0A45EAC1215E
S1131B80C912B6F120050DDD63FA05F6EB4086EACD
S1131B900305124218BF45F00105C01851F10001B8
S1131BA00CD213E062FA06F5F2405540F3415A4074
S1131BB0B340F3405A408018594107D349085FEABB
S1131BC030005FEA350528BF45F0010501F58011B5
S1131BD0420875F1004250F1000041EB045170BC21
S1131BE04FF4001C1CEB410F38BF70470020090D57
S1131BF0090570471CEB410F10D252EA43060BD083
S1131C00BCEB410F05D80C0DAB43661E342EB5DD7D
S1131C1002E0AB438018594170BC704770BC7047F8
S1131C2010B5DFF8800401218170DFF878045321B6
S1131C30C170DFF874045A210175DFF86C045A216D
S1131C404175DFF864040C218175012000F04CFA21
S1131C50DFF8580400F0A0FADFF84814087072B6F0
S1131C6000F0B6FA012301220821022000F05EFBF5
S1131C70002301220921022000F058FB0123012244
S1131C800A21022000F052FB002300220B21022033
S1131C9000F04CFB012301220021032000F046FB4D
S1131CA0002301220121032000F040FBDFF8F403AC
S1131CB00078592825D3DFF8EC0300785F2820D278
S1131CC0DFF8E003007810F0010301220021022074
S1131CD000F02CFBDFF8CC030078C0F34003DBB248
S1131CE001220121022000F021FBDFF8B803007873
S1131CF0C0F38003DBB201220221022000F016FBB4
S1131D0011E0002301220021022000F00FFB002338
S1131D1001220121022000F009FB002301220221FB
S1131D20022000F003FB012301220321022000F022
S1131D30FDFA002300220121012000F0F7FA2920F6
S1131D4000F05BFBDFF868030068DFF86813084302
S1131D50DFF85C1308600421292000F0C7FB00F0C1
S1131D6051FA0A21102000F0C1FB00F062FADFF8FA
S1131D704803006841F2B351484342F21071B0FB8A
S1131D80F1F1002000F0E4FB002000F010FC00F072
S1131D9063FC62B6A421DFF8240300F002FADFF842
S1131DA0200300780028FAD0DFF814030021017022
S1131DB00121DFF8080300F0F4F9C1480078002895
S1131DC0FBD000F0DBFCBF480078012806D1B54801
S1131DD04078B4490870BB4800210170B1480078CC
S1131DE010F0F0005028EED1AE480078000777D408
S1131DF0AC480078C0F38000C0B2002850D0A94895
S1131E000078A849C9788842DDD0A648A549097850
S1131E10C170A4480078542812D1002000F0EEFBD1
S1131E20A548006841F60A21484342F21071B0FB0C
S1131E30F1F1002000F08CFB002000F0B8FBC2E7B9
S1131E4098480078562808D100F0FEF95FF4613014
S1131E5000F0CFF900F0EDF9B5E792480078552885
S1131E6012D1002000F0CAFB9348006841F2B3513C
S1131E70484342F21071B0FBF1F1002000F068FB1E
S1131E80002000F094FB9EE78648007857289AD1FA
S1131E9000F0DAF98C4800F0ACF900F0CAF992E7E6
S1131EA08048007810F003007E49897888428AD0FF
S1131EB07C487C49097811F00301817079480078E5
S1131EC010F001020821022000F070FA7548007831
S1131ED0C0F34002D2B20921022000F067FA72E78F
S1131EE07A48007801287FF46EAF784800210170A9
S1131EF000200400A4B2042C0BD2A4B26A4810EB54
S1131F004400A4B2724931F81410A0F81710641CEC
S1131F10F0E76B480078012838D100226249142088
S1131F2000F047F801283CD16548002101705E4863
S1131F30132181755C485C498979C1775A485A49AB
S1131F40C97980F8201058485749097A80F8211037
S1131F5055485549497A80F8221053485249097C1A
S1131F6080F8231050485049497C80F824104E488A
S1131F704D49897C80F82510012256494A48807DC4
S1131F8000F017F8484981F826000AE046480C2179
S1131F90817501224F494448807D00F00AF8424986
S1131FA0C8774C4A4048817D89B2404800F0FEF829
S1131FB009E770B40300002400200600F6B2581E9E
S1131FC0864204D2F6B2705C2418761CF6E7200030
S1131FD00500D2B2012A02D12800C0B208E0581884
S1131FE010F8010CEDB2854201D1012000E000207F
S1131FF070BC704780B5314800F0CEF83649097896
S1132000294A885434480078132805D23248007885
S1132010401C3149087005E02948012101702E480F
S11320200021017001BD80B5204800F0B5F81D49BC
S1132030487024480121017001BD80B5274800681B
S1132040C00710D50021032000F0C7F9012000F0DB
S11320504BF80021032000F0C0F92048006850F03C
S113206001001E49086001BD80B51D480068C00715
S113207009D5A221114800F094F81948006850F0DD
S113208001001749086001BD80B572B600F056FB27
S11320900E480121017013485FF0FF31016062B600
S11320A001BD000010E4FF1F14E4FF1F00B0064050
S11320B004A0044003010A0050E4FF1F00A00640EE
S11320C056E4FF1F54E4FF1F00CF030057E4FF1F33
S11320D03CE4FF1F28E4FF1F55E4FF1F0C7103407D
S11320E01C710340A0A0044000221100302901D239
S11320F0491CFBE770470000F0B4594EB04206D1CA
S1132100584E366856F48066564F3E6012E0564E7E
S1132110B04206D1534E366856F40066514F3E60C5
S113212008E0524EB04205D14E4E366856F4805601
S11321304C4F3E60C67816F0F306C67000268670D3
S11321404FF47A7606FB01F6170196FBF7F6330097
S1132150067816F0E00635009BB21E0A16F01F063C
S11321602E43067043704FF4FA4606FB01F617013E
S113217096FBF7F69BB2B6EB43163400867A16F05C
S1132180E006350014F01F062E438672C67856F01A
S11321900C06C670F0BC704701798906FCD5C0797D
S11321A0704702791206FCD5C1717047F8B5040076
S11321B00D00160000200700BFB2ADB2AF4206D238
S11321C0BFB2B95D2000FFF7ECFF7F1CF4E7F1BD5F
S11321D080B527484FF44071016026484FF44071A0
S11321E001604FF41652244801681D48FFF784FF2C
S11321F001BD10B5040022001F4801681A48FFF70A
S11322007BFF10BD80B51D48007850F008001B49C5
S113221008701A48007850F00600184908701848E9
S1132220007850F0200016490870102000F0E5F8FE
S113223001BD80B51348007850F0200011490870A2
S1132240122000F0DAF801BD80B50E48007810F0D5
S1132250DF000C490870122000F019F901BD0000DC
S113226000A006403480044000B0064000C0064090
S113227018C004401CC004404CE4FF1F10A00640DA
S113228003A0064003B006400100C9B2002906D0ED
S113229002290AD006D304290DD009D30EE0194827
S11322A002000DE0184802000AE01848020007E0A6
S11322B01748020004E01748020001E0002000E093
S11322C0100070470100C9B2002906D002290AD0C3
S11322D006D304290DD009D30EE00F4802000DE007
S11322E00E4802000AE00E48020007E00D48020012
S11322F004E00D48020001E0002000E010007047F7
S1132300000000000090044000A0044000B004401D
S113231000C0044000D0044000F00F4040F00F40E3
S113232080F00F40C0F00F4000F10F402DE9F04164
S113233004000D0016001F002000C0B2FFF7C2FF0A
S113234080462000C0B2FFF79FFF0100002901D1A1
S1132350012029E0EDB24FF4807041F82500F6B277
S1132360012E19D1D8F814000122AA401043C8F84C
S11323701400FFB2012F07D1D8F800000122AA40AF
S11323801043C8F800000EE0D8F800000122AA406B
S11323909043C8F8000006E0D8F814000122AA40CF
S11323A09043C8F814000020BDE8F08170B5040023
S11323B00D0016002000C0B2FFF784FFF6B2002E15
S11323C005D101680122AA409143016004E001683B
S11323D00122AA401143016070BD38B504000D000C
S11323E02000C0B2FFF76EFFC1680122AA4011436A
S11323F0C16031BD48490860704738B504003E2CBF
S113240002DB464800F0D2F9202094FBF0F00500EE
S1132410002D03D0022D27D013D337E00120202133
S113242094FBF1F202FB114290403D490860012007
S1132430202194FBF1F202FB1142904039490860DB
S113244024E00120202194FBF1F202FB1142904090
S1132450354908600120202194FBF1F202FB11426E
S113246090403249086011E00120202194FBF1F2F0
S113247002FB114290402E4908600120202194FB68
S1132480F1F202FB114290402A49086031BD38B58F
S113249004005C2C02DB284800F088F9202094FB1F
S11324A0F0F00500002D03D0022D15D00AD31CE056
S11324B00120202194FBF1F202FB114290401F49BC
S11324C0086012E00120202194FBF1F202FB11428A
S11324D090401B49086008E00120202194FBF1F2A0
S11324E002FB114290401749086031BD70B50400E9
S11324F00D005C2C02DB144800F058F9102D02DBAF
S1132500124800F053F904F1604010F564400600ED
S11325102801307070BD000008ED00E0BC2D000003
S113252080E200E000E100E084E200E004E100E099
S113253088E200E008E100E0442D000080E100E0D2
S113254084E100E088E100E0802D0000042D00001B
S11325503E4A126852F400023C4B1A603C4A12682C
S113256032F002023A4B1A60394A126852F0010200
S1132570374B1A60C0B20201364BD150C0B2354A53
S113258012EB0012926852F00102C0B2314B13EB0D
S113259000139A60C0B22F4A12EB0012926832F014
S11325A00202C0B22B4B13EB00139A60704710B5B4
S11325B00400E4B2274810EB0410806850F00200D5
S11325C0E4B2244911EB04118860E4B2002C05D074
S11325D0022C0BD006D3032C0CD00EE01E20FFF7E8
S11325E00CFF0AE01F20FFF708FF06E02020FFF79A
S11325F004FF02E02120FFF700FF10BD10B5040026
S1132600E4B2144810EB0410806830F00200E4B225
S1132610104911EB04118860E4B2002C05D0022C9F
S11326200BD006D3032C0CD00EE01E20FFF72FFF97
S11326300AE01F20FFF72BFF06E02020FFF727FF0B
S113264002E02120FFF723FF10BD00003C8004407E
S113265000700340007103402D48006850F480501E
S11326602B4908602B484FF4007101602A484FF44D
S11326700071016029484FF40071016028484FF44B
S11326800071016027485FF000410160254800683F
S113269050F48030234908602248006830F48040B8
S11326A0204908601F480068400840001D49086030
S11326B01D485FF0F04101601B48006850F08060E5
S11326C0194908601848006830F00070164908601D
S11326D01548006830F0807013490860124800689B
S11326E050F00040104908607047010089B20F485B
S11326F008430F4A10600F4800680028FBD50D48B6
S1132700006850F000400B4A10600B4800687047A6
S11327103C80044010B0044014B0044018B004409D
S11327201CB0044000C0024010C002400000011070
S113273034C002402CC0024038C0024080B50A2197
S11327400220FFF74AFE0020FFF7CFFF0A49088066
S11327500020FFF7CAFF084948800020FFF7C5FFA3
S1132760054988800020FFF7C0FF0349C8800A217B
S11327700220FFF732FE01BD3CE4FF1F80B50022BA
S113278001210320FFF712FE0120FFF7ADFC012118
S11327900320FFF722FE0120FFF7A6FC01210320FE
S11327A0FFF71BFE0120FFF79FFC01BD0EB400B52F
S11327B082B003A9009100AB02460121034878448A
S11327C00A30FDF739FE06BC5DF810FB4D0700002A
S11327D02DE9F04F04009DF92450DFF8F40200784D
S11327E0C0F38100C0B2002809D1DFF8E402007808
S11327F0C00604D5DFF8D8020078800601D5012090
S11328005EE1DFF8C002844201DB212058E1D2B24C
S1132810002A09D0DFF8B002844203DBDFF8AC02FF
S1132820844201DB22204BE1C9B2012901D30120FA
S113283001005BB2012B02DB5BB21A2B01DB4120EE
S11328403EE16DB2182D02DB6DB2382D01DB422062
S113285036E15BB294FBF3F08146DFF87802814500
S113286003DBDFF87402814501DB432028E15BB21E
S113287094FBF3F06DB268438246DFF86002824550
S113288003DBDFF85C02824501DB452018E1DFF859
S113289054020078070017F0C307DFF84C028442A3
S11328A00ADAC9B2C800D2B25FEA820B5BEA00005E
S11328B050F01000074309E0C9B2C800D2B25FEA81
S11328C0820B5BEA000050F020000743DFF814029B
S11328D00770DFF81802844202DA002006001DE0C7
S11328E0DFF80C02844202DA0120060016E0DFF869
S11328F00402844202DA022006000FE0DFF8F80145
S1132900844202DA0320060008E0DFF8F001844282
S113291002DA0420060001E005200600DFF8E001E9
S11329200078070017F00307F00010F0380050F0AB
S113293080000700DFF8C8010770D2B2002A16D061
S11329400020804642F210700FFA88F8804507DABA
S1132950DFF87C010078800702D418F10108F1E760
S1132960DFF86C010078800701D42320A8E0002060
S113297080460FFA88F8B8F5FA6F0ADADFF85001E2
S11329800078C0F38100C0B2022802D018F1010817
S1132990EFE7DFF83C010078C0F38100C0B2022801
S11329A001D01A208CE0DFF85C01007850F02000A0
S11329B0DFF850B18BF80000DFF84C010078070015
S11329C017F0E007581E10F01F000743DFF8380126
S11329D00770DFF830010078070017F0E007B5F161
S11329E0180010F01F0050F040000743DFF81401F6
S11329F00770002080460FFA88F8B8F5FA6F07DAF6
S1132A00DFF8CC000078800602D418F10108F2E760
S1132A10DFF8BC000078800601D4162050E00020C6
S1132A2080460FFA88F8B8F5FA6F07DADFF8A000E5
S1132A300078400602D418F10108F2E7DFF89000AC
S1132A400078400601D444203AE0DFF8BC00007866
S1132A5010F01F00401C8446DFF8A800007810F036
S1132A601F0018308646DFF89800007810F03F0009
S1132A70DFF88CB08BF80000002080460FFA88F84D
S1132A80B8F5FA6F0ADADFF848000078C0F381007D
S1132A90C0B2032802D018F10108EFE7DFF83000D4
S1132AA00078C0F38100C0B2032801D01B2007E0E6
S1132AB05FFA8CFC94FBFCF05FFA8EFE0EFB00F0D8
S1132AC0BDE8F08F81F0FA02C0C62D000148E8018C
S1132AD00640064080841E0001093D00006CDC02B3
S1132AE001E1F50501400640C1C62D00D1121300D5
S1132AF0A1252600414B4C0081969800012D3101FF
S1132B0000400640054006400440064000B583B03E
S1132B102D48006850F478502B4908602B48007801
S1132B20000705D52948007850F0080027490870A7
S1132B3027482849016025480078000705D523481F
S1132B40007850F0080021490870012001901820F5
S1132B5000900423012200211F48FFF739FE1F497A
S1132B6008601E480068FF2800DCFEE71B48006878
S1132B704FF47A7190FBF1F0194908601848006825
S1132B8013490968090F491CB0FBF1F015490860A5
S1132B90134800680E490968C1F30361491CB0FB7E
S1132BA0F1F01149086011484FF440710160104878
S1132BB04FF4407101605FF4E1320A4801680D4846
S1132BC0FFF79AFA07BD00003880044002D007409E
S1132BD0448004400000030100127A0044E4FF1F13
S1132BE048E4FF1F4CE4FF1F50E4FF1F00D00440E3
S1132BF004D0044000B006402DE9F8432448254998
S1132C0088420DD000208046B8F1FF0F08D8204834
S1132C10204951F8281040F8281018F10108F3E76A
S1132C201B48FFF7E7FB1C4807001C4806001C482C
S1132C300400A01B80464046B0F10108002804D0DF
S1132C4030783870761C7F1CF5E7164881461648A4
S1132C500500B5EB090080464046B0F101080028A4
S1132C6005D0002089F8000019F10109F4E70F48A4
S1132C700F49104A531A98464346B3F10108002BF2
S1132C8004D00B780370491C401CF5E7BDE8F183C0
S1132C9000E0FF1F00000000000000000000000032
S1132CA00000000010E4FF1F58E4FF1F58E4FF1F5A
S1132CB00000000000000000F8B504000D0016003C
S1132CC00027002D01D1002018E0012C04D0022C93
S1132CD002D05FF0FF3011E0002E0ED028780A28D1
S1132CE003D10D210648FFF75CFA29780448FFF761
S1132CF058FA6D1C7F1C761EEEE73800F2BD00BF4B
S1132D0000B006400A4552522120496E76616C6932
S1132D1064207072696F726974792076616C75656C
S1132D202070617373656420746F207072696F72B0
S1132D30697479206972712066756E6374696F6E47
S1132D40210A00000A4552522120496E76616C69BD
S1132D5064204952512076616C75652070617373EB
S1132D60656420746F2064697361626C65206972A4
S1132D70712066756E6374696F6E210A000000002D
S1132D800A4552522120496E76616C696420495289
S1132D90512076616C75652070617373656420746D
S1132DA06F207072696F726974792069727120661C
S1132DB0756E6374696F6E210A0000000A455252F1
S1132DC02120496E76616C696420495251207661F4
S1132DD06C75652070617373656420746F20656E13
S1132DE061626C65206972712066756E6374696FC7
S1132DF06E210A0080B500F009F80A4800884FF6F1
S1132E00FE7108400749088001BD000072B60648FB
S1132E104CF22051018004484DF62811018062B61D
S1132E2070470000002005400E2005400A2A2A2A87
S1132E302A64656661756C745F69737220656E746B
S1132E4065726564206F6E20766563746F722025E9
S1132E50642A2A2A2A2A0D0A0A00000010B5084901
S1132E6079441C31074C7C441A34A14206D0081D15
S1132E700A68511888470146A142F8D110BD00BF25
S1132E80300000003C00000010B582B0044614F18C
S1132E90010F0AD08DF80000012200A90120FFF7DC
S1132EA00BFF012801D1204616BD4FF0FF3016BD9F
S1132EB0A7E2FFFF4800000010E4FF1F000000002D
S1132EC080B503480178C9B20248FFF76FFC01BD21
S1132ED004ED00E02C2E000000F009F8002801D0D9
S1132EE0FFF7BCFF0020FEF79BFE00F002F8012074
S1132EF0704700F001B800000746384600F002F8B9
S1132F00FBE7000080B5C046C046024A1100182005
S1132F10ABBEFBE72600020038B504460D46284642
S1132F20FFF7B2FFA84218BF0024204632BD0000BC
S1132F3080B5FFF75FFFFFF75FFEFFF7E7FDFEF7E2
S1132F406FFEFEE7C046C046C046C046FFF7C4FF5A
S9032F4588
